:020000040800F2
:10000000009000205125000801080008050800089C
:1000100000000000000000000000000000000000E0
:1000200000000000000000000000000009080008B7
:1000300000000000000000000D0800081108000882
:10004000A125000800000000A1250008A125000846
:10005000A1250008A1250008A1250008190800080D
:10006000000000002D080008A1250008A1250008B7
:10007000A1250008A1250008A12500080000000016
:10008000A1250008A1250008A1250008A125000838
:10009000A1250008A1250008A1250008A125000828
:1000A000A1250008A1250008A1250008A125000818
:0800B000A12500083D0800082D
:1000B80003B47146490840004900095E49008E446E
:1000C80003BC7047002934D00123002210B48842B1
:1000D8002CD301242407A14204D2814202D209016F
:1000E8001B01F8E7E400A14204D2814202D2490090
:1000F8005B00F8E7884201D3401A1A434C08A04233
:1001080002D3001B5C0822438C08A04202D3001BC8
:100118009C082243CC08A04202D3001BDC082243DF
:10012800002803D01B0901D00909E3E7100010BC1F
:10013800704701B5002000F00BF802BD0029F8D087
:1001480003B5FFF7C1FF0EBC4243891A1847C046E2
:100158007047C04610B5064C2378002B07D1054BD5
:10016800002B02D0044800E000BF0123237010BD1B
:100178009800002000000000E0360008044B10B58D
:10018800002B03D00349044800E000BF10BDC0465F
:10019800000000009C000020E036000800B593B085
:1001A8003422002105A802F02BFC10220021684609
:1001B80002F026FC8020800001F0D4FA0223059387
:1001C8000C930D9306330F93802380229B025200D9
:1001D800109380234021089200229B0505A80992CC
:1001E8000A910E92119300F09FFB002801D072B67D
:1001F800FEE7072202230092019300220023022136
:1002080068460292039300F047FE002801D072B6B8
:10021800FEE713B000BDC046F0B5CE46474680B5F0
:1002280002278BB0694D01F041FBFFF7B7FF14229D
:10023800002104A802F0E4FB6B6B01263B436B63CF
:100248006B6BA0203B400193019B04236A6B6049C0
:100258001A436A636A6BC00513400293029B6B6B77
:10026800002233436B636B6B002433400393039B7F
:1002780001F09CF8574B002219005748984601F0A6
:1002880095F800224021554801F090F8802200237B
:100298009200514804A904920593069400F0D8FEF0
:1002A800C022882312025B034C4804A904920593D8
:1002B800069400F0CDFEA020032304A9C0050596EE
:1002C80007930497069400F0C3FEA020444B04A9AA
:1002D800C005049305960694079400F0B9FE4346BA
:1002E8003D4804A9049305960694079400F0B0FECF
:1002F80040233A4804A9049305960694079400F00D
:10030800A7FE00220121072001F05AFA072001F078
:1003180081FAAB6B00223343AB63AB6B00211E4009
:1003280009200496049B01F04BFA092001F072FAA7
:100338002C482D4B84600360E1235B024360082353
:10034800C460046143618461C4610462446284627C
:1003580002F084F8002801D072B6FEE7A02000223F
:100368000221C00501F022F8204802F031FA0624E3
:10037800642001F0C1FAA020013C0221C005E4B2CA
:1003880001F01AF8002CF3D1A02001220221C005A7
:1003980001F00CF8164B00279946164B0024984696
:1003A8000025154E01F0A2FA3368C31A012BF9D9BA
:1003B8004B461F70434630601C605D6001F096FA42
:1003C8003368C31A012BF3D8ECE7C046001002408B
:1003D800FE9F0000FF0100000004005000080050CC
:1003E800FC9F000010110020004C0040F836000867
:1003F800A0100020A8100020B0100020F0B5DE46A4
:1004080057464E4645468023E0B5DB0183B0984207
:100418000AD080231B0298421ED003B0F0BCBB4612
:10042800B246A946A046F0BDCF4C80212268636839
:1004380092185B418900CD482260636000F0B0FFEC
:100448002368CB4A0343236013780133137001F008
:100458004DFAC84B1860E0E7A0200221C00500F063
:10046800ABFF0023C44D2B70C44B98461C68C04B8F
:100478001A780093182A4AD0302A00D034E1BA4BAF
:1004880018680193002800D046E1BD4B9A46A005A4
:10049800800D03F007F98146BA48204003F002F9BD
:1004A800E30228D4484401282ADD2200B6495046F0
:1004B80002F098F95146280002F0AAFA0022002317
:1004C80001990A604B600023009A13702B78002B67
:1004D800A3D04022AD4E3168CB691A42FCD0AC4C57
:1004E8002900200002F0A1FA021B2100300092B27C
:1004F80001F022FA91E74B46012BD6DC0128D4DC27
:1005080043461A68944200D021E1A249CFE7964BAE
:100518001A68019390231100DB001940994200D01A
:10052800EFE013009C490B400A4200D11AE1012276
:1005380016009A481700817A8E40310019404E1EE5
:10054800B1410E0541788F40390019404F1EB9411D
:100558001700490031430678B7403E001E40771E19
:10056800BE41170031438678B7403E001E40771ED3
:10057800BE411700B6003143C678B7403E001E4062
:10058800771EBE411700F60031430679B7403E009A
:100598001E40771EBE411700360131434679B740E9
:1005A8003E001E40771EBE411700B60231438679D1
:1005B800B7403E001E40771EBE411700F602314389
:1005C800C679B7403E001E40771EBE41170036036D
:1005D8003143067A407AB7403E001E40771EBE413E
:1005E800760331431600864030001840461EB0415D
:1005F8001700800301436A4808436A49C0430E78DC
:10060800B7403E001E4037007E1EB7413E002643DD
:10061800B44616004C781700A64034001C40661EED
:10062800B441664664002643B44616008C78A6405A
:1006380034001C40661EB4416646A4002643B446F6
:100648001600CC78A64034001C40661EB4416646AD
:10065800E4002643B44616000C79A64034001C403A
:10066800661EB441664624012643B44616004C79FA
:10067800A64034001C40661EB4416646A4022643C8
:10068800B44616008C79A64034001C40661EB4415E
:100698006646E4022643B4461600CC79A6403400E8
:1006A8001C40661EB441664624032643B446160021
:1006B8000C7AA64034001C40661EB44166036446AA
:1006C80026434C7A897AA7403C008A401C40671E22
:1006D800BC4113405A1E9341A40334431B051C43D9
:1006E800274B04409A46D2E6254B2F499A461800D4
:1006F80002F078F85146280002F08AF91A4B019363
:10070800C5E61F4B29499A46180002F06BF8514676
:10071800280002F07DF9BAE616239A46153B002612
:100728000022994622498A444F460B780131013B01
:100738005B009F4007403E434F4601339F403B00CC
:1007480003401A435145EFD11443B4439DE6A0201A
:1007580000220421C0051C6000F028FE43460D4914
:100768001A68A4E61348BBE7A8100020000400504C
:10077800A0100020B0100020840800209C10002049
:100788005410002000FC0F009C37000810110020B6
:10079800B4000020883700087FFBFFFF0C00002012
:1007A800E0830F00000000205037000814370008CD
:1007B800180000201F7CF0FF00B583B001900122D3
:1007C800034B01A9034801F04DFD019803B000BD9A
:1007D800FFFF00001011002070B5161E07DD0C0089
:1007E8008D1820780134FFF7E7FFAC42F9D13000CB
:1007F80070BDC04672B6FEE7FEE7C046FEE7C046DB
:100808007047C0467047C04610B501F063F810BD88
:10081800802010B5C00100F0D9FD8020000200F052
:10082800D5FD10BD10B5024800F040FF10BDC04610
:10083800B410002010B5024801F08CF910BDC04674
:1008480010110020012200B50B4B83B0196CC02099
:1008580011431964196CC0000A4080210092009A63
:10086800DA6B49050A43DA63DB6B0B400193019BA2
:1008780001F054F803B000BD0010024030B5040088
:1008880089B01422002102A802F0BAF8224B22688B
:100898009A4201D009B030BD8021204B0903DA6BA0
:1008A80001200A43DA63DA6B0A400092009A0122B7
:1008B800596B1143596312215B6B029003911340EA
:1008C8000193A020019B0423C00502A9049206936A
:1008D80000F0BEFB124D134B80222B6039236B6056
:1008E800293BAB6000232800EB602A616B61AB6198
:1008F800EB612B6200F084FD00280AD10022002160
:100908001D20A567AC6200F05BFF1D2000F082FF90
:10091800C0E7FFF76FFFF1E7004C0040001002400E
:10092800B410002008000240F0B5CE46474680B516
:10093800040083B0002800D1F8E00368DA0731D555
:100948003822C6498868C9680240102A00D1F3E0F5
:10095800082A00D1F4E0802263685202934200D151
:1009680001E1A021C9028B4200D1D4E1BB4DBC49B1
:100978002A680A402A602A68BA490A402A60002B75
:1009880000D0F4E000F0B2FF80270600BF0205E0C7
:1009980000F0ACFF801B642800D953E12B683B4270
:1009A800F6D123689A072BD53823AC4A91680B40B7
:1009B800D168102B00D1EBE0002B00D0EDE01368DC
:1009C8005B0500D5AEE051686369A7481B0201408A
:1009D8000B435360A14AA54913680B4021690B4397
:1009E80013601368A24A9B045B0FDA40A1490A60AE
:1009F800A14B186800F034FF002800D096E0236867
:100A08001A0771D45B0745D53823944A91680B407F
:100A1800202B00D1E8E080230020D16B5B058146C4
:100A2800194208D1D16B1943D163D26B134001939A
:100A3800019B012399468027904E7F0033683B42F3
:100A480000D1F0E0A368012B00D1D6E0052B00D13E
:100A5800BEE10121814EF26D8A43F265F26D0331E8
:100A68008A43F265002B00D0CBE000F03FFF022361
:100A780007009846824D05E000F038FFC01BA842E9
:100A880000D9DFE04246F36D1A42F5D14B46012BFF
:100A980000D159E1E369002B24D038226F4DA968B1
:100AA8000A40102A00D10FE1022B00D152E12B6835
:100AB800744A8026134003222B60EB68B6049343E4
:100AC800EB60EB68704A1340EB6000F00FFF040026
:100AD80005E000F00BFF001B022800D9B2E02B68EC
:100AE8003342F6D1002022E038225C4DA9680A4042
:100AF800182A2FD0A369002B00D1A5E001222B6E64
:100B0800022713432B6600F0F1FE060005E000F013
:100B1800EDFE801B022800D994E02B6E1F42F6D010
:100B280023686FE7E368002B00D04CE7012003B08F
:100B3800C0BCB946B046F0BDC943890700D00AE732
:100B4800464A1268920300D42CE76268002A00D053
:100B580028E7EBE72A6E920700D453E7A269002A38
:100B680000D04FE7E2E73D4A11680B43136000F0FD
:100B7800BDFE80260500394FB60204E000F0B6FE3F
:100B8800401B64285ED83B683342F7D0236809E7E6
:100B98000D3B0B40022B00D1C7E0E3682F4D002B23
:100BA80000D17DE02B68314A802713402269FF007D
:100BB80013432B6080232A685B0013432B6000F0EB
:100BC80095FE060004E000F091FE801B022839D84B
:100BD8002B683B42F7D06A68636923491B020A40C5
:100BE80013436B6023680BE7D36D9B0700D451E771
:100BF800A368002B00D04DE798E71849CA6D134346
:100C0800CB6500F073FE154B0600984602271C4D75
:100C180004E000F06BFE801BA84213D84346DB6D4E
:100C28001F42F6D032E733683B43336000F05EFE84
:100C3800050033683B4200D004E700F057FE401B34
:100C48000228F6D9032072E701222B6E022793436C
:100C58002B6600F04BFE06001DE0C0460010024067
:100C6800FFFFFEFFFFFFFBFFFF80FFFFFFC7FFFF48
:100C78000024F40034000020300000200070004000
:100C880088130000FFFFFFFEFFFFFEEF00F02EFEBF
:100C9800801B0228D6D82B6E1F42F7D12368B1E6F5
:100CA8002B68504A802713402B6000F01FFEFF007E
:100CB800060004E000F01AFE801B0228C2D82B6848
:100CC8003B42F7D123689BE6012B00D12EE7032294
:100CD800E868216A02408A4200D027E77022616AE8
:100CE80002408A4200D021E7FE21A26AC9010140E0
:100CF8001202914200D019E7F822E16A92030240F9
:100D08008A4200D012E7236B400F4007C01A431EE7
:100D18009841C0B20BE78021334BC90218680143E0
:100D2800196019680A431A6021E713685B0503D53F
:100D3800E368002B00D1F9E6516863692B481B0270
:100D480001400B43536053E6274A2949D36B0B40B4
:100D5800D3639FE62B68274A802713402B6000F057
:100D6800C5FDBF04060005E000F0C0FD801B022899
:100D780000D967E72B683B42F6D1616A236AEA68C3
:100D88000B431D49184E0A401343E26A1343226B72
:100D98001343A26A12021343EB6080232A685B04A0
:100DA80013432B608023EA685B051343EB6000F074
:100DB8009DFD80250400AD0405E000F097FD001BB3
:100DC800022800D93EE733682B42F6D00020AEE671
:100DD8000421054BDA6D0A43DA65DA6D03390A43F3
:100DE800DA650EE7FFFEFFFF00100240FF80FFFFFD
:100DF800FFFFFFEFFFFFFFFE8C80C11F3823224A51
:100E080010B591680B4205D1136820489B045B0F0D
:100E1800D84010BD91681940082914D0916819402C
:100E2800102912D091681940202924D090681840C0
:100E38001838431E9841164B40421840FA23DB01EC
:100E48009C466044E5E71348E3E7D368D168DB4391
:100E5800D4684906490F64040131640E9B070DD01C
:100E68000A48FFF72FF96043074BD968490F01314A
:100E7800FFF728F9CDE780200002CAE70548FFF709
:100E880021F96043F0E7C046001002400024F40056
:100E98000083FFFF00127A00F8B5CE4647460500EA
:100EA8000C0080B5002826D00722574E336813401F
:100EB8008B425ED32B689A070ED55A0705D5E022D8
:100EC8005249D201886802438A60504950488A686A
:100ED8000240A86802438A60DB072BD56B684B4A3F
:100EE800012B00D17CE0022B07D0002B00D07DE045
:100EF8001268520504D4012037E012689201FAD52D
:100F08000721424EB2688A431343B36000F0EEFCF7
:100F1800382398463F4B0700994604E000F0E6FC6A
:100F2800C01B48453BD84346B2681A406B68DB0093
:100F38009A42F3D10722344E33681340A34238D87B
:100F48002B685B072DD4FFF759FF304B324A9B685B
:100F580032491B051B0F9B009B581F221340D8408A
:100F68002F4B0860186800F07BFCC0BCB946B0463F
:100F7800F8BD336893430B43336000F0B7FC072395
:100F88009846244B07009946424633681340A342CB
:100F980000D18FE700F0AAFCC01B4845F4D9032014
:100FA800E3E71A4A1F4993680B40E9680B439360CB
:100FB800C9E7336893432343336000F097FC072362
:100FC8009846144B07009946424633681340A3429B
:100FD800B6D000F08BFCC01B4845F5D90320C4E708
:100FE8001268920300D58BE70120BEE7032B05D0DA
:100FF800D26D920700D583E70120B6E7126E9207FB
:1010080000D57DE70120B0E7002002400010024033
:10101800FFF0FFFF88130000F437000834000020B9
:1010280030000020FF8FFFFF064B07499B68074AE7
:101038005B045B0F9B005B581F2110680B40D84076
:101048007047C04600100240D43700083400002022
:10105800F0B5DE4657464E464546E0B50A688B462B
:1010680085B0002A73D0A0210023C905884200D189
:10107800D1E0012199408C4611408A4661460A42D6
:1010880061D0032559465F00BD404C680321ED43FC
:1010980021404E1E0195012E60D903290BD02E0048
:1010A800C5683540A8465D46AD68BD40AC46454676
:1010B80066463543C560B9400668019D35402943F9
:1010C8000160C02189020C423DD003270F26B04D94
:1010D8001F40AC46FF00BE409908890061440D6E70
:1010E800B543AC4EB04200D191E0AB4EB04200D116
:1010F8007CE0AA4EB04200D146E10526BE40354309
:101108000D668021A24D8026695855467602ED432A
:10111800344200D078E0294080269D4FB95184217F
:101128007958A7036DD429408427994EF151316825
:10113800E70263D42940964E31607168A40259D4FD
:101148002940934C616011000133D94091D105B019
:10115800F0BCBB46B246A946A046F0BD85682E0045
:10116800019D2E405D46ED68B1462E00BE40B0465A
:101178004E4645462E43866045682E006546AE437A
:101188002509B0462E0001252E409E40B44646460D
:1011980065462E434660C5682E00019D2E405D467B
:1011A800AD68B0462E00BE40B446464665462E435E
:1011B800C660022900D07EE7DD08AD00AC46844455
:1011C80065462E6A07251D40AD00A84602960F25E4
:1011D8004646B540029EAE435D46029646462D6998
:1011E800B540029E2E4365462E6264E70226BE4045
:1011F800354385E754460C432100A2E75646314360
:1012080099E7564631438FE75646314384E701262E
:10121800BE40354374E703218A465946029149E0A6
:1012280003290BD02F00C5683D40A846029DAD6834
:10123800B540AC46454667463D43C560B140076882
:10124800019D3D4029430160C02189020C422CD0F8
:1012580056460F274E4D1E40AC46F600B74099083B
:10126800890061440D6EBD430D668025614649596C
:101278005D46ED43E60300D583E029408027444ED0
:10128800F15184217158A60378D429408426404F0F
:10129800B9513968E6026ED429403D4E3160716813
:1012A800A40265D429403A4C616011000133D94049
:1012B80000D14CE7012199408C4611408B4661468C
:1012C8001142F2D055465E00B5400299ED434C6894
:1012D800514621404F1E0195012FA1D885682F0046
:1012E800019D2F40029DB946ED682F00B740B846D2
:1012F8004F4645462F43876045682F006546AF43F4
:101308002509B8462F0001252F409F40BC46474677
:1013180065462F434760C5682F00019D2F40029DF9
:10132800B846AD682F00B740BC46474665462F43D0
:10133800C760022982D1DD08AD00AC46A025ED05C5
:10134800A846C44465462F6A07251D40AD00A94636
:1013580003970F254F46BD40039FAF4303974F4662
:10136800029D2D69BD40039F2F4365462F6265E7A7
:101378005C46214397E75E4631438EE75E4631433C
:1013880084E75E46314379E70326BE403543B7E636
:10139800001802400004005000080050000C0050E3
:1013A80000690840431E9841C0B27047002A01D026
:1013B800816170478162FCE7426913000B401B049E
:1013C80091430B43836170477047C0460B4B10B580
:1013D800DA680400104204D1084B1A69224207D186
:1013E80010BDD860FFF70AF8044B1A692242F7D0FB
:1013F80020001C61FFF7E8FFF2E7C0460018024032
:10140800F0B5C646040000B5002860D00568314B29
:101418001421E818FEF756FE8300236402222523D0
:10142800E2542B682C4AA66813402B60E3682169B4
:1014380033430B4361692A680B43A1690B43E16994
:101448000B43216A0B4313432B60244B14219C4606
:1014580060448700FF20224B2840A3646764083853
:101468009846FEF72FFE1F230122034010009840E4
:101478008023E064DB019E421FD03F23454661681C
:101488000B4001393B60686003291BD81549164891
:101498005918013B9A400023890021656065A265BF
:1014A8000B6042600023252201210020E363A15440
:1014B800013AA35480BCB846F0BD002363603B608A
:1014C80043465860002323656365A365EAE7012066
:1014D800F0E7C046F8FFFDBF0F80FFFF0082001055
:1014E800800802403F82001040090240F0B5C6461D
:1014F800242400B5055D012D4FD00125252605556D
:10150800855DEFB2012D07D08023C3630023035507
:10151800012080BCB846F0BD223C84550024C46339
:101528000468C66C2568BD432560856C6E60066DD1
:10153800002E02D0456D876D6F601F4D076CAC465D
:101548006D68A8461C252F401B3DBD4047463D43BE
:1015580067467D6063608368102B20D0A160E260DD
:10156800036B002B1ED00E22236813432360426CAA
:101578001368DB0304D5802311685B000B431360F9
:10158800002E04D0802332685B00134333600122AD
:101598002368002013432360BBE70220B9E7A26059
:1015A800E160DDE704222368934323602368063261
:1015B80013432360DBE7C0460000024070B50028F3
:1015C80032D02523C35C022B29D10E210268174C87
:1015D80013681C268B43416C13600B6823400B6017
:1015E8000123116899431160026C114932409340FC
:1015F8004D682B434B60C26C836C5A60036D002BA3
:1016080005D01A6822401A60436D826D5A602523FE
:101618000122C2540022013BC254002070BD0423A1
:101628000022C3632033C2540120F7E7FFFEFFFF07
:1016380000000240252370B5C35C022B03D00423AD
:10164800C363012070BD0E2102681C261368154C67
:101658008B4313600123116899431160416C0A6838
:1016680022400A60026C1049324093404D682B4377
:101678004B60C26C836C5A60036D002B05D01A68EE
:1016880022401A60436D826D5A6025230122C2549C
:101698000022013BC254836B002B00D098470020E6
:1016A800D0E7C046FFFEFFFF0000024070B51C21D6
:1016B80004242B4B06681A68036C35680B4021001C
:1016C80099400A4210D02C420ED033689B0602D4AF
:1016D8003368A3433360224B5A6811435960036B44
:1016E800002B00D0984770BD0224210099400A427F
:1016F80017D02C4215D033689B0606D40A223368CB
:10170800934333602523093AC254154B5A68114351
:10171800596000222423C254C36A002BE3D098479F
:10172800E1E708210C009C402242DCD02942DAD0B3
:10173800326806318A433260012215009D402B0031
:1017480007494C6823434B602523C263C2540022D7
:10175800013BC254436B002BC5D09847C3E7C04632
:101768000000024070B5124C124A2368002513404D
:101778000343236080239B00984201D0280070BD5A
:101788000D4B0E491B685800C0184000FEF79AFC24
:1017980080226369D20001301342EFD063690138B7
:1017A800134203D00028F9D10325E7E70025E5E730
:1017B80000700040FFF9FFFF3400002040420F0096
:1017C800FF22032310B514000340DB009C4089016D
:1017D8000A40E4439A4000280BDB0C4BC0219C468E
:1017E80080088000604489004358234013434350D5
:1017F80010BD0F23064903408C46083B9B089B00FD
:101808006344D9690C401443DC61F1E700E100E06E
:1018180000ED00E0002805DB1F2201230240934071
:10182800014A13607047C04600E100E08022431E71
:101838005204012093420ED2C021074A0748536040
:10184800036A09061B021B0A0B43036200230020DC
:10185800936007331360704710E000E000ED00E08C
:1018680070B50F4B04001978002901D1012070BD13
:10187800FA208000FEF726FC0A4D01002868FEF7D2
:1018880021FCFFF7D3FF0028F0D1032CEED8013854
:1018980000222100FFF794FF034B00201C60E6E7BD
:1018A8002E00002034000020300000208023084A49
:1018B8005B00116810B50B4303201360FFF7D0FFDE
:1018C800041E02D00124200010BDFEF7BBFFFAE77A
:1018D80000200240034A044B11681B785B18136010
:1018E8007047C046A01100202E000020014B186848
:1018F8007047C046A011002070B50400FFF7F6FF3E
:101908000500631C02D0044B1B78E418FFF7EEFFB8
:10191800401BA042FAD370BD2E000020034A0449A0
:1019280013680B40034313607047C0460000014032
:10193800FFF9FFFF7047C04613008422F0B5C64682
:101948008258040000B5202A36D1002930D0002B57
:101958002ED0802280685201904242D08027E25DDA
:10196800012A29D00122E25553322165A3520232BD
:10197800A3528C2600228420A25190462132225064
:10198800A06F00281AD01A4D2268C562194D283256
:101998000563194D456345468563FFF7A7FD002894
:1019A8000CD01023A351434684222033E555A3507D
:1019B800012080BCB846F0BD0220FAE74022236827
:1019C80080211A6200236354EFF31080013383F3FC
:1019D8001088226893680B43936080F31088002076
:1019E800E7E72269002AB9D1CA07B7D5E0E7C046B8
:1019F800091A00085D1A00086D1A00087047C046E9
:101A08002022030011001B6810B51B68806A19406A
:101A18001A4219D15623C152EFF3108C1F3A82F3A0
:101A28001088802401688B68A3438B608CF310882E
:101A3800EFF3108182F31088026840201368034393
:101A4800136081F3108810BDFFF7D8FFFBE7C0468D
:101A58007047C04610B5806AFFF7FAFF10BDC04650
:101A68007047C046F8B584218823806A4558C45811
:101A780003689A68120601D5212D0CD09B685B0675
:101A880001D5222C25D08C22102183580B4383505A
:101A9800FFF7E6FFF8BD56230022C252EFF3108687
:101AA800013282F31088C02705682B68BB432B607E
:101AB80086F31088EFF3108582F3108802681C4EB5
:101AC80093683340936085F310882023435003685C
:101AD800D4E75E230022C252EFF31084013282F36E
:101AE80010880168134D0B682B400B6084F3108835
:101AF800EFF3108182F3108802680F4C936823403B
:101B0800936081F31088C36E012B0AD1EFF3108123
:101B180083F31088102402681368A343136081F3C9
:101B2800108888232022C2500023C3660367AAE7CF
:101B3800FFFF7FFFDFFEFFFFFEFFFFEF00235E22B8
:101B480010B5806A8352083A8352FFF789FF10BDA7
:101B58007047C046F8B5CE4647460268B34DD369CC
:101B6800040080B5106891682B4230D120251D42B1
:101B780006D08026760505400E40354300D004E1A6
:101B8800E56E012D00D1CBE080256D032B4200D0FE
:101B9800BEE080221A4206D080252D04024029404A
:101BA8000A4300D0F8E040221A4202D0024200D094
:101BB8001BE11A0202D5420000D52AE1DB0102D559
:101BC800002800DA29E1C0BCB946B046F8BD0E00CD
:101BD800974D2E40294200D0D0E0964D2842CFD0D4
:101BE800DD0700D4E3E0C50500D4D9E00125AC4603
:101BF80015628B35A846674665593D434746E5510A
:101C080002251D4200D1CDE0CF0700D4CFE08C27BC
:101C180004261562E5593543E5511E4200D1E1E03D
:101C280004258C2602271562A5593D43A5511D0799
:101C380000D5C4E080252D012B4207D0460105D5EB
:101C48008C2620271562A5593D43A5518C25655939
:101C5800002DB8D020251D4206D080235B05054005
:101C68000B401D4300D0B1E08C264025A159936854
:101C78001D4028230B401D4300D1D2E0EFF3108014
:101C8800012282F3108821686B4D0B682B400B6092
:101C980080F31088EFF3108182F310882268674878
:101CA80093680340936081F31088E36E012B0AD197
:101CB800EFF3108183F310881020226813688343A0
:101CC800136081F3108888232022E2500023E36602
:101CD8002367236820329B681A4200D17EE0EFF325
:101CE8001080012383F3108821688B6893438B60ED
:101CF80080F31088E06F002870D0514B8363FFF7A2
:101D080099FC002800D15EE7E06F836B98475AE79B
:101D18004E0200D43DE72000156200F00FFC52E7A8
:101D280010261E4200D12FE7064200D12CE740239F
:101D38001800166292681040134200D182E0E26FE8
:101D48001068426892B2002A00D13CE75C218946BB
:101D5800615A914200D836E75E27E25320221700E5
:101D680000680740BC46024200D1A6E05E23E35A61
:101D78002000C91A89B2FFF7EBFE24E7DD0700D47B
:101D88003EE7C50500D43BE730E7236F002B00D1C1
:101D980019E72000984716E7636F002BF9D112E77F
:101DA8009D0704D45D0702D5CD0700D538E71D0788
:101DB80000D43FE720250540354300D13AE70827FE
:101DC8008C261762A5593D43A55133E7236F002B95
:101DD80000D149E720009847226845E72000FFF72F
:101DE8003FFEF0E61D07EAD424E7EFF31080012355
:101DF80083F3108821680B6893430B6080F3108885
:101E08008423203AE250002320006367FFF7F6FDA1
:101E1800D9E6200000F096FBD5E6200000F090FB04
:101E2800D1E62000FFF71CFEA551CCE60F08000004
:101E38000100001020010004DFFEFFFFFEFFFFEF9E
:101E4800451B00085E22A35AA25A9BB2002A00D161
:101E5800B9E65C22A15AC91A89B2002900D1B2E6B2
:101E6800EFF3108985F3108822681368984647466F
:101E78002B4B1F40176089F31088EFF3108985F307
:101E880010882268936898464746264B1F409760FB
:101E980089F3108888232022E250E0662067EFF358
:101EA800108085F3108822681368B343136080F3A9
:101EB80010882000FFF74CFE85E6EFF3108885F3C5
:101EC80010882068184F01683940016088F310882D
:101ED800EFF3108885F3108820688168A943816032
:101EE80088F31088EFF3108885F3108820688168DC
:101EF8009943816088F310884833E2506346E3666B
:101F0800EFF3108185F3108822681368B3431360D8
:101F180081F31088E06FFFF751FB4B46E15A25E744
:101F2800DFFEFFFFFEFFFFEFFFFEFFFF70B50400BF
:101F38002569A26823682A4365691968C0692A4324
:101F48004C4D024329400A431A605A684A49256A97
:101F58000A40E1680A435A60A26999682A43474DD2
:101F680029400F250A439A60DA6A616AAA430A433C
:101F7800DA62434A934237D0424A934207D0424AF0
:101F880093423BD0414A934238D0012026E0404B4F
:101F98005A6D0C231340082B41D038D8002B2DD074
:101FA80080231B0298425FD0FEF728FF002814D038
:101FB800616A384B4900C95AFEF784F865686B08AE
:101FC800C0182900FEF77EF80004000C0200324B0E
:101FD800103A9A42D9D82368D86000202F4BA366BC
:101FE80000232367636770BD294B5A6D0323134091
:101FF800022B14D0032B0CD0012BD1D080231B0231
:10200800984212D0FFF710F80028E6D0D0E70C2B42
:10201800BBD180231B0298420CD01800C9E780234B
:102028001B02984223D01E48C3E7FEF7FDFF002895
:10203800D3D0616A174B4900C95AFEF743F865685F
:1020480040006B082900C018FEF73CF803041A0C7E
:102058001149103A8A4298D8124A1B0310405B0F64
:1020680022681843D060B8E7FEF7C8FEDFE70C48DF
:10207800E0E7C046F369FFCFFFCFFFFFFFF4FF1192
:10208800003801400044004000480040004C004037
:102098000010024034380008EFFF00000100010082
:1020A8000024F400F0FF0000836A30B5DA0706D593
:1020B8000168284C4A682240C46A22434A609A0749
:1020C80006D50168244C4A682240046B22434A60C2
:1020D8005A0706D50168214C4A682240446B2243BE
:1020E8004A601A0706D501681D4C4A682240846B6D
:1020F80022434A60DA0606D501681A4C8A682240EB
:10210800C46B22438A609A0606D50168164C8A6811
:102118002240046C22438A605A060AD50168134D8E
:102128004A68446C2A4022434A60802252039442FF
:1021380009D01B0606D502680D4953680B40C16CCF
:102148000B43536030BD4A680A4C2240846C2243DA
:102158004A60EEE7FFFFFDFFFFFFFEFFFFFFFBFF0B
:10216800FF7FFFFFFFEFFFFFFFDFFFFFFFFFEFFF37
:10217800FFFFF7FFFFFF9FFFF8B51F00069B150045
:1021880006000C000268013337D0069B002B3DD0B7
:10219800D2692240121B53425A41954234D1FFF76B
:1021A800A5FB069BC01B834239D3326813685B07C3
:1021B800EED58023D1691B011942E9D01362EFF3F0
:1021C8001080012282F310883168254C0B68234067
:1021D8000B6080F31088EFF3108082F31088316869
:1021E8008B6893438B6080F3108820238332B3502D
:1021F8000432B3500432B3502CE0D36923401B1B84
:1022080059424B419D42F8D00020F8BDD3690B409C
:102218005B1A5A425341AB42F6D1FFF767FBEFF323
:102228001080012282F3108831680D4C0B6823401E
:102238000B6080F31088EFF3108082F31088316808
:102248008B6893438B6080F3108820238332B350CC
:102258000432B350802300220320F254D5E7C0464D
:102268005FFEFFFFF0B557464E464546DE469846A8
:102278008423E0B5C35806000F00140083B0202B58
:1022880000D0ACE0002970D0002A6ED0802382688C
:102298005B019A4264D08023F25C012A00D19EE05F
:1022A8000122F25400220C33F250083B2132F25042
:1022B800FFF71CFB5423F45202330021F45280230D
:1022C800B268824689465B019A4200D189E00023C0
:1022D8008022B3545633F35A002B00D188E043468A
:1022E8003468013349D04346002B00D18EE0802565
:1022F8002A00E3691A4093461D4245D1FFF7F6FAD2
:102308005346C01A804500D285E0346823685B07CD
:10231800EED58023E2691B011A42E9D02362EFF36C
:102328001080012282F3108831684B4C0B682340DF
:102338000B6080F31088EFF3108082F31088316807
:102348008B6893438B6080F3108820238332B350CB
:102358000432B3500432B3505B467355032005E092
:102368000369002B97D1CB0795D5012003B0F0BCAA
:10237800BB46B246A946A046F0BDE3691A4203D15E
:102388008025E2691542FCD05622002F10D03B78F8
:102398000137A362B35A013B9BB2B352B35A002B25
:1023A80026D0434601339ED1E3691B06E8D5EEE704
:1023B8004B461B88DB05DB0DA36202239C46B35A00
:1023C800E144013B9BB2B352B35A002B10D04346B1
:1023D800013300D087E7E3691B06D1D5E8E702207F
:1023E800C4E73369002B00D071E7B94600276EE7D0
:1023F800434600220093402153463000FFF7BCFEBD
:102408000028ABD184232022F250AFE7E3691B06F2
:10241800BAD4FFF76BFAEFF31080012282F3108829
:1024280031680D4C0B6823400B6080F31088EFF384
:10243800108082F3108831688B6893438B6080F337
:10244800108820238332B3500432B3500022603303
:102458000320F2548AE7C0465FFEFFFFF0B5040090
:1024680083B0002852D08423C358002B50D0842333
:1024780024220121E2502268200013688B43136054
:10248800FFF754FD0500012840D0A36A002B39D17D
:10249800236828495A6808260A4022215A609A68FF
:1024A8008A439A609A68213932439A601A680A43C3
:1024B8001A6000228C23E250FFF718FA22680700FE
:1024C80011680E420ED11268520726D420238422A6
:1024D800A3500432A3500023083AE366A35428000B
:1024E80003B0F0BD8021144B002200938903030040
:1024F8002000FFF741FE00281AD12268126852070F
:10250800E4D50AE02000FFF7CFFDC1E70125E6E7A3
:1025180080228354FEF7B2F9A9E78021064B0022F6
:10252800009320003B00C903FFF726FE0028CDD00A
:102538000325D4E7FFB7FFFFFFFFFF017047C04641
:102548007047C0467047C0460D488546FFF7F2F908
:102558000C480D490D4A002302E0D458C4500433F6
:10256800C4188C42F9D30A4A0A4C002301E01360CC
:102578000432A242FBD300F0AFFAFDF74DFEFEE7AE
:1025880000900020000000209400002088380008F7
:1025980098000020F4120020FEE70000002310B588
:1025A800040003604360836081814366C2810361E4
:1025B80043618361190008225C3000F021FA0B4B5B
:1025C800246263620A4BA3620A4BE3620A4B2363E9
:1025D8000A4B9C4205D00A4B9C4202D0094B9C42B4
:1025E80003D12000583000F09BFA10BD31280008B4
:1025F8005928000891280008BD280008A4110020C7
:102608000C1200207412002010B5034A0349044834
:1026180000F06CF810BDC04638000020E93300080F
:102628004800002041680B4B10B50400994201D0C6
:1026380000F0D6FEA168084B994202D0200000F0B5
:10264800CFFEE168054B994202D0200000F0C8FE99
:1026580010BDC046A41100200C12002074120020E6
:1026680010B5094B094A04211A6009480022FFF7EE
:1026780095FF012209210748FFF790FF0222122146
:102688000548FFF78BFF10BDDC120020112600085B
:10269800A41100200C1200207412002010B502486A
:1026A80000F03FFA10BDC046E512002010B5024800
:1026B80000F038FA10BDC046E512002010B504003D
:1026C800FFF7ECFF236A002B02D0FFF7EFFF10BDE6
:1026D800044B2362044B1B68002BF6D1FFF7C0FFA5
:1026E800F3E7C0462D260008DC120020F7B51400D9
:1026F800002600900191A5686768013F04D5246809
:10270800002CF8D13000FEBDAB89012B08D90E2270
:10271800AB5E013304D029000098019B984706431B
:102728006835EAE7036A70B505000E008468002B77
:1027380001D1FFF7C3FF636EDB0705D4A3899B05AF
:1027480002D4A06D00F0EDF9A3891B0702D5236917
:10275800002B1FD12100280000F0F4F8002819D020
:1027680001256D42636EDB0705D4A3899B0502D45E
:10277800A06D00F0D7F9280070BD0136A360002BCA
:1027880004DAA2699A4216DC0A2914D023685A1C72
:1027980022601970A3683178013B0029EDD1A3604C
:1027A800002B0FDA220028000A3100F089F80130E6
:1027B800D6D00A25D6E72200280000F081F801309B
:1027C800E8D1CDE723685A1C22600A221A70F0E784
:1027D80010B5034B01001868FFF7A4FF10BDC046F1
:1027E800440000200EB410B500240C499DB01FAB66
:1027F800029006900791049109480A4904CB059173
:10280800006802A901931B9400F0EAFA029B1C706D
:102818001DB010BC08BC03B01847C046FFFFFF7FBF
:10282800440000200802FFFF70B50C000E25495F28
:1028380000F02AF9002803DB636D1B18636570BD7F
:10284800A389024A1340A381F9E7C046FFEFFFFFBF
:10285800F8B51F008B8905000C001600DB0505D5AF
:102868000E23C95E0022022300F0FAF8A389054A64
:1028780028001340A38132000E23E15E3B0000F0E4
:1028880017F9F8BDFFEFFFFF70B50C000E25495F83
:1028980000F0E6F8A389421C03D1054A1340A3813E
:1028A80070BD802252011343A3816065F8E7C046DA
:1028B800FFEFFFFF10B50E23C95E00F0BFF810BD93
:1028C800F8B506000D001400002804D0036A002B98
:1028D80001D1FFF7F3FEA369A360A3891B0702D503
:1028E8002369002B09D12100300000F02BF80028C3
:1028F80003D001256D422800F8BD23692068EFB296
:10290800C01A6369EDB2834205DC2100300000F093
:1029180067FD0028EDD1A3680130013BA36023685F
:102928005A1C22601F706369834204D0A389DB07A5
:10293800E1D50A2DDFD12100300000F051FD00283B
:10294800D9D0D6E72D4B70B5050018680C000028C3
:1029580004D0036A002B01D1FFF7B0FE0C22A35E5E
:102968001A0723D4DA0607D409222A604022012054
:102978001343A38140423AE05B0713D5616B0029FA
:1029880008D023004433994202D0280000F0CCF844
:10299800002363632422A3899343A38100236360F4
:1029A800236923600823A2891343A3812369002B89
:1029B8000BD1A0218022A389890092000B40934269
:1029C80003D02100280000F061FD0C22A35E012144
:1029D8001A000A400B420BD00022A26062695242E0
:1029E800A26100202269824201D11A06BED470BDBC
:1029F800990700D46269A260F3E7C046440000204A
:102A080003008218934200D1704719700133F9E727
:102A1800020010B5137814000132002BFAD1CA5CF9
:102A2800E2540133002AFAD110BD03000A781800D5
:102A38001A7001310133002AF8D17047002370B5AC
:102A4800064D040008002B6000F0F6FD431C03D17E
:102A58002B68002B00D0236070BDC046E012002018
:102A680070B50400080011001A000023054D2B6002
:102A780000F0FAFD431C03D12B68002B00D0236023
:102A880070BDC046E012002070B5040008001100B7
:102A98001A000023054D2B6000F0EEFD431C03D106
:102AA8002B68002B00D0236070BDC046E0120020C8
:102AB80070B50400080011001A000023054D2B60B2
:102AC800FDF78AFE431C03D12B68002B00D023603E
:102AD80070BDC046E012002070B500260C4C0D4DAC
:102AE800641BA410A64209D1002600F0F5FD0A4C8B
:102AF8000A4D641BA410A64205D170BDB300EB5863
:102B080098470136EEE7B300EB5898470136F2E7ED
:102B180080380008803800088438000880380008A9
:102B2800704770477047000070B505000C1E10D044
:102B3800043C2368002B00DAE418280000F0E0F8D1
:102B48001D4A1368002B05D163601460280000F04B
:102B5800DFF870BDA34208D9206821188B42F3D151
:102B680019685B6809182160EEE71A005B68002B9A
:102B780001D0A342F9D911685018A0420BD120689E
:102B88000918501811608342E0D118685B68411831
:102B980011605360DAE7A04202D90C232B60D5E715
:102BA800206821188B4203D119685B6809182160D5
:102BB80063605460CAE7C046EC12002070B50F4E3F
:102BC8000D0031680400002902D100F0D7FC306004
:102BD8002900200000F0D2FC431C03D101256D42DE
:102BE800280070BD0323C51C9D43A842F8D0291AAC
:102BF800200000F0C3FC0130F2D1EFE7E81200201A
:102C0800F7B50322CB1C9343083305001F000C2B98
:102C180034D20C27B94233D8280000F071F8374E67
:102C280033681C00002C2FD139002800FFF7C6FF9D
:102C38000400431C5FD134680094009B002B4AD1E8
:102C4800002C52D023682800E3180099019300F063
:102C580095FC019B834248D123682800FF1A39005C
:102C6800FFF7ACFF013040D02368DB1923603368DD
:102C78005A68002A33D1009B336019E0002BC9DA67
:102C88000C232B600020FEBD2168C91B20D40B2912
:102C98000AD9E2192760A34204D13260636811603F
:102CA800536005E05A60F9E76268A3420ED13260CA
:102CB800280000F02DF8200007220B30231D904338
:102CC800C21A9842DFD01B1AA350DCE75A60EFE71C
:102CD80023006468A6E7009C63680093ADE71A00C8
:102CE8005B68A342FBD10023DAE70C2328002B60A2
:102CF80000F00EF8C6E70760DAE7C046EC120020DD
:102D080010B50248FFF70DFF10BDC046E4120020C1
:102D180010B50248FFF706FF10BDC046E4120020B8
:102D2800F0B58E6885B01F000C000B680290039206
:102D3800BE4230D80C21625E9021C9000A4228D0D8
:102D4800032021695B1A0193636943430198DD0FEE
:102D5800ED187B1C1B186D10AB4200D91D005205E5
:102D680028D529000298FFF74BFF061E2CD0019AA0
:102D7800216900F020FCA289184B1A4080231343D4
:102D8800A381019B2661F61826603E006561ED1A55
:102D9800A560BE4200D93E0032000399206800F0C9
:102DA800B6FB0020A3689B1BA36023689B192360C4
:102DB80005B0F0BD2A00029800F006FC061EE0D11E
:102DC80021690298FFF7B0FE0C230120029A4042C5
:102DD8001360A28934331343A381E9E77FFBFFFF24
:102DE800F0B5A1B003901D008B890F0016001B06DB
:102DF80011D50B69002B0ED14021FFF701FF386078
:102E08003861002805D10C23039A13600120404241
:102E1800CFE040237B61002308AC636120336376F5
:102E28001033A376079535002B78002B01D0252B7E
:102E380048D1AB1B0593B5420BD03200390003983B
:102E4800FFF76EFF013000D1AEE06369059A9B1869
:102E580063612B78002B00D1A6E0012200235242A7
:102E6800626004A9543252186E1C2360E360A360A8
:102E78001370A365544B052218003178059300F0B0
:102E88008FFB751C00281FD12268D30604D5532355
:102E980004A95B1820211970130704D5532304A92A
:102EA8005B182B21197033782A2B16D03500002196
:102EB8000A20E3682A786E1C303A092A50D900297A
:102EC80011D117E00135AFE7059B2268C01A01232D
:102ED800834013432E002360CCE7079B191D1B6812
:102EE8000791002B01DB0B9304E05B42E3600223B4
:102EF800134323602B782E2B0CD16B782A2B34D1DB
:102F0800079B02351A1D1B680792002B01DA012363
:102F18005B4209932D4E03223000297800F040FBD4
:102F2800002806D04023801B8340226801351343C4
:102F380023602978062226486E1C217600F030FB93
:102F4800002838D0234B002B22D10722079B0733B8
:102F58009343083307936369049A9B18636162E794
:102F68004343350001219B18A4E700230A201900D8
:102F7800013563602A786E1C303A092A03D9002B80
:102F8800C8D00991C6E74143350001238918F1E704
:102F980007AA009221003A000F4B039800E000BFF7
:102FA8000490049B0133D6D1BB890D985B0600D5EC
:102FB8002CE721B0F0BD07AA009221003A00064B89
:102FC800039800F07BF8EBE74C380008523800080B
:102FD8005638000800000000292D0008F7B5160033
:102FE80001938A680B690C000090934200DA130081
:102FF8002200336043321278002A01D00133336053
:1030080023689B0602D5336802333360226806239F
:1030180015001D401A4227D0230043331B785A1E3F
:1030280093412268920630D4220001990098089DA5
:103038004332A847013025D00622236800251340D3
:10304800042B05D13368E568ED1AEB43DB171D4007
:10305800A3682269934201DD9B1AED180026B54248
:1030680020D1002010E00135E36832689B1AAB429A
:10307800D2DD2200012301990098089F1932B84730
:103088000130F0D101204042FEBD3020E11843312B
:10309800087021005A1C45310978A21843320233BE
:1030A8001170C1E72200012301990098089F1A3284
:1030B800B8470130E6D00136D1E70000F0B58BB053
:1030C80006920A0043320793059003920A7E0C0089
:1030D800109B782A09D8622A0BD8002A00D1BAE0B6
:1030E8007A490491582A00D18EE0250042352A7089
:1030F80022E0100063381528F7D8FCF7D9FF16002E
:103108001F00F6FFF6FFF6FFF6FF1F00F6FFF6FFBB
:10311800F6FFF6FF9F0036007E00F6FFF6FFB000D0
:10312800F6FF3600F6FFF6FF820025001A684235E2
:10313800111D196013682B7001239EE01868096837
:10314800021D0D060BD506681A60002E03DA2D2322
:10315800039A764213705D4B0A27049318E00668B9
:103168001A604906F1D536B2EFE70868196840C910
:10317800050602D4400600D5B6B21960534B0A279B
:1031880004936F2A00D1023F2300002243331A70B0
:103198006368A360002B06DB04212268039D8A4331
:1031A800226033430CD0039D30003900FCF7C6FF82
:1031B800049B013D5B5C2B70330006009F42F3D9F2
:1031C800082F09D12368DB0706D5626823699A426C
:1031D80002DC3023013D2B70039B5B1B2361079BA3
:1031E800210000930598069B09AAFFF7F7FE013016
:1031F80048D1012040420BB0F0BD202209680A43A3
:103208002260782232490491210045310A701968F8
:10321800226840C9100602D4500600D5B6B219601B
:10322800D30702D5202313432360002E01D0102793
:10323800AAE72022236893432360F8E71A680D68F9
:10324800101D4969186013682E0601D5196002E03F
:103258006D06FBD519800023039D2361BFE71A681B
:10326800111D1960156800212800626800F098F99E
:10327800002801D0401B6060636823610023039A23
:103288001370ACE72A00236906990598079DA8479B
:103298000130AED023689B0715D4099BE06898429B
:1032A800A9DA1800A7E72200012306990598079EC6
:1032B8001932B04701309CD00135E368099A9B1A4E
:1032C800AB42F0DCE9E70025F7E7C0465D380008C7
:1032D8006E380008F7B50C228B5E05000C001A0743
:1032E80056D44A68002A02DC0A6C002A4EDDE76AD6
:1032F800002F4BD0002280202E682A601A0040013F
:10330800216A0240034233D0626DA3895B0706D568
:103318006368D21A636B002B01D0236CD21A002386
:103328002800E76A216AB847A289431C06D12968A0
:103338001D2946D8294BCB40DB0742D500236360C3
:1033480023692360D20405D5431C02D12B68002BC6
:1033580000D16065616B2E60002917D023004433CB
:10336800994202D02800FFF7DFFB002363630DE0DA
:1033780001232800B8470200431CC6D12B68002B44
:10338800C3D01D2B01D0162B1AD12E6000201EE0B1
:103398000E69002EFAD00F680E60BA1B0192002247
:1033A8009B0700D14A69A260019B002BEEDDA36A4E
:1033B80032001F002800019B216AB847002807DC5B
:1033C800A2894023012013431BB2A3814042FEBDC2
:1033D800019B36181B1A0193E6E7C04601004020FE
:1033E8000B6970B505000C00002B02D100252800E0
:1033F80070BD002804D0036A002B01D1FFF75EF9E5
:103408000C22A35E002BF1D0626ED20704D49B0578
:1034180002D4A06DFFF785FB28002100FFF75AFFB3
:10342800636E0500DB07E2D4A3899B05DFD4A06D9A
:10343800FFF778FBDBE7000070B50E001D000E23D8
:10344800C95E140096B000290CDAB28980231100F5
:1034580019401A4214D18023DB0000202960236020
:1034680016B070BD6A4600F065F80028EDDBF02361
:1034780001991B021940044BC9184B425941EAE70C
:1034880000214023E9E7C04600E0FFFFF0B502262F
:103498008B8905000C0085B0334207D023004733E1
:1034A800236023610123636105B0F0BD03AB02AA69
:1034B800FFF7C2FF029F019039002800FFF7A0FB29
:1034C800002808D10C22A35E9A05EDD40322934369
:1034D8001E43A681E2E78023A28920601343A381CB
:1034E800039B20616761002B0CD028000E23E15E4E
:1034F80000F032F8002805D00323A2899A43023B42
:103508001343A381A389019A1343A381CCE710B580
:10351800884202D98B18984208D300239A4207D0D0
:10352800CC5CC4540133F9E78B5C8354013AFBD279
:1035380010BD0000002370B5064D040008001100FE
:103548002B6000F081F8431C03D12B68002B00D0BE
:10355800236070BDE0120020002370B5064D040002
:1035680008002B6000F078F8431C03D12B68002B6F
:1035780000D0236070BDC046E0120020002370B563
:10358800064D040008002B6000F07EF8431C03D1B0
:103598002B68002B00D0236070BDC046E0120020CD
:1035A800C9B28218904201D10020704703788B423B
:1035B800FBD00130F6E7002310B59A4200D110BDC8
:1035C800CC5CC4540133F8E7F7B506000C001500CD
:1035D800002905D11100FFF713FB04002000FEBDF0
:1035E800002A03D1FFF7A0FA2C00F7E700F01CF837
:1035F8000700854202D84308AB42EFD329003000C8
:10360800FFF7FEFA0190002801D1019CE6E72A00A5
:10361800BD4200D93A0021000198FFF7CCFF2100F4
:103628003000FFF781FAF0E70B1F1B68181F002B0B
:1036380001DA0B58C018704758220120014B40424C
:103648001A607047E012002058220120014B4042C6
:103658001A607047E01200205822024B00201A60BE
:103668007047C046E012002058220120014B40421A
:103678001A607047E012002058220120014B404296
:103688001A607047E0120020044A030010680028FE
:1036980002D0C318136070470148FAE7F0120020FF
:1036A800F8120020084A43081340C01A0200074BCA
:1036B800800818401A40121813099B18044A054834
:1036C80013405843000E704755555555333333331F
:1036D8000F0F0F0F01010101F8B5C046F8BC08BC77
:1036E8009E467047F8B5C046F8BC08BC9E46704771
:1036F8000A3D3D3D3D3D3D3D3D3D3D3D3D3D3D3D25
:103708000A426F6F74696E67000000004572726F3D
:10371800722E20496E76616C696420636F6D6D61ED
:103728006E642072656365697665643A2030782531
:1037380030366C780A44726F7070696E6720636FF8
:103748006D6D616E642E0A004572726F722E20498B
:103758006E76616C696420636F6D6D616E64206C58
:10376800656E6774683A2025750A44726F707069CF
:103778006E6720636F6D6D616E642E0A0000000035
:1037880052656C61792073746174653A20307825CC
:103798006C780A004572726F722E20496E76616CE1
:1037A80069642072656C61792073746174653A206C
:1037B8003078256C780A44726F7070696E67206380
:1037C8006F6D6D616E642E0A00000000000000003D
:1037D80000000000000000000000000001000000E0
:1037E80002000000030000000400000000000000C8
:1037F80000000000000000000000000000000000C1
:1038080000000000000000000000000001000000AF
:103818000200000003000000040000000600000091
:103828000700000008000000090000000100020075
:103838000400060008000A000C00100020004000E8
:1038480080000001232D302B2000686C4C00656639
:1038580067454647003031323334353637383941D9
:1038680042434445460030313233343536373839EF
:083878006162636465660000F3
:0438800085010008B6
:043884005D010008DA
:1038880010121416090D0F0103060B00111315175A
:10389800080E000204050C000B0C0D0E0F1011127F
:1038A80013140102030405060708090A1516010086
:1038B800040000000024F4000000000003000000E1
:1038C800A41100204800002000000000A4110020DE
:1038D8000C120020741200200000000000000000FC
:1038E80000000000000000000000000000000000D0
:1038F80000000000000000000000000000000000C0
:1039080000000000000000000000000000000000AF
:0439180000000000AB
:040000050800255179
:00000001FF
