:020000040800F2
:10000000009000202523000831080008330800086C
:1000100000000000000000000000000000000000E0
:10002000000000000000000000000000350800088B
:100030000000000000000000370800083908000830
:1000400075230008000000007523000875230008D0
:10005000752300087523000875230008410800086F
:1000600000000000550800087523000875230008EB
:1000700075230008752300087523000800000000A0
:1000800075230008752300087523000875230008F0
:1000900075230008752300087523000875230008E0
:1000A00075230008752300087523000875230008D0
:0800B000752300086508000833
:1000B8000023C25C0133002AFBD1581E70470000A0
:1000C80003B47146490840004900095E49008E445E
:1000D80003BC7047002934D00123002210B48842A1
:1000E8002CD301242407A14204D2814202D209015F
:1000F8001B01F8E7E400A14204D2814202D2490080
:100108005B00F8E7884201D3401A1A434C08A04222
:1001180002D3001B5C0822438C08A04202D3001BB8
:100128009C082243CC08A04202D3001BDC082243CF
:10013800002803D01B0901D00909E3E7100010BC0F
:10014800704701B5002000F00BF802BD0029F8D077
:1001580003B5FFF7C1FF0EBC4243891A1847C046D2
:100168007047C04610B5064C2378002B07D1054BC5
:10017800002B02D0044800E000BF0123237010BD0B
:10018800280100200000000050350008044B10B57D
:10019800002B03D00349044800E000BF10BDC0464F
:1001A800000000002C01002050350008F0B5D646AC
:1001B8004F464646C0B588B01422002103A802F075
:1001C80004F93C4B5A6B022188460A435A635A6B1E
:1001D8000A400092009A596B042211435963596BE3
:1001E8000A400192019A5A6B01252A435A635B6BB4
:1001F8002B400293029BA023DB05994600222E493F
:10020800180000F0F8FF2D4B9A462D4F00221900D8
:10021800380000F0F0FF2B4E00224021300000F0A3
:10022800EAFF80239B00039300240494059403A908
:10023800380000F01FFFC0231B02039388235B03D1
:100248000493059403A9300000F014FF4346039378
:10025800049505940133069303A9484600F00AFF64
:10026800194B039304950594069403A9484600F096
:1002780001FF5346039304950594069403A9380097
:1002880000F0F8FE4023039304950594069403A90F
:10029800300000F0EFFE00220121072001F0DCF918
:1002A800072001F009FA08B0E0BCBA46B146A846F2
:1002B800F0BDC04600100240FE9F0000FF01000094
:1002C8000004005000080050FC9F000000B583B0F7
:1002D800094A916B012319439163926B134001936F
:1002E800019B00220021092001F0B6F9092001F044
:1002F800E3F903B000BDC0460010024010B5094B39
:100308001B68DB695B06FAD50749084C200002F038
:100318000EF92000FFF7CCFE82B20248210001F05E
:10032800B5FA10BDA8010020180A002048020020D4
:10033800F0B5C64600B58023DB01984206D080237D
:100348001B02984216D080BCB846F0BDCB4C226840
:10035800636892185B412260636080218900C84805
:1003680000F042FF236803432360C64A1378013331
:100378001370E8E7A0200221C00500F042FFC24B3D
:1003880000221A70BF4B1A78302A17D1BB4A13685B
:100398005268134300D0AFE0BC4B03221A70B74B2E
:1003A8000020002118605960B64B00221A70B64B25
:1003B8001B78002BC7D0FFF7A1FFC4E7B449B54CA1
:1003C800200002F087F8B048210002F0A3F8DDE72A
:1003D8002021091B5A688A401B68E34013435BE0ED
:1003E800AD4FBB5D013BAD4A9B00995AAC4A98584A
:1003F800002200F000FFAB4B98461B78013B4246B9
:100408001370BA5D531E01219940A74803688B43B6
:100418000360A6499F4F380002F05CF89A483900FB
:1004280002F078F843461B785BB2002B36DA99491C
:100438009F4B8C460A0083CB83C283CB83C281CB7C
:1004480081C2188810809B7893708F48614602F0AB
:1004580061F8944B00221A7020E02020801A596815
:1004680081401B68D3400B431EE08B4B9A5D91493A
:10047800884C200002F02EF88348210002F04AF848
:100488000135EDB2132D39D82E006C007B4B2200BC
:10049800203A9DD45B68D340DB07A1D4621C774B1C
:1004A8001F3CDAD45B68E340DB07E9D57D4B1B785A
:1004B8005BB2052BD9DC784CA35D013B774A9B00E6
:1004C800995A774A9858012200F095FE754A137890
:1004D80001331370A25D531E0121994072480368CD
:1004E8000B43036074496B4C200001F0F3FF66482E
:1004F800210002F00FF8C3E70025C3E76A4B1A682A
:100508006E4B1A4252D1614B00221A705B4B5B68EA
:10051800DA0504D55D4A01211170694A11709B05FD
:1005280004D55A4B02221A70654B1A70574B1B7828
:10053800002B03D1634B1B78002B3CD1534B1B780A
:10054800012B56D0514B1B78022B00D024E75D4B72
:100558001B78022B00D11FE7524A127852B2052AA3
:1005680004DD062A00DD7EE0002B7CD0002240213D
:10057800554800F040FE8021A02001228900C005D6
:1005880000F039FE4F4B1B78002B03D1454A1378F6
:10059800013313704B4B02221A703E494B4B0A0031
:1005A80031CB31C2384801F0B5FFF5E6374B444A44
:1005B80012781A70AAE78021A02000228900C005BD
:1005C80000F019FE002240213F4800F014FE3D4B88
:1005D80000221A70334A1378013B13702D493C4BA3
:1005E8000A0011CB11C21B881380274801F092FF23
:1005F800A4E7344B1B78012BA4D02A4A127852B2B4
:10060800052A03DD062A23DC002B21D08021A02027
:1006180000228900C00500F0EEFD012240212A4891
:1006280000F0E9FD274B1B78002B03D11D4A1378F6
:1006380001331370234B01221A701649254B0A0007
:1006480011CB11C21B8813800F4801F063FF79E7B3
:10065800104C21494722200001F0AEFE0A48210033
:1006680001F058FF6EE70B4C1B494722200001F0B0
:10067800A3FE0548210001F04DFF8DE64002002051
:100688000004005039020020180A0020A0000020B1
:1006980068350008E8110020A40000205000002060
:1006A8000000002038020020480100209035000892
:1006B8009C350008CC350008C035000800FC0F0048
:1006C8004401002045010020000800507036000851
:1006D800103600081C3600082836000800B583B01C
:1006E80001900448044B012201A901F015FD01986D
:1006F80003B000BDA8010020FFFF000070B5160080
:10070800002405E04D1C0878FFF7E8FF01342900B4
:10071800B442F7DB300070BD72B6FEE710B50C4886
:100728000C4B0360E1235B02436000238360C360DA
:100738000361082242618361C36103624362836289
:1007480001F0AAFD002800D110BDFFF7E5FFC04663
:10075800A8010020004C004000B593B034220021CD
:1007680005A801F032FE1022002101A801F02DFE9B
:100778008020800000F046FF02230593802252006B
:1007880008920022099240210A910C930D930E922F
:1007980006330F9380239B02109380239B051193AC
:1007A80005A800F0D5F800280ED107230193053BD2
:1007B8000293002303930493022101A800F07AFB1B
:1007C800002803D113B000BDFFF7A6FFFFF7A4FF71
:1007D80010B500F0C5FFFFF7BFFFFFF7E7FCFFF715
:1007E80075FDFFF79BFFA02000220221C00500F045
:1007F80002FD0C4801F064FE002409E0642000F0CA
:10080800D5FFA0200221C00500F0FBFC0134E4B2B2
:10081800052CF3D9A02001220221C00500F0EBFC31
:10082800FEE7C0467C360008FEE7FEE770477047E3
:1008380010B500F0A9FF10BD10B58020C00100F070
:10084800E9FC8020000200F0E5FC10BD10B502486C
:1008580000F072FE10BDC0464C01002010B50248E1
:1008680001F0F6F810BDC046A801002000B583B01D
:100878000B4B196C012211431964196C0A40009240
:10088800009ADA6B802149050A43DA63DB6B0B4077
:100898000193019BC020C00000F09AFF03B000BD87
:1008A8000010024010B588B004001422002103A8EB
:1008B80001F08BFD2268224B9A4201D008B010BD8E
:1008C800204BDA6B802109030A43DA63DA6B0A40AA
:1008D8000192019A596B0122114359635B6B1340D2
:1008E8000293029B03921223049305920E3B0793F3
:1008F800A02003A9C00500F0BDFB1348134B0360FB
:1009080039234360293B83600023C360802202614E
:1009180043618361C361036200F0E8FC00280BD1E6
:10092800094BA3679C62002200211D2000F094FE61
:100938001D2000F0C1FEC1E7FFF7EEFEF0E7C0465C
:10094800004C0040001002404C010020080002400A
:1009580070B582B0041E00D12CE20368DB0739D5DC
:10096800C14A916838230B40D16803220A40102BF2
:1009780026D0082B26D063688022520293427FD06B
:10098800A022D202934200D181E0B74B1A68B7493E
:100998000A401A601A68B6490A401A606368002B50
:1009A80000D180E000F0FCFE0500AF4B1B689B0304
:1009B80010D400F0F5FE401B6428F6D90320FAE1B4
:1009C800032AD6D1A84B1B689B0303D56368002B69
:1009D80000D1F2E123689B0731D5A34A91683823F7
:1009E8000B40D16803220A40102B6AD0002B6BD130
:1009F8009D4A1268520503D5E268002A00D1DEE15B
:100A0800994842689B490A40616909020A43426061
:100A1800002B0DD1036898490B4021690B430360F3
:100A28000368DB0A07221A40944BD340944A1360A8
:100A3800944B186800F068FE002800D0C1E12368D4
:100A48001B0700D481E0884B9A6838231340182B81
:100A580073D0A369002B00D1B4E0834A136E01213F
:100A68000B43136600F09CFE05007F4B1B6E9B0733
:100A78006BD400F095FE401B0228F6D903209AE1BA
:100A8800794A116880235B020B43136086E7764B33
:100A980019688022D2020A431A6019688022520219
:100AA8000A431A607AE700F07BFE05006E4B1B686C
:100AB8009B038FD500F074FE401B6428F6D90320F1
:100AC80079E1022A92D193E7E368002B22D0664AA3
:100AD800136869490B4021690B431360116880232F
:100AE8005B000B43136000F05BFE05005E4B1B6868
:100AF8005B0506D400F054FE401B0228F6D90320FB
:100B080059E159494B685B4A134062691202134321
:100B18004B6094E7544A13685B490B40136000F03C
:100B28003FFE0500504B1B685B0588D500F038FE7A
:100B3800401B0228F6D903203DE14B4B1B6E9B0757
:100B480003D5A369002B00D13DE123685B0700D4DE
:100B5800A2E0454B9A6838231340202B45D0424BDE
:100B6800DB6BDB004AD4404BDA6B802149050A4332
:100B7800DA63DB6B0B400193019B0125434B1B6838
:100B8800DB053DD5A368012B4ED0052B52D0364B43
:100B9800DA6D01218A43DA65DA6D03318A43DA6551
:100BA800A368002B50D000F0FBFD06002E4BDB6D38
:100BB8009B076FD400F0F4FD801B354B9842F5D9A4
:100BC8000320F8E0284A136E01218B43136600F0D6
:100BD800E7FD0500244B1B6E9B07B6D500F0E0FD32
:100BE800401B0228F6D90320E5E01F4BDB6D9B076D
:100BF80052D5A368002B4FD10120DCE00025BDE7CA
:100C0800224A116880235B000B43136000F0C8FD83
:100C180006001E4B1B68DB05B4D400F0C1FD801B29
:100C28000228F6D90320C6E00F4AD36D01210B43F1
:100C3800D365B5E70C4BDA6D04210A43DA65DA6D42
:100C480003390A43DA65ABE700F0AAFD0600064B54
:100C5800DB6D9B071ED500F0A3FD801B0C4B984253
:100C6800F5D90320A7E0C04600100240FFFFFEFFB1
:100C7800FFFFFBFFFF80FFFFFFC7FFFF0024F4001B
:100C8800C0000020BC000020FFFEFFFF00700040F5
:100C980088130000012D26D0E369002B00D194E0D1
:100CA800514A916838220A40102A61D0022B20D07C
:100CB8004D4B1A684D490A401A60DA6803218A4385
:100CC800DA60DA684A490A40DA6000F069FD04002F
:100CD800454B1B689B0149D500F062FD001B0228AB
:100CE800F6D9032067E0404AD36B42490B40D363EF
:100CF800D2E73D4A13683D490B40136000F050FDB0
:100D08000500394B1B689B0106D500F049FD401BC7
:100D18000228F6D903204EE0334AD36836491940F1
:100D2800236A606A0343A06A00020343E06A03433C
:100D3800206B03430B43D360116880235B040B4390
:100D48001360D16880235B050B43D36000F028FD56
:100D58000400254B1B689B0106D400F021FD001BF5
:100D68000228F6D9032026E0002024E0002022E013
:100D7800012B2CD01C4BDA6803231340216A8B42C9
:100D880027D170231340616A8B4224D1FE21C90107
:100D98001140A36A1B0299421FD1F8239B031340F9
:100DA800E16A8B421BD1520F5207236B9A4218D12A
:100DB800002000E0012002B070BD0120FBE7012007
:100DC800F9E70120F7E70120F5E70020F3E7012024
:100DD800F1E70120EFE70120EDE70120EBE7012033
:100DE800E9E70120E7E7C04600100240FFFFFFFEE9
:100DF800FFFFFEEFFFFFFFEF8C80C11F10B52A4BEE
:100E08009B6838221A4207D1274B1A68D20A07234F
:100E180013402648D84010BD234B9A683823134006
:100E2800082B3BD0204B9A6838231340102B0DD049
:100E38001D4B9A6838231340202B31D01A4B9A68DF
:100E480038231340182B26D00020E4E7164AD1682F
:100E58000D3B0B40D2681209072111400131032BC9
:100E68000FD01248FFF736F90F4BDA68120A7F23C2
:100E7800134058430C4BD968490F0131FFF72AF941
:100E8800C9E70B48FFF726F9074BDA68120A7F23F0
:100E980013405843EEE7FA20C001BCE70448BAE71C
:100EA80080200002B7E7C046001002400024F4008A
:100EB80000127A0070B504000D00002800D1AAE0E5
:100EC800574B1A68072313408B4221D323689A078C
:100ED8000ED55B0705D5534A9168E023DB010B4328
:100EE8009360504A936850490B40A1680B43936044
:100EF8002368DB0754D56368012B20D0022B3BD035
:100F0800002B3FD1474A126852051CD401206AE0E1
:100F1800434A136807218B432B43136000F040FCBE
:100F280006003F4B1A6807231340AB42CED000F0AF
:100F380037FC801B3D4A9042F3D9032053E0394ADD
:100F48001268920369D537498A6807208243134398
:100F58008B6000F025FC0600324B9B6838221A4053
:100F68006368DB009A421BD000F01AFC801B2F4BF1
:100F78009842F1D9032036E02A4A12689201E2D455
:100F8800012030E0032B05D0264AD26D9207DAD42F
:100F9800012028E0234A126E9207D4D4012022E0CF
:100FA8001F4B1A6807231340AB421DD823685B0701
:100FB80006D51C4A93681E490B40E1680B439360B1
:100FC800FFF71CFF174B9A68120A0F231340194AA0
:100FD8009B009A581F231340D840174B1860174B93
:100FE800186800F091FB70BD0D4A136807218B4308
:100FF8002B43136000F0D4FB0600094B1A68072343
:101008001340AB42D2D000F0CBFB801B074B984279
:10101800F3D90320E7E70120E5E70120E3E7C0462D
:101028000020024000100240FFF0FFFF881300007C
:10103800FF8FFFFF98360008C0000020BC0000208A
:10104800014B18687047C046C000002010B5FFF774
:10105800F7FF064B9A68120B07231340044A9B00BC
:101068009A581F231340D84010BDC04600100240B4
:10107800D8360008F0B5002359E086685F000324DD
:10108800BC40A643CC68BC40344384604468944365
:101098004E683609012232409A402243426056E0A7
:1010A800DE080836B600375805321A4092000F2479
:1010B8009440A7430C69944022003A43325059E0C7
:1010C800032600E00026A64034003C43424E183276
:1010D800920094518022B758EA433E00AE434C68D0
:1010E800E40301D53E002E433B4C8027E65184267D
:1010F800A7593E0016404C68A40301D53E002E4374
:10110800354C8427E65127683E0016404C68E402B7
:1011180001D53E002E43304C2660666832404C684C
:10112800A40201D52A0032432B4C626001330C68BB
:101138002200DA404ED001229A4025001540144280
:10114800F4D04E6803243440013C012C95D94C68F6
:1011580003222240032A08D0C4685E000322B2405A
:1011680094438A68B2402243C2604C6803222240FA
:10117800022A95D004685E0003221700B740BC43DA
:101188004F683A40B240224302604C68C022920243
:101198001442CBD09A0814001834A4000E4EA75954
:1011A80003241C40E4000F26A640B743A026F605FA
:1011B800B04287D0094EB04208D0094EB04207D09D
:1011C800084EB04200D17BE705267CE701267AE786
:1011D800022678E7F0BDC04600180240000400501F
:1011E80000080050000C005003690B4201D0012098
:1011F80070470020FCE7002A01D0816170478162B6
:10120800FCE7426913000B401B0491430B438361C5
:101218007047704710B50400094BDB68184204D1C9
:10122800074B1B69234205D110BD054BD860FFF75A
:101238007FF8F5E7024B1C612000FFF7EAFFF3E7B0
:1012480000180240F0B5846CC56C6560046D002C14
:1012580002D0446D856D65600B4F7C68056C1C265B
:101268002E400125B5402C437C6004686360836888
:10127800102B04D0036899600368DA60F0BD036836
:101288009A600368D960F9E70000024010B50400CD
:10129800036C9B08094A944663449B0043640368B3
:1012A800FF20184008381421FEF714FF044BA364EC
:1012B8001F2318401E3B8340E36410BD00820010CA
:1012C8008008024042683F231340064A9A18920059
:1012D8000265054A4265013B03221A4001239340F7
:1012E800836570473F8200104009024070B5041EB4
:1012F8004DD00568274BE8181421FEF7EBFE800057
:10130800206425230222E2542B68234A13402B60D1
:1013180021680A68A368E068034320690343606999
:101328000343A0690343E0690343206A034313436B
:101338000B602000FFF7AAFFA2688023DB019A4216
:1013480018D06168626C3F230B401360A36CE26C99
:101358005A606368013B032B0FD90023236563653B
:10136800A3650023E36325220121A154013AA35474
:10137800002070BD00236360E3E72000FFF7A2FFB1
:10138800236D00221A60636DA26D5A60E9E701209F
:10139800EFE7C046F8FFFDBF0F80FFFF70B5040000
:1013A8002420205C012845D0242001252554013023
:1013B800205C012806D08023E3635C3B0022E254D2
:1013C800012070BD2430013525540020E0632568D4
:1013D80028680126B04328602000FFF733FF236BFD
:1013E800002B1CD0226813680E210B431360626C1B
:1013F8001368DB0304D5116880235B000B4313607B
:10140800236D002B04D01968802252000A431A6009
:101418002268136801210B4313600020D1E722687A
:10142800136804218B4313602268136806310B4349
:101438001360DCE70220C4E730B5002836D0252346
:10144800C35C022B06D00423C36320330022C2549A
:10145800012030BD026813680E218B431360426C73
:10146800136813490B40136001680A6801239A4303
:101478000A60104C6268056C1C2129408B4013439C
:101488006360836CC26C5A60036D002B06D01A68C7
:1014980007490A401A60436D826D5A60252301226C
:1014A800C254013B0022C2540020D2E70120D0E7F9
:1014B800FFFEFFFF0000024070B52523C35C022B2E
:1014C80003D00423C363012070BD026813680E2192
:1014D8008B43136001680A6801239A430A60416CD0
:1014E8000A68134C22400A60124C6268056C1C2181
:1014F80029408B4013436360836CC26C5A60036D50
:10150800002B06D01A680A490A401A60436D826D9A
:101518005A6025230122C254013B0022C254836B26
:10152800002B02D098470020CEE70020CCE7C04629
:10153800FFFEFFFF0000024070B5314B19680468D8
:101548002568026C1C23134004229A40114216D0CD
:101558006A0714D523689B0603D42368042293439F
:101568002360274C6368026C1C21114004228A40C6
:1015780013436360036B002B00D0984770BD0222B1
:101588009A4011421CD0AA071AD523689B0606D494
:1015980023680A22934323602523093AC254184C2E
:1015A8006368026C1C21114002228A401343636065
:1015B80024230022C254C36A002BDFD09847DDE7FA
:1015C80008229A401142D9D02D07D7D523680E2278
:1015D800934323600A4C6268036C1C211940012361
:1015E8001D008D402A436260C36325228354233340
:1015F8000022C254436B002BC0D09847BEE7C046B8
:101608000000024010B5104A136810490B4003430C
:10161800136080239B00984201D0002010BD0C4B22
:101628001B685800C01840000A49FEF753FD0130F6
:10163800054B5B695B0503D5002803D00138F7E744
:101648000020EBE70320E9E700700040FFF9FFFF07
:10165800C000002040420F0070B5002811DB83084D
:10166800134DC0339B005C5903221040C000FC326C
:1016780016008640B44389010A40824022435A51E9
:1016880070BD0F230340083B9B0806339B00094AA3
:10169800944663445C6803221040C000FC32150085
:1016A8008540AC4389010A40824022435A60E7E7FB
:1016B80000E100E000ED00E0002805DB1F231840F2
:1016C8001E3B8340014A13607047C04600E100E0BA
:1016D800013880235B0498420FD2094A50600948B8
:1016E800036A1B021B0AC02109060B43036200237D
:1016F800936007331360002070470120FCE7C04661
:1017080010E000E000ED00E010B50400114B19787E
:10171800002901D1012010BDFA208000FEF7DAFC73
:1017280001000D4B1868FEF7D5FCFFF7D1FF002824
:101738000DD1032C01D90120EDE701300022210051
:101748004042FFF789FF054B1C600020E3E70120BA
:10175800E1E7C046B9000020C0000020BC0000201E
:1017680010B5084A116880235B000B4313600320FF
:10177800FFF7CAFF041E02D00124200010BDFFF7A6
:1017880075F8FAE700200240034B1B78034A1168FA
:101798005B1813607047C046B90000203012002063
:1017A800014B18687047C0463012002070B504001D
:1017B800FFF7F6FF0500631C02D0044B1B78E41802
:1017C800FFF7EEFF401BA042FAD370BDB90000201E
:1017D800034A136803490B40034313607047C0462C
:1017E80000000140FFF9FFFF7047000030B5EFF33C
:1017F8001084012282F3108801680B68C025AB436E
:101808000B6084F31088EFF3108182F3108802686C
:101818009368044C2340936081F31088842320222A
:10182800C25030BDFFFF7FFF30B5EFF310840122B7
:1018380082F3108801680B68124D2B400B6084F30B
:101848001088EFF3108182F31088026893680E4CB9
:101858002340936081F31088C36E012B06D0882340
:101868002022C2500023C366036730BDEFF3108106
:1018780083F31088026813681024A343136081F36C
:101888001088ECE7DFFEFFFFFEFFFFEF10B5040056
:10189800130084228258202A55D1002955D0002BC4
:1018A80055D0806880225201904232D08022A25CBA
:1018B800012A4ED080220120A05421652C3AA3523F
:1018C8000232A35236320021A150083A2131A150E8
:1018D800A26F002A24D02049D162A26F1F49116348
:1018E800A26F1F495163A26F00219163216D226885
:1018F8002832A06FFFF752FD002811D08C23102248
:10190800E2500C3B0022E25404332032E250012022
:101918001AE02269002AC9D1CA07C7D5012013E0F5
:10192800236840221A62802100236354EFF3108059
:10193800013383F31088226893680B43936080F324
:101948001088002000E0022010BD0120FCE70120E3
:10195800FAE70220F8E7C0466F190008E519000801
:10196800F1190008704710B50300806A1B681B68EE
:101978009B061AD456230022C252EFF3108C013270
:1019880082F3108801688B688024A3438B608CF3F2
:101998001088EFF3108182F31088026813684020E2
:1019A8000343136081F3108810BDFFF7DBFFFBE7EB
:1019B80010B5EFF31081012383F3108802681368D0
:1019C8004024A343136081F3108884232022C2504B
:1019D80000234367FFF7C6FF10BD704710B5806A44
:1019E800FFF7FBFF10BD704770B5846A8423E25887
:1019F8000433E55823689B681B0601D5212A0ED0BD
:101A080023689B685B0601D5222D0FD08C22A35832
:101A180010210B43A3502000FFF7E5FF70BD5623AC
:101A28000022E2522000FFF7E1FEE9E75E230022F0
:101A3800E2522000FFF7F8FEE8E710B5806A0023BD
:101A48005E228352083A8352FFF7CDFF10BD7047DC
:101A5800F8B504000268D36915689068B9491E0092
:101A68000E400B4205D1990603D5A9062CD4C10016
:101A78002AD4002E07D0B44906000E40084229D1C6
:101A8800B2490D4226D1E16E012900D1A7E0D90261
:101A980002D5410200D53AE11A0605D52A0600D535
:101AA8003CE1000200D539E15A0602D56A0600D5A4
:101AB8003BE11A0202D56A0000D53AE1DB0102D502
:101AC800002D00DA39E1F8BD236F002BFBD0200090
:101AD8009847F8E7D90707D5E90505D5012717621B
:101AE8008C2162583A4362509A0709D5C20707D534
:101AF8002268022111628A31625804273A436250EF
:101B08005A0709D5C20707D522680421116288310E
:101B1800625802273A4362501A070AD5AA0601D426
:101B2800002E06D02268082616628C21625832439D
:101B380062501A050AD56A0108D522688021090170
:101B480011628C2162582026324362508C22A2589E
:101B5800002AB8D09B0608D5AD0601D4C00004D52C
:101B6800236F002B01D0200098478C23E25823686C
:101B78009B685B0602D42823134229D02000FFF774
:101B880053FE23689B685B061ED5EFF31081012383
:101B980083F310882268936840208343936081F31D
:101BA8001088E36F002B0BD0694A9A63E06FFFF748
:101BB80083FC002800D186E7E06F836B984782E7B3
:101BC8002000FFF710FF7EE72000FFF70CFF7AE701
:101BD8002000FFF708FF8C230022E25073E7D906A4
:101BE80000D454E7E90600D451E7102313622368B0
:101BF8009B685B0651D5E26F13685B689BB2002B4C
:101C080000D160E75C21615A994200D85BE75E2108
:101C1800635213681B689B0609D55C23E15A02339B
:101C2800E35AC91A89B22000FFF711FF4BE7EFF317
:101C38001080012383F3108821680A68454D2A40E3
:101C48000A6080F31088EFF3108083F3108821680E
:101C58008A689A438A6080F31088EFF3108083F3D0
:101C6800108821688A684235FF35AA438A6080F364
:101C7800108888222021A1500022E266EFF310810B
:101C880083F310882268136810208343136081F35C
:101C98001088E06FFFF7D0FBBFE75C23E35A5E22B2
:101CA800A15A591A89B2A35A9BB2002B00D10AE74C
:101CB800002900D107E7EFF31085012383F310888B
:101CC80020680268244E3240026085F31088EFF3E2
:101CD800108583F3108820688268204E3240826025
:101CE80085F3108888222020A0500022E26622670F
:101CF800EFF3108083F31088226813681025AB4334
:101D0800136080F310882000FFF7A1FEDBE6802334
:101D18005B031362200000F0FDFAD4E6636F002B2A
:101D280000D1D0E620009847CDE62000FFF740FE1E
:101D3800C9E6200000F0F0FAC5E6200000F0EBFA52
:101D4800C1E6C0460F080000010000102001000491
:101D5800431A0008FFFEFFFFDFFEFFFFFEFFFFEF55
:101D680010B5040083680269134342691343C269CA
:101D7800134301680A686C48024013430B602268E9
:101D880053686A490B40E1680B435360A369226AB0
:101D98001A4321688B686648034013438B602268A6
:101DA800D36A0F218B43616A0B43D3622368614A6C
:101DB80093420AD0604A93423DD0604A93425BD036
:101DC8005F4A934248D010230BE05E4B5A6D0323C1
:101DD8001340022B42D02AD8002B41D0012B41D1ED
:101DE8000333E06980221202904247D0042B00D1CD
:101DF80092E07BD8002B00D187E0022B74D15248A7
:101E0800626A524B5200D15AFEF764F961684B0876
:101E1800C018FEF75FF90004000C0200103A4C4BA2
:101E28009A4200D97DE02368D860002064E0032B43
:101E38001AD10533D5E7434B5A6D0C231340082BB1
:101E480014D005D8002B13D0042BCAD01023C8E710
:101E58000C2B0FD1043BC4E70023C2E70223C0E7E1
:101E68000023BEE71023BCE71023BAE70223B8E734
:101E78000023B6E71023B4E70023B2E7042B30D0E1
:101E880025D8002B27D0022B1FD12F48626A2F4B51
:101E98005200D15AFEF71EF9400061684B08C0187D
:101EA800FEF718F983B20004000C01001039284A23
:101EB800914234D80F2293431A0040080723034065
:101EC80013432268D360002016E0012014E0082B99
:101ED800DCD0012010E0FFF7B9F80028D6D10020A7
:101EE8000AE0FEF78BFFF8E7012005E0082B02D196
:101EF8008020000284E7012001236A22A352023ACB
:101F0800A35200232367636710BDFFF79FF80028DB
:101F180000D075E70020EFE7FEF770FFF7E7012034
:101F2800EAE70120E8E7C046F369FFCFFFCFFFFFEC
:101F3800FFF4FF1100380140004400400048004011
:101F4800004C0040001002400024F400F83600085D
:101F5800EFFF0000836ADB0706D5026853682C4947
:101F68000B40C16A0B435360836A9B0706D502681E
:101F7800536828490B40016B0B435360836A5B0726
:101F880006D50268536824490B40416B0B435360E4
:101F9800836A1B0706D50268536820490B40816B8A
:101FA8000B435360836ADB0606D5026893681C49B5
:101FB8000B40C16B0B439360836A9B0606D502688E
:101FC800936818490B40016C0B439360836A5B0666
:101FD8000BD50268536814490B40416C0B4353609E
:101FE800426C80235B039A420AD0836A1B0606D59B
:101FF800026853680D490B40C16C0B43536070472E
:10200800026853680A490B40816C0B435360ECE744
:10201800FFFFFDFFFFFFFEFFFFFFFBFFFF7FFFFF4F
:10202800FFEFFFFFFFDFFFFFFFFFEFFFFFFFF7FF00
:10203800FFFF9FFFF8B5CE46474680B506000D0066
:1020480017009946089B98463368DC692C40641B46
:1020580063425C41BC4257D143460133F4D0FFF799
:102068009FFB4B46C01A40452ED84346002B2BD029
:10207800326813685B07E7D5D3691B05E4D580236D
:102088001B011362EFF31080012282F3108831687C
:102098000B68204C23400B6080F31088EFF310800E
:1020A80082F3108831688B6893438B6080F31088C3
:1020B80020238332B3500432B3500432B350603318
:1020C8000022F254032020E0EFF31080012282F373
:1020D800108831680B680F4C23400B6080F3108820
:1020E800EFF3108082F3108831688B6893438B601C
:1020F80080F3108820238332B3500432B350603306
:102108000022F254032000E00020C0BCB946B046CB
:10211800F8BDC0465FFEFFFFF0B5C64600B582B009
:1021280004000D0090461E008423C358202B6AD15A
:10213800002900D16CE0002A00D16BE0826880237E
:102148005B019A421FD08023E35C012B64D080237B
:102158000122E2540C330022E250083B2132E250C3
:10216800FFF71EFB070054234246E2520233E252B5
:10217800A26880235B019A420CD0002398468023F2
:102188000022E2541DE00369002BDCD1CB07DAD52D
:10219800012039E02369002B02D000239846EEE79E
:1021A800A8460025EBE743461B882268DB05DB0DC4
:1021B800936202239C46E0445623E25A013A92B2C3
:1021C800E2525623E35A9BB2002B0FD000963B00F5
:1021D800002280212000FFF72DFF00281ED1002DAE
:1021E800E1D02A7823689A620135E5E700963B003A
:1021F800002240212000FFF71DFF002810D1842372
:102208002022E25000E0022002B080BCB846F0BDB7
:102218000120F9E70120F7E70220F5E70320F3E7BB
:102228000320F1E730B583B004008C230022C250AC
:10223800FFF7B6FA050023681B681B070FD423684D
:102248001B685B0718D420238422A3500432A350B0
:102258000023E366083AA354002003B030BD802170
:102268000C4B00930300002289032000FFF7E2FED5
:102278000028E4D00320F0E78021064B00932B00D0
:102288000022C9032000FFF7D5FE0028DBD0032079
:10229800E3E7C046FFFFFF0110B5041E35D08423D5
:1022A800C358002B27D084232422E25022681368C5
:1022B80001218B4313602000FFF752FD012819D03C
:1022C800A36A002B1DD12268536811490B40536043
:1022D8002268936822218B439360226893681A3995
:1022E8000B4393602268136807390B43136020007F
:1022F800FFF798FF10BD80330022C254FEF7D2FAD0
:10230800D1E72000FFF726FEDDE70120F2E7C0460F
:10231800FFB7FFFF70477047704700000D488546BC
:10232800FFF762FA0C480D490D4A002302E0D45821
:10233800C4500433C4188C42F9D30A4A0A4C002307
:1023480001E013600432A242FBD300F011F8FEF75B
:102358003FFAFEE70090002000000020280100203E
:10236800B03700082801002048120020FEE70000CE
:1023780070B500260C4D0D4C641BA410A64209D163
:10238800002601F0E1F80A4D0A4C641BA410A6428D
:1023980005D170BDB300EB5898470136EEE7B3009E
:1023A800EB5898470136F2E7A8370008A837000825
:1023B800A8370008AC370008002310B59A4200D1AE
:1023C80010BDCC5CC4540133F8E703008218934273
:1023D80000D1704719700133F9E7000070B50500A6
:1023E8000E00002804D08369002B01D100F0A4FA64
:1023F800AB69AC68002B02D1280000F09DFA2D4B88
:102408009C4222D16C68636EDB0705D4A3899B05C7
:1024180002D4A06D00F031FBA3891B0702D5236904
:10242800002B29D12100280000F0E0F8002823D053
:1024380001256D42636EDB0705D4A3899B0502D491
:10244800A06D00F01BFB280070BD1B4B9C4201D106
:10245800AC68D8E7194B9C42D5D1EC68D3E7013674
:10246800A360002B04DAA2699A4216DC0A2914D068
:1024780023685A1C22601970A3683178013B00292F
:10248800EDD1A360002B0FDA280022000A3100F0FA
:1024980057F80A25431CCDD1CAE72200280000F0CE
:1024A8004FF8431CE8D1C3E70A2523685A1C226069
:1024B8001D70BFE734370008543700081437000888
:1024C80010B5034B01001868FFF788FF10BDC04620
:1024D800C40000200EB400B50B499CB01DAB02909F
:1024E8000690079104910948094904CB05910068B1
:1024F80002A9019300F03AFC0023029A13701CB061
:1025080008BC03B01847C046FFFFFF7FC400002087
:102518000802FFFF020010B5137814000132002BE7
:10252800FAD1CA5CE2540133002AFAD110BD030083
:102538000A7801311A700133002AF9D17047000076
:10254800F8B505000E001400002804D08369002B9C
:1025580001D100F0F1F9224B9C422ED16C68A3699D
:10256800A360A3891B0732D52369002B2FD02368CA
:102578002269F7B2981A6369F6B2834205DC210032
:10258800280000F037F9002827D1A3680130013B63
:10259800A36023685A1C22601F706369834204D0B9
:1025A800A389DB0707D50A2E05D12100280000F0F2
:1025B80021F9002811D13000F8BD0A4B9C4201D105
:1025C800AC68CCE7084B9C42C9D1EC68C7E721004E
:1025D800280000F00BF80028C9D001267642EAE767
:1025E800343700085437000814370008374B70B5E3
:1025F8001D6806000C00002D05D0AB69002B02D128
:10260800280000F099F9324B9C420FD16C680C23DA
:10261800E25E93B211072DD4D90611D40923012003
:10262800336037331343A381404270BD294B9C422A
:1026380001D1AC68EBE7284B9C42E8D1EC68E6E7AF
:102648005B0713D5616B002908D0230044339942F6
:1026580002D0300000F080FA002363632422A389AB
:102668009343A38100236360236923600823A2891D
:102678001343A3812369002B0BD1A0218022A389B6
:10268800890092000B40934203D02100300000F0F3
:102698001FFA0C22A35E01201A0099B202400342DD
:1026A8000FD00022A26062695242A2610020226912
:1026B8008242BAD10A06B8D540221343A381013811
:1026C800B3E7880700D46269A260EFE7C40000207E
:1026D800343700085437000814370008F7B58B89D9
:1026E80005000C001A075FD44A68002A04DC0A6C4B
:1026F800002A01DC0020FEBDE76A002FFAD0002284
:1027080080212E682A601A0049010A400B4234D001
:10271800606DA3895B0706D56368C01A636B002BDD
:1027280001D0236CC01A0200216A00232800E76A3E
:10273800B847A189431C06D12B681D2B31D82C4AD8
:10274800DA40D3072DD50023636023692360CB04C7
:1027580005D5431C02D12B68002B00D16065616B45
:102768002E600029C6D023004433994202D02800A5
:1027780000F0F2F900206063BDE701232800216A18
:10278800B847431CC5D12B68002BC2D01D2B01D0E4
:10279800162B01D12E60ADE74023A2891343A381F4
:1027A800A9E740230B43FAE70F69002FA2D00A6874
:1027B8000F60D21B019200229B0700D14A69A260D8
:1027C800019B002B00DC95E73A002800019B216A59
:1027D800A66AB047002806DC40230120A2894042AF
:1027E8001343A38187E7019B3F181B1A0193E7E76F
:1027F800010040200B6970B505000C00002B02D1C8
:102808000025280070BD002804D08369002B01D161
:1028180000F092F8144B9C421BD16C680C22A35E0A
:10282800002BEDD0626ED20704D49B0502D4A06DB4
:1028380000F023F928002100FFF750FF636E050020
:10284800DB07DED4A3899B05DBD4A06D00F016F965
:10285800D7E7064B9C4201D1AC68DFE7044B9C42AA
:10286800DCD1EC68DAE7C046343700085437000892
:1028780014370008002310B5040003604360836028
:10288800818143661900C281036143618361082223
:102898005C30FFF79AFD054B24626362044BA36228
:1028A800044BE362044B236310BDC0469D3200080D
:1028B800C5320008FD3200082933000810B5024966
:1028C80000F0BAF810BDC046FD27000870B56825AD
:1028D8004A1E55430E002900743100F087F9041E82
:1028E80008D000212A00016046600C30A0606832E0
:1028F800FFF76BFD200070BD10B5024800F0BDF871
:1029080010BDC0463512002010B5024800F0B6F8D8
:1029180010BDC0463512002010B5024800F0ADF8D1
:1029280010BDC0463612002010B5024800F0A6F8C7
:1029380010BDC0463612002013B50400FFF7ECFFA7
:10294800A369002B02D0FFF7EFFF13BDA364E36474
:102958002365134B134A1B68A2620193A34201D15A
:102968000123A361200000F01FF86060200000F040
:102978001BF8A060200000F017F800220421E06096
:102988006068FFF777FF01220921A068FFF772FF4F
:1029980002221221E068FFF76DFF0123A361D2E74D
:1029A80010370008C5280008F8B50700FFF7A4FF8E
:1029B8001F4B1E68B369002B02D13000FFF7BCFF24
:1029C8004836B4687368013B04D53368002B22D0BD
:1029D8003668F6E70C22A55E002D1AD12000154BAB
:1029E8005830E360656600F047F8FFF78DFF200078
:1029F800082229002560A560656025616561A561DB
:102A08005C30FFF7E2FC6563A563A564E56420001C
:102A1800F8BD6834D7E704213800FFF757FF041ED4
:102A28003060D5D1FFF770FF0C233B60EFE7C0465D
:102A3800103700080100FFFFF7B504000600002763
:102A4800019148346368A5680093009B013B00939B
:102A580004D52468002CF5D13800FEBDAB89012BC4
:102A680008D90E22AB5E013304D029003000019B47
:102A7800984707436835E8E7704770477047000094
:102A880070B50E001D000E23C95E140096B0002913
:102A980008DA0C22B35E00222A601B0611D48023B8
:102AA800DB000FE06A4600F067FC0028F1DBF0234A
:102AB80001991B021940054BC9184B42594129601D
:102AC800EDE740230020236016B070BD00E0FFFF53
:102AD800F7B502268B8905000C00334206D0230087
:102AE80047332360236101236361F7BD6A4601AB65
:102AF800FFF7C6FF00990700280000F077F80028C4
:102B080008D10C22A35E9A05EFD4032293431E43F7
:102B1800A681E4E70F4BAB628023A28920601343B0
:102B2800A381009B20616361019B002B0DD02800CD
:102B38000E23E15E00F032FC002806D00322A389B0
:102B480093431A0001231343A381A0890743A78154
:102B5800CBE7C046C528000870B50500002910D08D
:102B68000C1F2368002B00DAE418280000F05AFC38
:102B78001D4A1368002B05D163601460280000F01B
:102B880059FC70BDA34208D9216860188342F3D16B
:102B980018685B6841182160EEE71A005B68002B33
:102BA80001D0A342F9D911685018A0420BD120686E
:102BB8000918501811608342E0D118685B68411801
:102BC80011605360DAE7A04202D90C232B60D5E7E5
:102BD80021686018834203D118685B684118216036
:102BE80063605460CAE7C04638120020F8B5032372
:102BF800CD1C9D43083506000C2D1FD20C25A9427B
:102C08001ED8300000F00EFC25490A681400002C7C
:102C18001AD1244F3B68002B04D12100300000F06A
:102C280027FB38602900300000F022FB431C2BD121
:102C38000C233000336000F0FDFB03E0002DDEDAEA
:102C48000C2333600020F8BD23685B1B19D40B2BC1
:102C580003D92360E418256003E06368A2420ED11B
:102C68000B60300000F0E6FB200007220B30231D2C
:102C78009043C21A9842E6D01B1AA350E3E7536068
:102C8800EFE722006468C2E70323C41C9C43A04208
:102C9800E1D0211A300000F0EBFA431CDBD1C7E782
:102CA800381200203C120020F0B58E6885B007006D
:102CB8000C00039201939E423CD890238A89DB0042
:102CC8001A4234D00969236860695B1A02930323A6
:102CD8004343DD0FED18019B029801331B186D105B
:102CE800AB4200D91D00530532D529003800FFF743
:102CF8007DFF061E09D10C233B6040230120A289D9
:102D080040421343A38105B0F0BD029A2169FFF741
:102D180053FBA389144A1A4080231343A381029BBF
:102D28002661F61826606561019EED1AA560019B73
:102D38009E4200D9019E32000399206800F05FFB93
:102D4800A36800209B1BA36023689E192660DAE70E
:102D58002A00380000F076FB061EE0D13800216911
:102D6800FFF7FAFEC7E7C0467FFBFFFFF0B5A1B04B
:102D780003901D008B890F0016001B0611D50B69E7
:102D8800002B0ED14021FFF731FF38603861002851
:102D980005D10C23039A0138136021B0F0BD4023FC
:102DA8007B61002308AC6361203363761033A3761C
:102DB800079535002B78002B01D0252B47D1AB1B6D
:102DC8000593B5420CD0320039000398FFF76CFF29
:102DD800431C00D1AEE06269059B9446634463617D
:102DE8002B78002B00D1A5E001220023524262601B
:102DF80004A9543252186E1C2360E360A360137058
:102E0800A36505223178544800F0EEFA751C0028B5
:102E18001FD12268D30604D5532304A95B182021A7
:102E28001970130704D5532304A95B182B211970B3
:102E380033782A2B16D0350000210A20E3682A7837
:102E48006E1C303A092A4ED9002911D117E00135F4
:102E5800B0E7414B2268C01A0123834013432E0078
:102E68002360CEE7079B191D1B680791002B01DB28
:102E78000B9304E05B42E3600223134323602B7847
:102E88002E2B0AD16B782A2B35D1079B02351A1DB8
:102E98001B680792002B2BDB0993304E032230006E
:102EA800297800F0A1FA002806D04023801B83402F
:102EB80022680135134323602978062228486E1CAE
:102EC800217600F091FA00283CD0264B002B25D122
:102ED8000722079B07339343083307936369049AD0
:102EE8009B18636165E74343350001219B18A6E7FA
:102EF80001235B42D0E700230A201A0001356360F2
:102F080029786E1C3039092903D9002BC5D00992BC
:102F1800C3E74243350001235218F1E707AB00939A
:102F28003A002100104B039800E000BF0490049B76
:102F38000133D3D1BB890D985B0600D42DE701205E
:102F480040422AE707AB00933A002100064B03985A
:102F580000F07CF8EAE7C046743700087A370008C2
:102F68007E37000800000000B12C0008F7B51500F6
:102F780001938A680B690C000090934200DA1300F1
:102F880022002B6043321278002A01D001332B60D3
:102F980023689B0602D52B6802332B602268062320
:102FA80017001F401A4227D0230043331B785A1EAC
:102FB80093412268920630D4220001990098089E15
:102FC8004332B047431C25D0062320682A68E168AD
:102FD80000250340042B03D18D1AEB43DB171D405A
:102FE800A3682269934201DD9B1AED180027BD42B0
:102FF80020D1002010E00137E3682A689B1ABB4201
:10300800D2DD2200012301990098089E1932B047A9
:10301800431CF0D101204042FEBD3020E11843316D
:10302800087021005A1C45310978A218433202332E
:103038001170C1E72200012301990098089E1A32F5
:10304800B047431CE6D00137D1E70000F0B58BB09C
:1030580006920A0043320793059004920A7E0C00F8
:10306800109B782A07D8622A09D8002A00D1C1E023
:10307800582A00D18CE026004236327022E0100037
:1030880063381528F7D8FDF71BF816001F00F6FF60
:10309800F6FFF6FFF6FF1F00F6FFF6FFF6FFF6FF56
:1030A800A80036009A00F6FFF6FFB900F6FF3600D2
:1030B800F6FFF6FF9E0026001A684236111D1960B9
:1030C800136833700123A7E0086819680A1D05060C
:1030D8000BD50D681A60002D03DA2D23049A6D4272
:1030E8001370614B0A2703931BE00D681A604106B1
:1030F800F1D52DB2EFE70D681968081D18602E0686
:1031080001D50D6803E06D06FBD50D68ADB2564BD1
:10311800082703936F2A00D0023723000022433385
:103128001A706368A360002B03DB042221689143B3
:103138002160002D02D1049E002B0CD0049E280093
:103148003900FDF703F8039B013E5B5C33702B00ED
:1031580005009F42F3D9082F09D12368DB0706D55C
:1031680063682269934202DC3023013E3370049B7A
:103178009B1B2361079B210000930598069B09AAC6
:10318800FFF7F4FE431C4CD1012040420BB0F0BDC8
:1031980045310A70344A03921A68216820CA1A60B5
:1031A800080616D5CB0702D520231943216010271E
:1031B800002DB2D1202322689A432260ADE7202255
:1031C80009680A4322602200782145321170274A93
:1031D800E1E74806E6D5ADB2E4E71A680D68101DC8
:1031E8004969186013682E0601D5196002E06D065A
:1031F800FBD519800023049E2361BBE71A68111DC3
:103208001960166800213000626800F0EDF80028A7
:1032180001D0801B6060636823610023049A1370E7
:10322800A8E72369320006990598079DA847431C1B
:10323800AAD023689B0715D4099BE0689842A5DAB1
:103248001800A3E72200012306990598079E193262
:10325800B047431C98D00135E368099A9B1AAB42E2
:10326800F0DCE9E70025F7E785370008963700081E
:10327800002370B5064D040008002B6000F056F9D5
:10328800431C03D12B68002B00D0236070BDC046BF
:103298004012002070B50C000E25495F00F002F9BD
:1032A800002803DB636D1B18636570BDA389024AA0
:1032B8001340A381F9E7C046FFEFFFFFF8B51F00F1
:1032C8008B8905000C001600DB0505D50E23C95EA9
:1032D8000022022300F074F8A389054A280013404D
:1032E800A38132000E23E15E3B0000F01FF8F8BD19
:1032F800FFEFFFFF70B50C000E25495F00F060F886
:10330800A389421C03D1054A1340A38170BD8022C2
:1033180052011343A3816065F8E7C046FFEFFFFF42
:1033280010B50E23C95E00F015F810BD70B5040085
:10333800080011001A000023054D2B60FDF7DEF987
:10334800431C03D12B68002B00D0236070BDC046FE
:1033580040120020002370B5064D040008002B60C1
:1033680000F0BCF8431C03D12B68002B00D023606D
:1033780070BDC04640120020002370B5064D040001
:10338800080011002B6000F0B1F8431C03D12B6832
:10339800002B00D0236070BD40120020002370B5C0
:1033A800064D040008002B6000F0A8F8431C03D168
:1033B8002B68002B00D0236070BDC046401200204F
:1033C80070B50400080011001A000023054D2B6099
:1033D80000F09CF8431C03D12B68002B00D023601D
:1033E80070BDC04640120020C9B28218904201D177
:1033F8000020704703788B42FBD00130F6E710B508
:10340800884202D98B18984203D3002307E08B5CCB
:103418008354013AFBD210BDCC5CC45401339A42A8
:10342800FAD1F8E710B50248FFF727FB10BDC046F0
:103438003412002010B50248FFF720FB10BDC0462B
:1034480034120020F7B507000E001400002905D13A
:103458001100FFF7CBFB05002800FEBD002A03D1B1
:10346800FFF77AFB2500F7E700F030F80190844277
:1034780003D835004308A342EED321003800FFF7F4
:10348800B5FB051EE8D0019B22009C4200D91A001A
:1034980031002800FEF790FF31003800FFF75CFB91
:1034A800DAE7000070B50400080011001A000023D4
:1034B800054D2B6000F032F8431C03D12B68002B1C
:1034C80000D0236070BDC046401200200B1F1B684F
:1034D800181F002B01DA0B58C0187047582201201A
:1034E800014B40421A6070474012002058220120C8
:1034F800014B40421A607047401200205822024B8C
:1035080000201A607047C04640120020582201204F
:10351800014B40421A607047401200205822012097
:10352800014B40421A60704740120020044A0300D1
:103538001068002802D0C318136070470148FAE7E2
:103548004412002048120020F8B5C046F8BC08BC58
:103558009E467047F8B5C046F8BC08BC9E46704702
:103568005761726E696E673A20343820636C6F63F6
:103578006B73206E6F742072656365697665642C61
:103588002025640A0000000043482564204F464671
:103598000A0000005761726E696E6720746F6F20B1
:1035A8006D616E7920737372206F66662072657123
:1035B80075657374730A000043482564204F4E0AEA
:1035C800000000004572726F722C206D6178696D81
:1035D800756D20616C6C6F776564206F66206F6E07
:1035E800207373727320726561636865642E20436B
:1035F80048256420646964206E6F74207377697449
:103608006368206F6E0A000043483231204F4646F7
:103618000A00000043483231204F55540A00000088
:103628004572726F722C206D6178696D756D2061BD
:103638006C6C6F776564206F66206F6E2073737291
:103648007320726561636865642E20427573322049
:103658004D757820646964206E6F7420737769747F
:103668006368206F6E0A0000434832312053454E8C
:1036780053450A000A3D3D3D3D3D3D3D3D3D3D3DF7
:103688003D3D3D3D0A426F6F74696E670000000062
:103698000000000000000000000000000000000022
:1036A8000000000000000000000000000000000012
:1036B80001000000020000000300000004000000F8
:1036C80006000000070000000800000009000000D4
:1036D80000000000000000000000000000000000E2
:1036E80001000000020000000300000004000000C8
:1036F800010002000400060008000A000C00100087
:103708002000400080000001C800002000000000E8
:1037180000000000000000000000000000000000A1
:103728000000000000000000000000000000000091
:103738000000000000000000000000000000000081
:103748000000000000000000000000000000000071
:103758000000000000000000000000000000000061
:10376800000000000000000000000000232D302BA6
:103778002000686C4C00656667454647003031326A
:1037880033343536373839414243444546003031C1
:103798003233343536373839616263646566000020
:0437A800950100087F
:0437AC006D010008A3
:1037B00000000050000000500000005000000050C9
:1037C00000040050000400500004005000040050A9
:1037D000000400500004005000000050000400509D
:1037E0000004005000040050000000500000005091
:1037F0000000005000000050000000500000005089
:10380000000400000008000000100000008000001C
:103810000800000010000000200000004000000030
:103820008000000000010000000100000400000012
:1038300002000000010000008000000040000000C5
:10384000200000001000000008000000040000003C
:10385000030000000B0C0D0E0F10111213140102C7
:10386000030405060708090A15010000040000000A
:103870000024F400C80000200000000034370008D5
:103880005437000814370008000000000000000052
:103890000000000000000000000000000000000028
:1038A0000000000000000000000000000000000018
:1038B0000000000000000000000000000000000008
:1038C00000000000000000000000000000000000F8
:0838D0000000000000000000F0
:0400000508002325A7
:00000001FF
