:020000040800F2
:100000000090002031240008B1080008B50800085D
:1000100000000000000000000000000000000000E0
:10002000000000000000000000000000B908000807
:100030000000000000000000BD080008C108000822
:1000400081240008000000008124000881240008A9
:10005000812400088124000881240008C9080008C0
:1000600000000000DD080008812400088124000849
:100070008124000881240008812400080000000079
:1000800081240008812400088124000881240008BC
:1000900081240008812400088124000881240008AC
:1000A000812400088124000881240008812400089C
:0800B00081240008ED0800089E
:1000B80003B47146490840004900095E49008E446E
:1000C80003BC7047002934D00123002210B48842B1
:1000D8002CD301242407A14204D2814202D209016F
:1000E8001B01F8E7E400A14204D2814202D2490090
:1000F8005B00F8E7884201D3401A1A434C08A04233
:1001080002D3001B5C0822438C08A04202D3001BC8
:100118009C082243CC08A04202D3001BDC082243DF
:10012800002803D01B0901D00909E3E7100010BC1F
:10013800704701B5002000F00BF802BD0029F8D087
:1001480003B5FFF7C1FF0EBC4243891A1847C046E2
:100158007047C04610B5064C2378002B07D1054BD5
:10016800002B02D0044800E000BF0123237010BD1B
:10017800400100200000000090360008044B10B534
:10018800002B03D00349044800E000BF10BDC0465F
:10019800000000004401002090360008F0B54F46EA
:1001A8004646D6462B4BC0B598461E002A4B2B4FC9
:1001B80099461D00012300249A46386004E0013462
:1001C80004360435152C0ED05346A3401842F6D1F8
:1001D800306829880022013401F070F80436386844
:1001E8000435152CF0D11E4B184221D18021A020B6
:1001F80000228900C00501F061F800224021194859
:1002080001F05CF8802500246D033B682B4204D183
:10021800E0BCBA46B146A846F0BD4B46195B43461A
:100228000122185901F04AF8502CF1D00434ECE7B7
:1002380001242200000D82438021A0208900C005EE
:1002480001F03CF83A684021120D0648224001F0BE
:1002580035F8D7E700000020500000205C0100209E
:1002680000FC0F000008005000B593B034220021B4
:1002780005A802F027F910220021684602F022F9A9
:100288008020800001F0FCF9022305930C930D9364
:1002980006330F93802380229B0252001093802301
:1002A8004021089200229B0505A809920A910E9206
:1002B800119300F091FB002801D072B6FEE70722E7
:1002C8000223009201930022002302216846029231
:1002D800039300F035FE002801D072B6FEE713B094
:1002E80000BDC046F0B5D64646464F46C0B50227C3
:1002F8008AB0694D01F06CFAFFF7B6FF14220021AD
:1003080004A802F0DFF86B6B01263B436B636B6B51
:10031800A0203B400193019B04236A6B5F491A4369
:100328006A636A6BC00513400293029B6B6B0022E1
:1003380033436B636B6B002433400393039B00F0E0
:10034800BDFF574B002219005648984600F0B6FFEB
:1003580000224021544800F0B1FF8022002392007F
:10036800504804A904920593069400F0C5FEC022E3
:10037800882312025B034C4804A90492059306944F
:1003880000F0BAFEA020032304A9C0050596079330
:100398000497069400F0B0FEA020444B04A9C005C1
:1003A800049305960694079400F0A6FE43463D483C
:1003B80004A9049305960694079400F09DFE402333
:1003C800394804A9049305960694079400F094FE0E
:1003D80000220121072001F083F9072001F0ACF980
:1003E800AB6B00223343AB63AB6B00211E4009208B
:1003F8000496049B01F074F9092001F09DF92C483A
:100408002C4B84600360E1235B0243600823C460D3
:10041800046143618461C46104624462846201F0DE
:100428008DFF002801D072B6FEE7A020002202212D
:10043800C00500F043FF204802F0BEF806246420FF
:1004480001F0ECF9A020013C0221C005E4B200F063
:100458003BFF002CF3D1A02001220221C00500F0AF
:100468002DFF164B00249A46154B0025994600236C
:100478009846144F01F0CCF9060001F0C9F93B6821
:10048800C31A012BF6D9534642461A704B463E60B2
:100498001C605D60EEE7C04600100240FE9F000051
:1004A800FF0100000004005000080050FC9F0000FD
:1004B800BC010020004C0040A83600084C02002077
:1004C8005002002058020020F0B5DE4657464E463E
:1004D80045468023E0B5DB0183B098420AD08023EB
:1004E8001B0298421FD003B0F0BCBB46B246A946D7
:1004F800A046F0BDCA4C802122686368A0209218EB
:100508005B418900C0052260636000F0D1FE23686A
:10051800C44A0343236013780133137001F078F958
:10052800C14B1860DFE7A0200221C00500F0CCFE17
:100538000023BE4D2B70BE4B98461C68B94B1A78E9
:100548000093182A4AD0302A00D031E1B44B1868F9
:100558000193002800D041E1A005800D03F07AF84E
:100568008146B448204003F075F8E3022BD54B468A
:10057800012B00DC4DE1B04B22001C00AF491800F4
:1005880002F024F82100280002F049F80022002394
:1005980001990A604B600023009A13702B78002B96
:1005A800A1D04022A64E3168CB691A42FCD0A54C96
:1005B8002900200002F02AF8021B2100300092B224
:1005C80001F04CF98FE748440128D4DC43461B6806
:1005D8009C42DBD02000FFF7E1FDD7E7904B90214C
:1005E80001930CCB1000C9000840884200D0EBE012
:1005F800130095490B400A4200D10EE10122160072
:100608009248817A8E40310019404F1EB941160038
:100618000F0541788E40310019404E1EB141160039
:10062800490039430778BE4037001F407E1EB74156
:10063800160039438778BE4037001F407E1EB741F9
:100648001600BF003943C778BE4037001F407E1EE2
:10065800B7411600FF0039430779BE4037001F40F5
:100668007E1EB74116003F0139434779BE40370027
:100678001F407E1EB7411600BF0239438779BE402E
:1006880037001F407E1EB7411600FF023943C77965
:10069800BE4037001F407E1EB74116003F03394356
:1006A800077A407ABE4037001F407E1EB7411600C9
:1006B800864030007F0318403943471EB841160072
:1006C80080030143624808436249C0430F78BE4033
:1006D80037001F403E00771EBE412643B446160031
:1006E8004C78A64034001C40671EBC416646640036
:1006F8002643B44616008C78A64034001C40671E7A
:10070800BC416646A4002643B4461600CC78A640F1
:1007180034001C40671EBC416646E4002643B446CC
:1007280016000C79A64034001C40671EBC41664682
:1007380024012643B44616004C79A64034001C40D8
:10074800671EBC416646A4022643B44616008C794F
:10075800A64034001C40671EBC416646E40226439E
:10076800B4461600CC79A64034001C40671EBC4134
:10077800664624032643B44616000C7AA640340085
:100788001C40671EBC4167036446160027434C7A29
:10079800897AA64034008A401C40661EB441134042
:1007A8005A1E9341A4033C431B051C430440D3E653
:1007B800214E2949300001F009FF3100280001F0DD
:1007C8002EFF174B0193C7E61B482449070001F089
:1007D800FDFE3900280001F022FFBDE616239A46E7
:1007E800153B0027002299461D498A444E460B783E
:1007F8000131013B5B009E40064037434E460133C2
:100808009E40330003401A435145EFD11443BC4383
:10081800A2E6012800DDAEE6D8E6124804409BE6D1
:10082800500200204C020020580200202C0A002010
:100838005C01002000FC0F00FC1100203837000884
:10084800BC0100205C0200207FFBFFFFA00000200D
:10085800E0830F00AC00002000370008C436000811
:10086800B80000201F7CF0FF00B583B00190012282
:10087800034B01A9034801F083FC019803B000BDB4
:10088800FFFF0000BC01002070B5161E07DD0C003C
:100898008D1820780134FFF7E7FFAC42F9D130001A
:1008A80070BDC04672B6FEE7FEE7C046FEE7C0462A
:1008B8007047C0467047C04610B500F09DFF10BD98
:1008C800802010B5C00100F009FD8020000200F072
:1008D80005FD10BD10B5024800F076FE10BDC046FB
:1008E8006001002010B5024801F0CAF810BDC046EA
:1008F800BC01002001220C4B00B5196CC02011432B
:100908001964196C83B00A4080210092009ADA6B4E
:1009180049050A43DA63DB6BC0000B400193019B76
:1009280000F08EFF03B000BD0010024030B5040097
:1009380089B01422002102A801F0C4FD224B2268CC
:100948009A4201D009B030BD8021204B0903DA6BEF
:1009580001200A43DA63DA6B0A400092009A012206
:10096800596B1143596312215B6B02900391134039
:100978000193A020019B0423C00502A904920693B9
:1009880000F0BAFB124D134B80222B6039236B60A9
:10099800293BAB6000232800EB602A616B61AB61E7
:1009A800EB612B6200F0B4FC00280AD10022002180
:1009B8001D20A567AC6200F093FE1D2000F0BCFE70
:1009C800C0E7FFF76FFFF1E7004C0040001002405E
:1009D8006001002008000240F0B5CE46474680B5C9
:1009E800040083B0002800D1F8E00368DA0731D5A5
:1009F8003822C4498868C9680240102A00D1F3E047
:100A0800082A00D1F4E0802263685202934200D1A0
:100A180001E1A021C9028B4200D1D4E1B94DBA4904
:100A28002A680A402A602A68B8490A402A60002BC6
:100A380000D0F4E000F0ECFE80270600BF0205E0DD
:100A480000F0E6FE801B642800D93CE12B683B429D
:100A5800F6D123689A072BD53823AA4A91680B4008
:100A6800D168102B00D1EBE0002B00D0EDE013682B
:100A78005B0500D5AEE051686369A5481B020140DB
:100A88000B4353609F4AA34913680B4021690B43EA
:100A980013601368A04A9B045B0FDA409F490A6001
:100AA8009F4B186800F06EFE002800D096E023687F
:100AB8001A0771D45B0745D53823924A91680B40D1
:100AC800202B00D1E7E080230020D16B5B05814615
:100AD800194208D1D16B1943D163D26B13400193EA
:100AE800019B0123994680278E4E7F0033683B4245
:100AF80000D1D9E0A368012B00D127E1052B00D153
:100B0800BEE101217F4EF26D8A43F265F26D033139
:100B18008A43F265002B00D01CE100F079FE022325
:100B280007009846804D05E000F072FEC01BA84201
:100B380000D9C8E04246F36D1A42F5D14B46012B65
:100B480000D159E1E369002B24D038226D4DA96802
:100B58000A40102A00D10FE1022B00D152E12B6884
:100B6800724A8026134003222B60EB68B604934335
:100B7800EB60EB686E4A1340EB6000F049FE04003E
:100B880005E000F045FE001B022800D99BE02B6819
:100B98003342F6D1002022E038225A4DA9680A4093
:100BA800182A2FD0A369002B00D18EE001222B6ECA
:100BB800022713432B6600F02BFE060005E000F029
:100BC80027FE801B022800D97DE02B6E1F42F6D03D
:100BD80023686FE7E368002B00D04CE7012003B0DF
:100BE800C0BCB946B046F0BDC943890700D00AE782
:100BF800444A1268920300D42CE76268002A00D0A5
:100C080028E7EBE72A6E920700D453E7A269002A87
:100C180000D04FE7E2E73B4A11680B43136000F04E
:100C2800F7FD80260500374FB60204E000F0F0FD1E
:100C3800401B642847D83B683342F7D0236809E74C
:100C48000D3B0B40022B00D1C7E0E3682D4D002B74
:100C58004ED02B682F4A802713402269FF00134388
:100C68002B6080232A685B0013432B6000F0D0FDC3
:100C7800060004E000F0CCFD801B022823D82B6876
:100C88003B42F7D06A68636921491B020A40134353
:100C98006B6023680CE7D36D9B0700D452E7A36809
:100CA800002B00D04EE799E733683B43336000F0F0
:100CB800AFFD050033683B4200D01BE700F0A8FDFC
:100CC800401B0228F6D9032089E701222B6E022750
:100CD80093432B6600F09CFD060004E000F098FDAD
:100CE800801B0228EFD82B6E1F42F7D12368E1E65C
:100CF8002B68104A802713402B6000F089FDFF0005
:100D080006001EE000100240FFFFFEFFFFFFFBFF92
:100D1800FF80FFFFFFC7FFFF0024F400D40000207E
:100D2800D00000200070004088130000FFFFFFFE85
:100D3800FFFFFEEFFFFEFFFF00F06AFD801B0228A9
:100D4800C1D82B683B42F7D12368B1E65149CA6D37
:100D58001343CB6500F05CFD4E4B06009846022716
:100D68004D4D04E000F054FD801BA842ABD843462B
:100D7800DB6D1F42F6D0E1E6012B00D12EE70323FD
:100D8800EA68216A13408B4200D027E77023616A22
:100D980013408B4200D021E7FE21A36AC90111400C
:100DA8001B02994200D019E7F823E16A9B0313401C
:100DB8008B4200D012E7236B520F52079A4200D0A1
:100DC8000CE700200BE78021324BC9021868014369
:100DD800196019680A431A6021E713685B0503D58F
:100DE800E368002B00D1F9E6516863692B481B02C0
:100DF80001400B43536053E6264A2949D36B0B4005
:100E0800D3639FE62B68274A802713402B6000F0A6
:100E1800FFFCBF04060005E000F0FAFC801B022876
:100E280000D950E72B683B42F6D1616A236AEA6829
:100E38000B431D49174E0A401343E26A1343226BC2
:100E48001343A26A12021343EB6080232A685B04EF
:100E580013432B608023EA685B051343EB6000F0C3
:100E6800D7FC80250400AD0405E000F0D1FC001B90
:100E7800022800D927E733682B42F6D00020AEE6D7
:100E88000421044BDA6D0A43DA65DA6D03390A4343
:100E9800DA655FE70010024088130000FF80FFFF5B
:100EA800FFFFFFEFFFFFFFFE8C80C11F3823214AA1
:100EB80010B591680B4205D113681F489B045B0F5E
:100EC800D84010BD91681940082912D0916819407E
:100ED800102910D091681940202922D09268134017
:100EE800183B180043425841FA234042DB0118409E
:100EF800E7E71248E5E7D368D168DB43D4684906D9
:100F0800490F64040131640E9B070DD00A48FFF7AE
:100F1800D9F86043074BD968490F0131FFF7D2F878
:100F2800CFE780200002CCE70448FFF7CBF8604306
:100F3800F0E7C046001002400024F40000127A00D6
:100F4800F8B5CE46474605000C0080B5002826D0E7
:100F58000722574E336813408B425ED32B689A079B
:100F68000ED55A0705D5E0225249D20188680243B6
:100F78008A60504950488A680240A86802438A60DB
:100F8800DB072BD56B684B4A012B00D17CE0022B89
:100F980007D0002B00D07DE01268520504D4012050
:100FA80037E012689201FAD50721424EB2688A43A7
:100FB8001343B36000F02CFC382398463F4B0700DE
:100FC800994604E000F024FCC01B48453BD8434642
:100FD800B2681A406B68DB009A42F3D10722344E9C
:100FE80033681340A34238D82B685B072DD4FFF72A
:100FF8005DFF304B324A9B6832491B051B0F9B0033
:101008009B581F221340D8402F4B0860186800F0E7
:10101800B9FBC0BCB946B046F8BD336893430B432F
:10102800336000F0F5FB07239846244B07009946E8
:10103800424633681340A34200D18FE700F0E8FB33
:10104800C01B4845F4D90320E3E71A4A1F499368AF
:101058000B40E9680B439360C9E733689343234324
:10106800336000F0D5FB07239846144B07009946D8
:10107800424633681340A342B6D000F0C9FBC01BF8
:101088004845F5D90320C4E71268920300D58BE7D9
:101098000120BEE7032B05D0D26D920700D583E768
:1010A8000120B6E7126E920700D57DE70120B0E770
:1010B8000020024000100240FFF0FFFF88130000EC
:1010C80070370008D4000020D0000020FF8FFFFFF9
:1010D800064B07499B68074A5B045B0F9B005B58FC
:1010E8001F2110680B40D8407047C04600100240CE
:1010F800B0370008D4000020F0B5DE4657464E460B
:101108004546E0B50C688B46002383B0002C64D0BC
:1011180001229A409446224092466246144258D090
:1011280003215A465F00B94055680322CE432A403E
:101138000096561E012E57D9032A6ED1BA4006686A
:10114800009931400A430260C0229202154240D001
:1011580003270F2652491F408C46FF00BE409A08BD
:1011680092006244116EB143A026F605B0420ED03B
:101178004C4EB04200D18AE04B4EB04200D18AE0DA
:101188004A4EB04200D17EE00526BE40314311668A
:101198008022434980268A5851467602C9433542FF
:1011A8006ED10A4080263E4FBA518422BA58AF0306
:1011B80063D40A4084273A4EF2513268EF0259D478
:1011C8000A40374E32607268AD024FD40A40344943
:1011D8004A6022000133DA409AD103B0F0BCBB4622
:1011E800B246A946A046F0BD8168009E31408946B6
:1011F8005946C968B9408846494646463143664615
:1012080081604168B14301268846290931409940E7
:101218008C464146664631434160C66800990E4097
:10122800B0465E46B668BE40B446464661460E4382
:10123800C660022A00D081E7D90889008C46844418
:1012480061460E6A072119408900884601960F21D8
:101258004646B140019E8E43594601964646096965
:10126800B140019E0E4361460E6267E75146114345
:101278000A00ACE756463243A3E75646324399E79D
:10128800564632438EE70326BE4031437FE70126A8
:10129800BE4031437BE70226BE40314377E7C04674
:1012A800001802400004005000080050000C0050D4
:1012B80000690840431E9841C0B27047002A01D017
:1012C800816170478162FCE7426913000B401B048F
:1012D80091430B43836170477047C0460B4B10B571
:1012E800DA680400104204D1084B1A69224207D177
:1012F80010BDD860FFF7E8F8044B1A692242F7D00E
:1013080020001C61FFF7E8FFF2E7C0460018024022
:10131800F0B5C646040000B5002862D00568324B17
:101328001421E818FEF7CEFE830023640222252349
:10133800E2542B682D4AA66813402B60E3682169A4
:1013480033430B4361692A680B43A1690B43E16985
:101358000B43216A0B4313432B60254B14219C46F6
:1013680060448700FF20234B2840A3646764083843
:101378009846FEF7A7FE1F2301220340100098405D
:101388008023E064DB019E4221D03F23454661680B
:101398000B4001393B60686003291DD803201649BA
:1013A800164D5918013B03409A40002389002165D6
:1013B8006565A2650B606A60002325220121002073
:1013C800E363A154013AA35480BCB846F0BD00239E
:1013D80063603B6043465860002323656365A365EB
:1013E800EAE70120F0E7C046F8FFFDBF0F80FFFFE6
:1013F80000820010800802403F820010400902402D
:10140800F0B5C646242400B5055D012D4FD0012551
:1014180025260555855DEFB2012D07D08023C363CE
:1014280000230355012080BCB846F0BD223C8455FA
:101438000024C4630468C66C2568BD432560856CB8
:101448006E60066D002E02D0456D876D6F601F4D72
:10145800076CAC466D68A8461C252F401B3DBD4057
:1014680047463D4367467D6063608368102B20D004
:10147800A160E260036B002B1ED00E222368134389
:101488002360426C1368DB0304D5802311685B007A
:101498000B431360002E04D0802332685B00134393
:1014A800336001222368002013432360BBE7022036
:1014B800B9E7A260E160DDE7042223689343236073
:1014C8002368063213432360DBE7C046000002406E
:1014D80070B5002834D02523C35C022B29D10E21F6
:1014E8000268184C13681C268B43416C13600B6808
:1014F80023400B600123116899431160026C124963
:10150800324093404D682B434B60C26C836C5A60E9
:10151800036D002B05D01A6822401A60436D826D56
:101528005A6025230122C2540022013BC2540020E4
:1015380070BD04230022C3632033C2540120F7E79F
:101548000120F5E7FFFEFFFF00000240252370B5EC
:10155800C35C022B03D00423C363012070BD0E219A
:1015680002681C261368164C8B431360012311680C
:1015780099431160416C0A6822400A60026C114963
:10158800324093404D682B434B60C26C836C5A6069
:10159800036D002B05D01A6822401A60436D826DD6
:1015A8005A6025230122C2540022013BC254836B96
:1015B800002B02D098470020D0E70020CEE7C04695
:1015C800FFFEFFFF0000024070B51C2104242B4BD6
:1015D80006681A68036C35680B40210099400A4276
:1015E80010D02C420ED033689B0602D43368A34334
:1015F8003360224B5A6811435960036B002B00D0AB
:10160800984770BD0224210099400A4217D02C4205
:1016180015D033689B0606D40A2233689343336097
:101628002523093AC254154B5A68114359600022C0
:101638002423C254C36A002BE3D09847E1E708216A
:101648000C009C402242DCD02942DAD032680631B4
:101658008A433260012215009D402B0007494C68DF
:1016680023434B602523C263C2540022013BC2546A
:10167800436B002BC5D09847C3E7C0460000024023
:1016880070B5134C134A23680025134003432360A5
:1016980080239B00984201D0280070BD0E4B0F4953
:1016A8001B685800C0184000FEF70CFD80226369D3
:1016B800D2000130134202D1EEE7002805D0636959
:1016C80001381342F9D10025E6E70325E4E7C046CF
:1016D80000700040FFF9FFFFD400002040420F00D7
:1016E800FF22032330B514000340DB009C4089012E
:1016F8000A40E4439A40C5B200280BDB0C4BC021DA
:101708009C46800880006044890043582340134366
:10171800435030BD0F2307492B408C46083B9B089C
:101728009B006344D9690C401443DC61F1E7C0466F
:1017380000E100E000ED00E0002805DB1F220123A6
:1017480002409340014A13607047C04600E100E040
:101758008022431E5204012093420ED2C021074A20
:1017680007485360036A09061B021B0A0B430362FE
:1017780000230020936007331360704710E000E0F7
:1017880000ED00E070B50F4B04001978002901D175
:10179800012070BDFA208000FEF794FC0A4D01007C
:1017A8002868FEF78FFCFFF7D3FF0028F0D1032C41
:1017B800EED8013800222100FFF792FF034B0020EA
:1017C8001C60E6E7CE000020D4000020D0000020F6
:1017D8008023084A5B00116810B50B43032013608F
:1017E800FFF7D0FF041E02D00124200010BDFFF730
:1017F80081F8FAE700200240034A044B11681B787D
:101808005B1813607047C04644120020CE000020C9
:10181800014B18687047C0464412002070B5040098
:10182800FFF7F6FF0500631C02D0044B1B78E41891
:10183800FFF7EEFF401BA042FAD370BDCE00002098
:10184800034A044913680B40034313607047C046BA
:1018580000000140FFF9FFFF7047C046F8B51300CC
:101868008422CE4647468258040080B5202A49D1B2
:10187800002942D0002B40D080228068520190423B
:1018880036D08025625D012A3CD0012200266255AF
:1018980053322165A3520232A3523632A6509046E3
:1018A800083A91464846633A2250A06F22680028B9
:1018B8000CD01A4F8663C762194F28320763194F35
:1018C8004763FFF79DFD00281ED122684023802131
:1018D800136200236354EFF31080013383F31088FD
:1018E800226893680B43936080F31088002005E01A
:1018F8002269002AC5D1CA07C3D50120C0BCB94690
:10190800B046F8BD0220F9E710234246A3504A46E4
:10191800103366550120A350F0E7C046351900087A
:1019280089190008991900087047C0462022030049
:1019380011001B6810B51B68806A19401A4219D13A
:101948005623C152EFF3108C1F3A82F3108880247B
:1019580001688B68A3438B608CF31088EFF31081C8
:1019680082F310880268402013680343136081F3F0
:10197800108810BDFFF7D8FFFBE7C0467047C04688
:1019880010B5806AFFF7FAFF10BDC0467047C04621
:10199800F8B584218823806A4558C45803689A6832
:1019A800120601D5212D0CD09B685B0601D5222C8F
:1019B80025D08C22102183580B438350FFF7E6FF74
:1019C800F8BD56230022C252EFF31086013282F38B
:1019D8001088C02705682B68BB432B6086F31088E6
:1019E800EFF3108582F3108802681C4E9368334029
:1019F800936085F31088202343500368D4E75E235F
:101A08000022C252EFF31084013282F31088016879
:101A1800134D0B682B400B6084F31088EFF3108193
:101A280082F3108802680F4C93682340936081F317
:101A38001088C36E012B0AD1EFF3108183F310884D
:101A4800102402681368A343136081F31088882365
:101A58002022C2500023C3660367AAE7FFFF7FFF67
:101A6800DFFEFFFFFEFFFFEF00235E2210B5806A56
:101A78008352083A8352FFF789FF10BD7047C0466A
:101A8800F0B5D6464F4646460268C64DD3690400AF
:101A9800C0B5106891682B4200D1F5E0C24EC34D25
:101AA8000E400540354352D1E56E012D25D08025E5
:101AB8006D032B4202D04E0200D50FE180221A425C
:101AC80006D080252D04024029400A4300D0FEE0BC
:101AD80040221A4202D0024200D008E11A0202D57E
:101AE800420000D517E1DB0102D5002800DA65E1E4
:101AF800E0BCBA46B146A846F0BD10261E42D6D074
:101B08000642D4D04023180016629268104013424F
:101B180000D10CE1E26F1068426892B2002AE7D067
:101B28005C218A46615A9142E2D95E27E25320221B
:101B3800170000680740BC46024200D147E15E2317
:101B4800E35A2000C91A89B2FFF798FFD0E70125A8
:101B58001D4208D0C70506D58C27BC461562E75933
:101B68003D436746E55104252F001F40BC46022728
:101B7800A9461F4200D196E0CD070BD58C251762E8
:101B88006759A8464D463D434746E5516546002DF1
:101B980000D08FE008271F4208D020250540354394
:101BA80004D08C261762A5593D43A55180252D01E7
:101BB8002B4207D0460105D58C2620271562A5594A
:101BC8003D43A5518C256559002D00D190E720256E
:101BD8001D4206D080235B0505400B401D4300D005
:101BE8009DE08C264025A15993681D4028230B4071
:101BF8001D4300D1E6E0EFF31080012282F3108844
:101C080021686B4D0B682B400B6080F31088EFF355
:101C1800108182F3108822686648936803409360B5
:101C280081F31088E36E012B0AD1EFF3108183F35F
:101C380010881020226813688343136081F310888A
:101C480088232022E2500023E3662367236820329A
:101C58009B681A4247D0EFF31080012383F3108862
:101C680021688B6893438B6080F31088E06F0028AD
:101C780039D0514B8363FFF769FC002800D137E75F
:101C8800E06F836B984733E720251D4200D10BE7AF
:101C98008026760505400E40354300D104E7236FC2
:101CA800002B18D124E76546002D00D172E7CD0737
:101CB80000D46FE7042515628835A9466559A846FA
:101CC800022547462F433D004F46E55162E7636FC3
:101CD800002B00D10CE72000984709E72000156287
:101CE80000F09CFB04E72000FFF750FE00E7EFF34D
:101CF8001080012383F3108821680B6893430B60DD
:101D080080F310888423203AE25000232000636780
:101D1800FFF70AFEECE6200000F084FBE8E6236FFC
:101D2800002B00D15DE720009847226859E75C2323
:101D38005E22E15AA35AA25A9BB2002A00D1D7E6E2
:101D4800C91A89B2002900D1D2E6EFF3108985F3C8
:101D580010882268136898464746154B1F4017603D
:101D680089F31088EFF3108985F310882268936847
:101D7800984647460F4B1F40976089F31088882381
:101D88002022E250E0662067EFF3108085F3108888
:101D980022681368B343136080F310882000FFF7AC
:101DA8006DFEA5E60F0800000100001020010004E8
:101DB800DFFEFFFFFEFFFFEF711A0008200000F0B2
:101DC8002FFB95E62000FFF7E1FDA55190E6EFF324
:101DD800108885F310882068164F01683940016023
:101DE80088F31088EFF3108885F3108820688168DD
:101DF800A943816088F31088EFF3108885F3108871
:101E0800206881689943816088F310884833E250DC
:101E18006346E366EFF3108185F310882268136840
:101E2800B343136081F31088E06FFFF751FB53460B
:101E3800E15A84E6FFFEFFFF70B504002569A26839
:101E480023682A4365691968C0692A434E4D0243CD
:101E580029400A431A605A684C49256A0A40E168D1
:101E68000A435A60A26999682A43494D29400F25B7
:101E78000A439A60DA6A616AAA430A43DA62454AFF
:101E8800934237D0444A93420CD0444A934238D0C4
:101E9800434A934235D00120424BA366002323676F
:101EA800636770BD404B414A5D6D0C232B40D25C8B
:101EB80080231B02984231D0042A59D054D8002AD2
:101EC80023D0022AE7D13A483A4B4900C95AFEF7CB
:101ED800F9F865686B08C0182900FEF7F3F80004E4
:101EE800000C0200344B103A9A42D4D82368D860C8
:101EF8000020D1E72C4B5A6D03231340013B022BE2
:101F080009D980231B0298423BD0FFF7E1F800284B
:101F1800EED0616AD8E7294AD25CC9E7042A2AD0F8
:101F28001FD8002A2DD0022AB5D12148214B4900BB
:101F3800C95AFEF7C7F8656840006B082900C01841
:101F4800FEF7C0F803041A0C1B49103A8A42A2D8BB
:101F58001B4A1B0310405B0F22681843D060002007
:101F68009AE7082AE2D096E71800082AACD092E748
:101F7800FEF79CFFCBE7FEF799FF0028B8D0616A0F
:101F8800D4E7FFF7A5F8F8E7F369FFCFFFCFFFFF26
:101F9800FFF4FF11003801400044004000480040B1
:101FA800004C00400100010000100240D437000836
:101FB8000024F400E4370008EFFF0000D0370008E1
:101FC800F0FF0000836A30B5DA0706D50168284CAF
:101FD8004A682240C46A22434A609A0706D50168C3
:101FE800244C4A682240046B22434A605A0706D5AB
:101FF8000168214C4A682240446B22434A601A0710
:1020080006D501681D4C4A682240846B22434A6009
:10201800DA0606D501681A4C8A682240C46B224346
:102028008A609A0606D50168164C8A682240046CB4
:1020380022438A605A060AD50168134D4A68446CDF
:102048002A4022434A6080225203944209D01B0648
:1020580006D502680D4953680B40C16C0B435360A9
:1020680030BD4A680A4C2240846C22434A60EEE73D
:10207800FFFFFDFFFFFFFEFFFFFFFBFFFF7FFFFFEF
:10208800FFEFFFFFFFDFFFFFFFFFEFFFFFFFF7FFA0
:10209800FFFF9FFFF0B54646984604234F469946F2
:1020A8008023D6461B01C0B5150007009A460C00D0
:1020B800089E0168731C0CD1CB6923401B1B5A4234
:1020C8005341AB42F8D00020E0BCBA46B146A8461E
:1020D800F0BDCB6923401B1B5A425341AB42F2D19E
:1020E800FFF796FB4346C01AB0422DD8002E2BD0DE
:1020F8004A4639680B681A42DCD05246CB6913420B
:10210800D8D00A62EFF31080012282F31088396870
:102118001A4C0B6823400B6080F31088EFF3108093
:1021280082F3108839688B6893438B6080F310883A
:1021380020238332BB500432BB500432BB500022F0
:1021480060330320FA54BFE7EFF31080012282F3D3
:1021580010883968094C0B6823400B6080F310889D
:10216800EFF3108082F3108839688B6893438B6093
:1021780080F3108820238332DEE7C0465FFEFFFF2E
:10218800F0B557464E464546DE46E0B51E00842368
:10219800C35805000F00140083B0202B00D0A0E026
:1021A800002953D0002A51D0802382685B019A42CB
:1021B80047D08023EA5C012A00D192E00122EA5448
:1021C80000220C33EA50083B2132EA50FFF720FB8B
:1021D8005423EC5202330021EC528023AA68814632
:1021E8008B465B019A4200D17DE080230022EA54AD
:1021F8002A3BEB5A002B16D080242A6880231B0127
:102208009846731C2AD1D3691C42FCD0002F5FD09A
:102218003B780137936256216B5A013B9BB26B5254
:102228006B5A002BEAD14B46002240212800009629
:10223800FFF730FF002800D07CE084232022EA50FA
:1022480005E00369002BB4D1CB07B2D5012003B058
:10225800F0BCBB46B246A946A046F0BD2100D369F2
:1022680019408A461C42D1D1FFF7D2FA4B46C01A10
:1022780086423FD3002E3DD004212A6813681942B4
:10228800BFD04146D3690B42BBD01162EFF3108037
:10229800012282F310882968274C0B6823400B60C1
:1022A80080F31088EFF3108082F3108829688B6818
:1022B80093438B6080F3108820238332AB50043221
:1022C800AB500432AB50524660330320EA54BEE7A9
:1022D8005B461B88DB05DB0D936202239C46E344C7
:1022E80099E70220B3E72B69002B00D07DE7BB46B6
:1022F80000277AE7EFF31080012282F3108829681B
:102308000D4C0B6823400B6080F31088EFF31080AE
:1023180082F3108829688B6893438B6080F3108858
:1023280020238332AB500432AB50002260330320A9
:10233800EA548CE703208AE75FFEFFFF70B50400CC
:1023480082B0002851D08423C358002B4FD0842357
:1023580024220121E2502268200013688B43136075
:10236800FFF76AFD012840D0A36A002B39D1236802
:1023780028495A6808250A4022215A609A688A43DF
:102388009A609A6821392A439A601A680A431A603F
:1023980000228C23E250FFF73BFA226806001168FE
:1023A8000D420ED11268520726D420238422A3504E
:1023B8000432A35000230020083AE366A35402B075
:1023C80070BD8021144B0022009389030300200074
:1023D800FFF760FE00281AD1226812685207E4D578
:1023E8000AE02000FFF7EEFDC1E70120E7E78022C1
:1023F8008354FEF79BFAAAE78021074B002200933B
:1024080020003300C903FFF745FE0028CDD0032084
:10241800D5E7C046FFB7FFFFFFFFFF017047C04683
:102428007047C0467047C0460D488546FFF714FA06
:102438000C480D490D4A002302E0D458C450043317
:10244800C4188C42F9D30A4A0A4C002301E01360ED
:102458000432A242FBD300F011F8FDF743FFFEE778
:1024680000900020000000203C0100209C3800085B
:10247800400100205C120020FEE7000070B5002635
:102488000C4D0D4C641BA410A64209D1002601F086
:10249800FBF80A4D0A4C641BA410A64205D170BD76
:1024A800B300EB5898470136EEE7B300EB5898476E
:1024B8000136F2E794380008943800089438000888
:1024C8009838000803008218934200D170471970A9
:1024D8000133F9E770B505000E00002804D08369C0
:1024E800002B01D100F0A4FAAB69AC68002B02D133
:1024F800280000F09DFA2D4B9C4222D16C68636E37
:10250800DB0705D4A3899B0502D4A06D00F031FB3D
:10251800A3891B0702D52369002B29D12100280094
:1025280000F0E0F8002823D001256D42636EDB0738
:1025380005D4A3899B0502D4A06D00F01BFB2800DD
:1025480070BD1B4B9C4201D1AC68D8E7194B9C422B
:10255800D5D1EC68D3E70136A360002B04DAA26971
:102568009A4216DC0A2914D023685A1C2260197072
:10257800A3683178013B0029EDD1A360002B0FDA65
:10258800280022000A3100F057F80A25431CCDD153
:10259800CAE72200280000F04FF8431CE8D1C3E73F
:1025A8000A2523685A1C22601D70BFE720380008DE
:1025B800403800080038000810B5034B01001868BF
:1025C800FFF788FF10BDC046D80000200EB400B544
:1025D8000B499CB01DAB02900690079104910948E5
:1025E800094904CB0591006802A9019300F03AFC5F
:1025F8000023029A13701CB008BC03B01847C046E9
:10260800FFFFFF7FD80000200802FFFF03000A78C1
:1026180018001A7001310133002AF8D170470200FE
:1026280010B5137814000132002BFAD1CA5CE254B9
:102638000133002AFAD110BDF8B505000E001400C8
:10264800002804D08369002B01D100F0F1F9224B56
:102658009C422ED16C68A369A360A3891B0732D55D
:102668002369002B2FD023682269F7B2981A63696F
:10267800F6B2834205DC2100280000F037F9002873
:1026880027D1A3680130013BA36023685A1C22604C
:102698001F706369834204D0A389DB0707D50A2E1C
:1026A80005D12100280000F021F9002811D13000BF
:1026B800F8BD0A4B9C4201D1AC68CCE7084B9C4260
:1026C800C9D1EC68C7E72100280000F00BF8002802
:1026D800C9D001267642EAE72038000840380008C9
:1026E80000380008374B70B51D6806000C00002D37
:1026F80005D0AB69002B02D1280000F099F9324BC4
:102708009C420FD16C680C23E25E93B211072DD462
:10271800D90611D409230120336037331343A38129
:10272800404270BD294B9C4201D1AC68EBE7284B75
:102738009C42E8D1EC68E6E75B0713D5616B00299A
:1027480008D023004433994202D0300000F080FAC8
:10275800002363632422A3899343A3810023636036
:10276800236923600823A2891343A3812369002BCB
:102778000BD1A0218022A389890092000B409342AB
:1027880003D02100300000F01FFA0C22A35E0120C4
:102798001A0099B2024003420FD00022A260626977
:1027A8005242A261002022698242BAD10A06B8D5F3
:1027B80040221343A3810138B3E7880700D4626934
:1027C800A260EFE7D8000020203800084038000851
:1027D80000380008F7B58B8905000C001A075FD48C
:1027E8004A68002A04DC0A6C002A01DC0020FEBDCD
:1027F800E76A002FFAD0002280212E682A601A008A
:1028080049010A400B4234D0606DA3895B0706D5A5
:102818006368C01A636B002B01D0236CC01A0200D6
:10282800216A00232800E76AB847A189431C06D11A
:102838002B681D2B31D82C4ADA40D3072DD500231D
:10284800636023692360CB0405D5431C02D12B6840
:10285800002B00D16065616B2E600029C6D0230073
:102868004433994202D0280000F0F2F90020606356
:10287800BDE701232800216AB847431CC5D12B684E
:10288800002BC2D01D2B01D0162B01D12E60ADE735
:102898004023A2891343A381A9E740230B43FAE706
:1028A8000F69002FA2D00A680F60D21B0192002284
:1028B8009B0700D14A69A260019B002B00DC95E7C9
:1028C8003A002800019B216AA66AB047002806DC66
:1028D80040230120A28940421343A38187E7019B3B
:1028E8003F181B1A0193E7E7010040200B6970B5F8
:1028F80005000C00002B02D10025280070BD00281F
:1029080004D08369002B01D100F092F8144B9C424B
:102918001BD16C680C22A35E002BEDD0626ED2072F
:1029280004D49B0502D4A06D00F023F928002100EF
:10293800FFF750FF636E0500DB07DED4A3899B0514
:10294800DBD4A06D00F016F9D7E7064B9C4201D105
:10295800AC68DFE7044B9C42DCD1EC68DAE7C046A0
:10296800203800084038000800380008002310B557
:102978000400036043608360818143661900C2815B
:1029880003614361836108225C30FFF79BFD054BBF
:1029980024626362044BA362044BE362044B236327
:1029A80010BDC04695330008BD330008F533000854
:1029B8002134000810B5024900F0BAF810BDC0462D
:1029C800F528000870B568254A1E55430E002900F1
:1029D800743100F087F9041E08D000212A00016034
:1029E80046600C30A0606832FFF76CFD200070BDB7
:1029F80010B5024800F0BDF810BDC04649120020CD
:102A080010B5024800F0B6F810BDC04649120020C3
:102A180010B5024800F0ADF810BDC0464A120020BB
:102A280010B5024800F0A6F810BDC0464A120020B2
:102A380013B50400FFF7ECFFA369002B02D0FFF7E2
:102A4800EFFF13BDA364E3642365134B134A1B68AC
:102A5800A2620193A34201D10123A361200000F0E7
:102A68001FF86060200000F01BF8A060200000F054
:102A780017F800220421E0606068FFF777FF012261
:102A88000921A068FFF772FF02221221E068FFF710
:102A98006DFF0123A361D2E7FC370008BD290008B8
:102AA800F8B50700FFF7A4FF1F4B1E68B369002B9A
:102AB80002D13000FFF7BCFF4836B4687368013BA9
:102AC80004D53368002B22D03668F6E70C22A55EC1
:102AD800002D1AD12000154B5830E360656600F0D0
:102AE80047F8FFF78DFF2000082229002560A56020
:102AF800656025616561A5615C30FFF7E3FC65638E
:102B0800A563A564E5642000F8BD6834D7E704210F
:102B18003800FFF757FF041E3060D5D1FFF770FF6C
:102B28000C233B60EFE7C046FC3700080100FFFFBD
:102B3800F7B5040006000027019148346368A568CA
:102B48000093009B013B009304D52468002CF5D129
:102B58003800FEBDAB89012B08D90E22AB5E0133CC
:102B680004D029003000019B984707436835E8E7FF
:102B7800704770477047000070B50E001D000E23A7
:102B8800C95E140096B0002908DA0C22B35E002250
:102B98002A601B0611D48023DB000FE06A4600F090
:102BA80067FC0028F1DBF02301991B021940054B53
:102BB800C9184B4259412960EDE7402300202360A2
:102BC80016B070BD00E0FFFFF7B502268B8905003F
:102BD8000C00334206D023004733236023610123CE
:102BE8006361F7BD6A4601ABFFF7C6FF00990700AE
:102BF800280000F077F8002808D10C22A35E9A0577
:102C0800EFD4032293431E43A681E4E70F4BAB6244
:102C18008023A28920601343A381009B2061636104
:102C2800019B002B0DD028000E23E15E00F032FC42
:102C3800002806D00322A38993431A0001231343D3
:102C4800A381A0890743A781CBE7C046BD29000817
:102C580070B50500002910D00C1F2368002B00DA7E
:102C6800E418280000F064FC1D4A1368002B05D105
:102C780063601460280000F063FC70BDA34208D9AB
:102C8800216860188342F3D118685B684118216095
:102C9800EEE71A005B68002B01D0A342F9D911684E
:102CA8005018A0420BD120680918501811608342AF
:102CB800E0D118685B68411811605360DAE7A042F8
:102CC80002D90C232B60D5E721686018834203D111
:102CD80018685B684118216063605460CAE7C046A1
:102CE8004C120020F8B50323CD1C9D43083506007F
:102CF8000C2D1FD20C25A9421ED8300000F018FC5C
:102D080025490A681400002C1AD1244F3B68002B6F
:102D180004D12100300000F027FB38602900300082
:102D280000F022FB431C2BD10C233000336000F051
:102D380007FC03E0002DDEDA0C2333600020F8BD29
:102D480023685B1B19D40B2B03D92360E418256077
:102D580003E06368A2420ED10B60300000F0F0FB84
:102D6800200007220B30231D9043C21A9842E6D058
:102D78001B1AA350E3E75360EFE722006468C2E739
:102D88000323C41C9C43A042E1D0211A300000F068
:102D9800EBFA431CDBD1C7E74C120020501200208D
:102DA800F0B58E6885B007000C00039201939E422F
:102DB8003CD890238A89DB001A4234D009692368F9
:102DC80060695B1A029303234343DD0FED18019BEF
:102DD800029801331B186D10AB4200D91D00530532
:102DE80032D529003800FFF77DFF061E09D10C23D4
:102DF8003B6040230120A28940421343A38105B0D0
:102E0800F0BD029A216900F076FBA389144A1A40A2
:102E180080231343A381029B2661F618266065610F
:102E2800019EED1AA560019B9E4200D9019E3200C9
:102E38000399206800F068FBA36800209B1BA3602F
:102E480023689E192660DAE72A00380000F080FB24
:102E5800061EE0D138002169FFF7FAFEC7E7C04631
:102E68007FFBFFFFF0B5A1B003901D008B890F0019
:102E780016001B0611D50B69002B0ED14021FFF758
:102E880031FF38603861002805D10C23039A0138D6
:102E9800136021B0F0BD40237B61002308AC63615F
:102EA800203363761033A376079535002B78002BF3
:102EB80001D0252B47D1AB1B0593B5420CD032006E
:102EC80039000398FFF76CFF431C00D1AEE062693C
:102ED800059B9446634463612B78002B00D1A5E0E1
:102EE800012200235242626004A9543252186E1C17
:102EF8002360E360A3601370A3650522317854480A
:102F080000F0EEFA751C00281FD12268D30604D5FC
:102F1800532304A95B1820211970130704D55323E0
:102F280004A95B182B21197033782A2B16D0350089
:102F380000210A20E3682A786E1C303A092A4ED903
:102F4800002911D117E00135B0E7414B2268C01ABA
:102F58000123834013432E002360CEE7079B191DEE
:102F68001B680791002B01DB0B9304E05B42E360D5
:102F78000223134323602B782E2B0AD16B782A2B3C
:102F880035D1079B02351A1D1B680792002B2BDBD6
:102F98000993304E03223000297800F0A1FA002866
:102FA80006D04023801B83402268013513432360E9
:102FB8002978062228486E1C217600F091FA00280C
:102FC8003CD0264B002B25D10722079B0733934380
:102FD800083307936369049A9B18636165E7434361
:102FE800350001219B18A6E701235B42D0E70023A7
:102FF8000A201A000135636029786E1C30390929C6
:1030080003D9002BC5D00992C3E7424335000123F9
:103018005218F1E707AB00933A002100104B0398D0
:1030280000E000BF0490049B0133D3D1BB890D9805
:103038005B0600D42DE7012040422AE707AB009346
:103048003A002100064B039800F07CF8EAE7C046F6
:1030580060380008663800086A3800080000000078
:10306800A92D0008F7B5150001938A680B690C00B3
:103078000090934200DA130022002B60433212784A
:10308800002A01D001332B6023689B0602D52B68E8
:1030980002332B602268062317001F401A4227D0EC
:1030A800230043331B785A1E93412268920630D47A
:1030B800220001990098089E4332B047431C25D04E
:1030C800062320682A68E16800250340042B03D101
:1030D8008D1AEB43DB171D40A3682269934201DD7B
:1030E8009B1AED180027BD4220D1002010E00137BF
:1030F800E3682A689B1ABB42D2DD220001230199AA
:103108000098089E1932B047431CF0D10120404274
:10311800FEBD3020E1184331087021005A1C4531AA
:103128000978A218433202331170C1E72200012343
:1031380001990098089E1A32B047431CE6D001371F
:10314800D1E70000F0B58BB006920A00433207932E
:10315800059004920A7E0C00109B782A07D8622AF0
:1031680009D8002A00D1C1E0582A00D18CE02600F5
:103178004236327022E0100063381528F7D8FCF781
:1031880097FF16001F00F6FFF6FFF6FFF6FF1F0079
:10319800F6FFF6FFF6FFF6FFA80036009A00F6FFE6
:1031A800F6FFB900F6FF3600F6FFF6FF9E00260090
:1031B8001A684236111D1960136833700123A7E09D
:1031C800086819680A1D05060BD50D681A60002DD8
:1031D80003DA2D23049A6D421370614B0A27039377
:1031E8001BE00D681A604106F1D52DB2EFE70D68B6
:1031F8001968081D18602E0601D50D6803E06D06D4
:10320800FBD50D68ADB2564B082703936F2A00D043
:1032180002372300002243331A706368A360002B2F
:1032280003DB0422216891432160002D02D1049E12
:10323800002B0CD0049E28003900FCF77FFF039B6D
:10324800013E5B5C33702B0005009F42F3D9082FC9
:1032580009D12368DB0706D563682269934202DC3B
:103268003023013E3370049B9B1B2361079B210085
:1032780000930598069B09AAFFF7F4FE431C4CD15E
:10328800012040420BB0F0BD45310A70344A039228
:103298001A68216820CA1A60080616D5CB0702D515
:1032A8002023194321601027002DB2D12023226842
:1032B8009A432260ADE7202209680A43226022006F
:1032C800782145321170274AE1E74806E6D5ADB2C4
:1032D800E4E71A680D68101D4969186013682E061E
:1032E80001D5196002E06D06FBD519800023049E04
:1032F8002361BBE71A68111D1960166800213000A8
:10330800626800F0EDF8002801D0801B60606368F7
:1033180023610023049A1370A8E7236932000699F1
:103328000598079DA847431CAAD023689B0715D476
:10333800099BE0689842A5DA1800A3E72200012358
:1033480006990598079E1932B047431C98D0013555
:10335800E368099A9B1AAB42F0DCE9E70025F7E736
:103368007138000882380008002370B5064D040043
:1033780008002B6000F060F9431C03D12B68002B78
:1033880000D0236070BDC0465412002070B50C00F8
:103398000E25495F00F00CF9002803DB636D1B184C
:1033A800636570BDA389024A1340A381F9E7C0464B
:1033B800FFEFFFFFF8B51F008B8905000C00160012
:1033C800DB0505D50E23C95E0022022300F074F840
:1033D800A389054A28001340A38132000E23E15E29
:1033E8003B0000F01FF8F8BDFFEFFFFF70B50C00C1
:1033F8000E25495F00F060F8A389421C03D1054AF5
:103408001340A38170BD802252011343A3816065DC
:10341800F8E7C046FFEFFFFF10B50E23C95E00F0C6
:1034280015F810BD70B50400080011001A0000233B
:10343800054D2B60FDF728FA431C03D12B68002BA0
:1034480000D0236070BDC04654120020002370B520
:10345800064D040008002B6000F0C6F8431C03D199
:103468002B68002B00D0236070BDC046541200208A
:10347800002370B5064D0400080011002B6000F011
:10348800BBF8431C03D12B68002B00D0236070BD10
:1034980054120020002370B5064D040008002B606C
:1034A80000F0B2F8431C03D12B68002B00D0236036
:1034B80070BDC0465412002070B504000800110009
:1034C8001A000023054D2B6000F0A6F8431C03D119
:1034D8002B68002B00D0236070BDC046541200201A
:1034E800C9B28218904201D10020704703788B42FC
:1034F800FBD00130F6E7002310B59A4200D110BD89
:10350800CC5CC4540133F8E710B5884202D98B1853
:10351800984203D3002307E08B5C8354013AFBD223
:1035280010BDCC5CC45401339A42FAD1F8E70000CC
:1035380010B50248FFF71DFB10BDC0464812002019
:1035480010B50248FFF716FB10BDC0464812002010
:10355800F7B507000E001400002905D11100FFF788
:10356800C1FB05002800FEBD002A03D1FFF770FB50
:103578002500F7E700F030F80190844203D83500C1
:103588004308A342EED321003800FFF7ABFB051E2A
:10359800E8D0019B22009C4200D91A003100280083
:1035A800FFF7A9FF31003800FFF752FBDAE7000008
:1035B80070B50400080011001A000023054D2B60A7
:1035C80000F032F8431C03D12B68002B00D0236095
:1035D80070BDC046541200200B1F1B68181F002B1B
:1035E80001DA0B58C018704758220120014B40429D
:1035F8001A6070475412002058220120014B4042A3
:103608001A607047541200205822024B00201A609A
:103618007047C0465412002058220120014B4042F6
:103628001A6070475412002058220120014B404272
:103638001A60704754120020044A030010680028DA
:1036480002D0C318136070470148FAE758120020E7
:1036580060120020084A43081340C01A0200074BB2
:10366800800818401A40121813099B18044A054884
:1036780013405843000E704755555555333333336F
:103688000F0F0F0F01010101F8B5C046F8BC08BCC7
:103698009E467047F8B5C046F8BC08BC9E467047C1
:1036A8000A3D3D3D3D3D3D3D3D3D3D3D3D3D3D3D75
:1036B8000A426F6F74696E67000000004572726F8E
:1036C800722E20496E76616C696420636F6D6D613E
:1036D8006E642072656365697665643A2030782582
:1036E8006C6C780A44726F7070696E6720636F6DD6
:1036F8006D616E642E0A00004572726F722E204949
:103708006E76616C696420636F6D6D616E64206CA8
:10371800656E6774683A2025750A44726F7070691F
:103728006E6720636F6D6D616E642E0A0000000085
:103738004572726F722E20496E76616C69642072D0
:10374800656C61792073746174653A203078256CF2
:10375800780A44726F7070696E6720636F6D6D616F
:103768006E642E0A00000000000000000000000047
:103778000000000000000000000000000000000041
:10378800000000000000000001000000020000002E
:10379800030000000400000006000000070000000D
:1037A8000800000009000000000000000000000000
:1037B80000000000000000000100000002000000FE
:1037C80003000000040000000402080000101010AC
:1037D8000410101002101010080000000100020070
:1037E8000400060008000A000C0010002000400039
:1037F80080000001DC000020000000000000000044
:1038080000000000000000000000000000000000B0
:1038180000000000000000000000000000000000A0
:103828000000000000000000000000000000000090
:103838000000000000000000000000000000000080
:103848000000000000000000000000000000000070
:103858000000000000000000232D302B2000686CC1
:103868004C0065666745464700303132333435369B
:1038780037383941424344454600303132333435D4
:0C38880036373839616263646566000001
:0438940085010008A2
:043898005D010008C6
:10389C0000000050000000500000005000000050DC
:1038AC0000040050000400500004005000040050BC
:1038BC0000040050000400500000005000040050B0
:1038CC0000040050000000500004005000040050A0
:1038DC000004005000000050000000500004005094
:1038EC000004000000080000001000000080000030
:1038FC000800000010000000200000004000000044
:10390C008000000000010000000100000400000025
:10391C0002000000010000008000000040000000D8
:10392C00200000001000000008000000040000004F
:10393C0011131517080E000204050C0010121416B2
:10394C00090D0F0103060B000B0C0D0E0F101112BD
:10395C0013140102030405060708090A15160100D1
:10396C00040000000024F400DC0000200000000033
:10397C00203800084038000800380008000000001B
:10398C00000000000000000000000000000000002B
:10399C00000000000000000000000000000000001B
:1039AC00000000000000000000000000000000000B
:1039BC0000000000000000000000000000000000FB
:0C39CC00000000000000000000000000EF
:04000005080024319A
:00000001FF
