:020000040800F2
:100000000090002069240008B90B0008BD0B00080F
:1000100000000000000000000000000000000000E0
:10002000000000000000000000000000C10B0008FC
:100030000000000000000000C50B0008C90B00080C
:10004000B924000800000000B9240008B924000801
:10005000B9240008B9240008B9240008D10B00080D
:1000600000000000E50B0008B9240008B9240008CE
:10007000B9240008B9240008B924000800000000D1
:10008000B9240008B9240008B9240008B9240008DC
:10009000B9240008B9240008B9240008B9240008CC
:1000A000B9240008B9240008B9240008B9240008BC
:0800B000B9240008F50B00085B
:1000B80003B47146490840004900095E49008E446E
:1000C80003BC7047002243088B4274D303098B4258
:1000D8005FD3030A8B4244D3030B8B4228D3030C10
:1000E8008B420DD3FF22090212BA030C8B4202D3B2
:1000F8001212090265D0030B8B4219D300E0090ADA
:10010800C30B8B4201D3CB03C01A5241830B8B42E2
:1001180001D38B03C01A5241430B8B4201D34B03CB
:10012800C01A5241030B8B4201D30B03C01A524130
:10013800C30A8B4201D3CB02C01A5241830A8B42B5
:1001480001D38B02C01A5241430A8B4201D34B029E
:10015800C01A5241030A8B4201D30B02C01A524102
:10016800CDD2C3098B4201D3CB01C01A52418309B6
:100178008B4201D38B01C01A524143098B4201D3F0
:100188004B01C01A524103098B4201D30B01C01A1B
:100198005241C3088B4201D3CB00C01A5241830895
:1001A8008B4201D38B00C01A524143088B4201D3C2
:1001B8004B00C01A5241411A00D201465241104622
:1001C8007047FFE701B5002000F006F802BDC04601
:1001D8000029F7D076E770477047C0460448054BBA
:1001E80010B5834203D0044B002B00D0984710BDB4
:1001F80038010020380100200000000006480749A7
:10020800091A8B10C90FC91810B5491003D0044B2F
:10021800002B00D0984710BD38010020380100207D
:100228000000000010B5074C2378002B09D1FFF718
:10023800D5FF054B002B02D0044800E000BF012386
:10024800237010BD3801002000000000F8340008B9
:10025800054B10B5002B03D00449054800E000BF4A
:10026800FFF7CCFF10BDC046000000003C01002095
:10027800F8340008F0B54F464646D646304BC0B570
:1002880099461F002F4B304E98461D00012300242D
:100298009A46306004E0013404370435142C0ED03B
:1002A8005346A3401842F6D1386829880022013401
:1002B80001F096F9043730680435142CF0D1234B3B
:1002C800184228D18021A02000228900C00501F011
:1002D80087F9002240211E4801F082F900250024F8
:1002E800012703E001340435142C0FD03B00A34050
:1002F80032681A42F6D04346595B4B460122585998
:10030800013401F06DF90435142CEFD1E0BCBA4684
:10031800B146A846F0BD8024640304402200802131
:10032800531E9A41A02063425C41D2B28900C005A5
:1003380001F056F940210648E2B201F051F9CDE743
:1003480080000020300000205819002000FC0F0019
:100358000008005000B593B03422002105A802F02F
:10036800DDF910220021684602F0D8F980208000CB
:1003780001F0AAFA022305930C930D9306330F9309
:10038800802380229B0252001093802340210892F0
:1003980000229B0505A809920A910E92119300F07C
:1003A8009FFC002801D072B6FEE7072202230092C4
:1003B800019300220023022168460292039300F071
:1003C8003BFF002801D072B6FEE713B000BDC0465F
:1003D800F0B5DE464E4645465746E0B5A1B018AEE4
:1003E80001F018FBFFF7B6FF14220021300002F0DD
:1003F80095F90222C24D01276B6BA02013436B6352
:100408006B6B914613401593159B04236A6BBD498A
:100418001A436A636A6BC00513401693169B6B6B8D
:1004280000223B436B636B6B00243B401793179B85
:1004380001F0D6F8B44B00221900B448984601F0F0
:10044800CFF800224021B24801F0CAF880220023E8
:100458009200189219933100AC48B46000F0C8FFBC
:10046800C022882312025B03189219933100A8480E
:10047800B46000F0BDFF4B46A02018930133310053
:10048800B460F360C005776000F0B2FFA020A14B14
:1004980031001893C005B460F460776000F0A8FFDD
:1004A8004346310018939948B460F460776000F0CF
:1004B8009FFF4023310018939548B460F46077603B
:1004C80000F096FF00220121072001F02DFA0720F5
:1004D80001F054FAAB6B00223B43AB63AB6B0021DA
:1004E8003B4009201493149B01F01EFA092001F0E7
:1004F80045FA8948894B84600360E1235B024360C5
:100508000823C46004618461C46104624462846233
:10051800436101F02FFF041E01D072B6FEE7C0222E
:100528007F4B002118005201059302F0F7F8A02034
:100538007C4B00221C7004937B4B0221C0051C706D
:10054800984601F04DF8794802F0DEF80624642058
:1005580001F086FAA020013C0221C005E4B201F0B6
:1005680045F8002CF3D1A02000220221C00501F09B
:1005780037F86F4802F0C8F86E4B6F4F0E931B6840
:10058800109708933B78DBB29A466C4B06936C4BFA
:1005980009936C4B0B936C4B0C936C4B0F936C4BFC
:1005A8000D936C4B07936C4B9B466C4B12935346C5
:1005B800119343460A935B4613930A9B049A1B784C
:1005C800127801279A424DD00A9B984643461A78DA
:1005D800059953009B18DB00CA18CB5C06989A460D
:1005E800537851699946936814690293D3680393C1
:1005F80002F024F85A4A00239446312200219346F7
:100608003A0060469A40D8402240074203D020254D
:10061800F018455401315818002A42D130320133BC
:100628003254182BECD10023B3765346012B42D019
:10063800022B48D0032B52D0042B55D00096052B03
:1006480046D04946029B039A079801F0F7FF4346B4
:1006580042461B780133DBB21370049B12781B7877
:100668009A42B3D10E9B1C68109B1D78089BEDB273
:10067800A34202D0119508949FE7119BAB42F9D190
:1006880001F0E8F9374B0100021B9A42F2D90E9BA0
:100698001860002D2FD02A00139801F0CFFF119574
:1006A800E9E75A4601333254182BA9D10023B3760F
:1006B8005346012BBCD14946029B039A09980096E0
:1006C80001F0BCFFC3E749460B9801F0B7FFBEE74E
:1006D8004946029B039A0D9801F0B0FFB7E74946D7
:1006E8000C9801F0ABFFB2E74946029B039A0F98BA
:1006F80001F0A4FFABE7129801F0A0FF08945CE7B3
:1007080000100240FE9F0000FF010000000400509E
:1007180000080050FC9F0000C8190020004C004051
:100728005801002054010020550100201035000810
:1007380048350008681900205C1900205C3500085D
:1007480064350008A8350008D435000814360008B8
:100758005C360008BC3600081837000898370008CF
:100768000004100088130000F0B5DE4657464E46D8
:1007780045460400A020E0B50122022185B0C0054D
:1007880000F02EFF8023DB019C4210D080231B0247
:100798009C4225D0A02000220221C00500F020FFA5
:1007A80005B0F0BCBB46B246A946A046F0BDE24C37
:1007B80080212268636892185B418900DF482260C3
:1007C800636000F007FF2368DD4A03432360137862
:1007D8000133DBB2137001F03DF9DA4B1860D9E749
:1007E80001F038F9D64ED44F33788346DBB2039301
:1007F8007B683D680293D44B1B6898463378182B66
:1008080021D0032233789246302B46D0CF4A117834
:100818004B005B18CE49DB005B18514619700399F1
:100828009D6059700299D9604146196159465961CC
:1008380013780133DBB21370002300223A607B6027
:1008480000233370A6E790232A00DB001A409A425F
:1008580020D12B00BF4A1340154278D14246BE4BE7
:100868001A40022391469A464B469805800D02F09D
:1008780025FE4B460400B948184002F01FFE4B46BF
:10088800DB0254D4A4466044012854DD0523C8463D
:100898009A46BBE704239A46B8E72B00029C2343F9
:1008A80051D00022914602904846009030002032F4
:1008B80092464E4600238146BC46A9491F3A0195F7
:1008C8001DE02700C7403800104204D01700087800
:1008D800013887403E431F00581C1F3F1AD4200090
:1008E800F840104206D017000878009D013887406C
:1008F8003D43009502330131302B00D111E118003E
:100908002038DED550462700C01A87400198D840C5
:100918003843D9E757463F1ABB4627005D46AF40E4
:10092800BB46019F5D46C74038002843D9E7012CE4
:10093800ACDC0128AADCC84500D167E74846FFF7C8
:1009480099FCC84662E70223C1469A468CE7854A65
:1009580091469178012214008C4021001940481ECC
:10096800814189008C464946140049788C40210011
:100978001940481E8141644648464900214304788D
:10098800A4461400604684401C40601E84414846CA
:1009980021431400C07884401C40601E8441E0005C
:1009A800014348461400007984401C40601E84417D
:1009B8002001014348461400407984401C40601ED1
:1009C8008441A002014348461400807984401C40B9
:1009D800601E8441E002014348461400C079844007
:1009E8001C40601E84412003014348461400007ADD
:1009F80084401C40601E8441600301434846140043
:100A0800407A84401C40601E8441A003014348464C
:100A18001400807A844020001840441EA04114002D
:100A28000005014350488C46817A8C4021001940CA
:100A38004C1EA14114000905894641788C402100CB
:100A480019404C1EA1414C464900214304788A466E
:100A5800A146140049468C401C40611E8C415146F9
:100A68000C43A146140081788C40210019404C1E8B
:100A7800A1414C4689000C43A1461400C1788C4022
:100A8800210019404C1EA1414C46C9000C43A14607
:100A9800140001798C40210019404C1EA1414C469C
:100AA80009010C43A146140041798C4021001940EA
:100AB8004C1EA1414C4689020C43A1461400817981
:100AC8008C40210019404C1EA1414C46C9020C43E0
:100AD800A1461400C1798C40210019404C1EA14147
:100AE8004C4609030C43A1461400017A407A8C4015
:100AF8002100824019404C1EA14113404C465A1E09
:100B0800934149039B0321431943184B0B439946CF
:100B18004246634613434A469343994601239A46FD
:100B2800A2E6029B67469B46009B019D9C464B465E
:100B38000294B1461E00EBE7601900200004005043
:100B48005C19002068190020581900205401002061
:100B5800580100207FFBFFFF1F7CF0FF00FC0F0007
:100B680018000020000000200C000020E0830F0087
:100B780000B583B001900122034B01A9034801F09D
:100B880025FB019803B000BDFFFF0000C819002035
:100B980070B5161E07DD0C008D1820780134FFF79C
:100BA800E7FFAC42F9D1300070BDC04672B6FEE72F
:100BB800FEE7C046FEE7C0467047C0467047C046DD
:100BC80010B500F03BFF10BD802010B5C00100F04B
:100BD80017FD8020000200F013FD10BD10B502487B
:100BE80000F016FE10BDC0466C19002010B5024872
:100BF80000F066FF10BDC046C819002001220C4B4A
:100C080000B5196CC02011431964196C83B00A40EF
:100C180080210092009ADA6B49050A43DA63DB6B9C
:100C2800C0000B400193019B00F02CFF03B000BDF6
:100C38000010024030B5040089B01422002102A837
:100C480001F06CFD224B22689A4201D009B030BDF8
:100C58008021204B0903DA6B01200A43DA63DA6B3F
:100C68000A400092009A0122596B114359631221DC
:100C78005B6B0290039113400193A020019B042316
:100C8800C00502A90492069300F0B2FB124D134B63
:100C980080222B6039236B60293BAB60002328003E
:100CA800EB602A616B61AB61EB612B6200F0C2FC07
:100CB80000280AD1002200211D20E567AC6200F05F
:100CC80033FE1D2000F05AFEC0E7FFF76FFFF1E783
:100CD800004C0040001002406C190020080002403F
:100CE800F0B5CE46474680B5040083B0002827D02B
:100CF8000368DA0711D53822C0498868C9680240F4
:100D0800102A00D1CCE0082A00D0CDE0BB4A1268F6
:100D1800920302D56268002A12D09A0732D5382386
:100D2800B64A91680B40D168102B00D10BE1002B1B
:100D380000D00DE113685B0508D5E368002B05D1E9
:100D4800012003B0C0BCB946B046F0BD5168636924
:100D5800AB481B0201400B435360A84AA9491368DA
:100D68000B4021690B4313601368A74A9B045B0F70
:100D7800DA40A6490A60A64B186800F025FE00284C
:100D8800DED123681A076DD45B0745D538239B4A03
:100D980091680B40202B00D1CCE080230020D16B40
:100DA8005B058146194208D1D16B1943D163D26BD7
:100DB80013400193019B012399468027954E7F009C
:100DC80033683B4200D1FFE0A368012B00D1E5E086
:100DD800052B00D1C8E10121884EF26D8A43F265E6
:100DE800F26D03318A43F265002B00D0DAE000F09F
:100DF80031FE022307009846874D05E000F02AFEE1
:100E0800C01BA84200D9EEE04246F36D1A42F5D164
:100E18004B46012B00D163E1E369002B20D0382237
:100E2800764DA9680A40102A00D11DE1022B00D195
:100E38005CE12B68794A802613402B6000F00AFE9B
:100E4800B604040005E000F005FE001B022800D9E6
:100E5800C9E02B683342F6D1EB68714A1340EB6066
:100E680000206EE73822654DA9680A40182A43D049
:100E7800A369002B00D1B8E001222B6E022713438F
:100E88002B6600F0E7FD060005E000F0E3FD801B9F
:100E9800022800D9A7E02B6E1F42F6D0236873E71B
:100EA800C943890700D131E780226368520293421F
:100EB8002BD0A021C9028B4200D1FCE04F4D5949EB
:100EC8002A680A402A602A6857490A402A60002B83
:100ED8001FD100F0BFFD80270600BF0204E000F02C
:100EE800B9FD801B64287ED82B683B42F7D1236864
:100EF8009A0700D446E712E72A6E920700D443E720
:100F0800A269002A00D03FE71AE73C4A11680B4360
:100F1800136000F09FFD80260500384FB60204E0FC
:100F280000F098FD401B64285DD83B683342F7D039
:100F38002368DDE7D36D9B0700D46DE7A368002B1A
:100F480000D069E7FCE60D3B0B40022B00D1BCE06A
:100F5800E3682A4D002B73D02B682A4A8027134058
:100F68002269FF0013432B6080232A685B00134328
:100F78002B6000F06FFD060004E000F06BFD801BA5
:100F8800022830D82B683B42F7D06A6863691C494D
:100F98001B020A4013436B602368F3E61749CA6DC6
:100FA8001343CB6500F056FD144B06009846022704
:100FB800194D04E000F04EFD801BA84213D84346AB
:100FC800DB6D1F42F6D023E733683B43336000F004
:100FD80041FD050033683B4200D0F5E600F03AFDDC
:100FE800401B0228F6D90320ABE601222B6E02270C
:100FF80093432B6600F02EFD06001CE00010024013
:10100800FF80FFFFFFC7FFFF0024F400D800002087
:10101800D40000200070004088130000FFFFFFFE8E
:10102800FCFFFEEFFFFFFEFFFFFFFBFF00F012FDDE
:10103800801B0228D7D82B6E1F42F7D12368A3E65E
:101048002B68504A802713402B6000F003FDFF00F7
:10105800060004E000F0FEFC801B0228C3D82B68C1
:101068003B42F7D123688DE6012B00D168E60322C5
:10107800E868216A02408A4200D061E67022616A0B
:1010880002408A4200D05BE6FE21A26AC901014003
:101098001202914200D053E6F822E16A920302401C
:1010A8008A4200D04CE6236B400F4007C01A431E0B
:1010B8009841C0B245E68021334BC9021868014304
:1010C800196019680A431A6023E713685B0555D449
:1010D800516863692D481B0201400B4353604AE67F
:1010E800294A2B49D36B0B40D36395E62B68294AD1
:1010F800802713402B6000F0ADFCBF04060005E01C
:1011080000F0A8FC801B022800D96CE72B683B4242
:10111800F6D1616A236AEA680B431F491A4E0A40EE
:101128001343E26A1343226B1343A26A1202134366
:10113800EB6080232A685B0413432B608023EA68F2
:101148005B051343EB6000F085FC80250400AD04CB
:1011580005E000F07FFC001B022800D943E7336854
:101168002B42F6D00020ECE50421074BDA6D0A4348
:10117800DA65DA6D03390A43DA6513E7E368002BA9
:10118800A6D1DDE5FFFEFFFF00100240FF80FFFF54
:10119800FFFFFFEFFFFFFFFE8C80C11F3823224AAD
:1011A80010B591680B4205D1136820489B045B0F6A
:1011B800D84010BD91681940082914D09168194089
:1011C800102912D091681940202924D0906818401D
:1011D8001838431E9841164B40421840FA23DB0149
:1011E8009C466044E5E71348E3E7D368D168DB43EE
:1011F800D4684906490F64040131640E9B070DD079
:101208000A48FEF75FFF6043074BD968490F013171
:10121800FEF758FFCDE780200002CAE70548FEF731
:1012280051FF6043F0E7C046001002400024F4007C
:101238000083FFFF00127A00F8B5CE464746050046
:101248000C0080B5002826D00722574E336813407B
:101258008B425ED32B689A070ED55A0705D5E02234
:101268005249D201886802438A60504950488A68C6
:101278000240A86802438A60DB072BD56B684B4A9B
:10128800012B00D17CE0022B07D0002B00D07DE0A1
:101298001268520504D4012037E012689201FAD589
:1012A8000721424EB2688A431343B36000F0D2FB71
:1012B800382398463F4B0700994604E000F0CAFBE4
:1012C800C01B48453BD84346B2681A406B68DB00F0
:1012D8009A42F3D10722344E33681340A34238D8D8
:1012E8002B685B072DD4FFF759FF304B324A9B68B8
:1012F80032491B051B0F9B009B581F221340D840E7
:101308002F4B0860186800F05FFBC0BCB946B046B8
:10131800F8BD336893430B43336000F09BFB07230E
:101328009846244B07009946424633681340A34227
:1013380000D18FE700F08EFBC01B4845F4D903208D
:10134800E3E71A4A1F4993680B40E9680B43936027
:10135800C9E7336893432343336000F07BFB0723DB
:101368009846144B07009946424633681340A342F7
:10137800B6D000F06FFBC01B4845F5D90320C4E781
:101388001268920300D58BE70120BEE7032B05D036
:10139800D26D920700D583E70120B6E7126E920757
:1013A80000D57DE70120B0E7002002400010024090
:1013B800FFF0FFFF88130000CC370008D80000209A
:1013C800D4000020FF8FFFFF064B07499B68074AA0
:1013D8005B045B0F9B005B581F2110680B40D840D3
:1013E8007047C04600100240AC370008D800002003
:1013F800F0B5DE4657464E464546E0B50C688B4686
:10140800002383B0002C68D001229A4094462240E1
:101418009246624614425CD003215A465F00B940A6
:1014280055680322C9432A40561E0091012E5BD9F4
:10143800032A00D0ADE0BA400668009931400A435B
:101448000260C0229202154243D003270F265D494D
:101458001F408C46FF00BE409A0892006244116EFD
:10146800B143A026F605B0420ED0574EB04200D187
:10147800A0E0564EB04200D1A0E0554EB04200D197
:1014880094E00526BE4031438026116651464D4AF8
:101498007603C9431268354200D077E00A40494EC6
:1014A800326072688026B60335426CD10A40454ED8
:1014B80072608422B258AF0362D40A408427414E36
:1014C800F2518022B258ED0356D40A4080213D4D96
:1014D8006A5022000133DA4096D103B0F0BCBB4613
:1014E800B246A946A046F0BD81680E0000990E409C
:1014F8005946C968B1460E00BE40B0464E46414600
:101508000E43866041680E0061468E432909B04645
:101518000E0001210E409E40B446464661460E43E9
:101528004660C1680E0000990E4059468968B04669
:101538000E00BE40B446464661460E43C660022AC7
:1015480000D078E7D90889008C46844461460E6A41
:10155800072119408900884601960F214646B14067
:10156800019E8E435946019646460969B140019E3F
:101578000E4361460E625EE7514611430A00A5E735
:10158800564632439AE75646324390E75646324328
:1015980085E70E00C1683140884659468968B940D8
:1015A8008C46414666463143C16044E70326BE4047
:1015B800314369E70126BE40314365E70226BE4054
:1015C800314361E700180240000400500008005051
:1015D800000C005000690840431E9841C0B2704793
:1015E800002A01D0816170478162FCE742691300DB
:1015F8000B401B0491430B43836170477047C046FF
:101608000B4B10B5DA680400104204D1084B1A6974
:10161800224207D110BDD860FFF7A6F8044B1A691B
:101628002242F7D020001C61FFF7E8FFF2E7C0462E
:1016380000180240F0B5C646040000B5002860D086
:101648000568314B1421E818FEF73CFD830023643C
:1016580002222523E2542B682C4AA66813402B60EB
:10166800E368216933430B4361692A680B43A16925
:101678000B43E1690B43216A0B4313432B60244B53
:1016880014219C4660448700FF20224B2840A36415
:10169800676408389846FEF715FD1F2301220340AA
:1016A800100098408023E064DB019E421FD03F2356
:1016B800454661680B4001393B60686003291BD8C7
:1016C800154916485918013B9A400023890021659D
:1016D8006065A2650B60426000232522012100207D
:1016E800E363A154013AA35480BCB846F0BD00237B
:1016F80063603B6043465860002323656365A365C8
:10170800EAE70120F0E7C046F8FFFDBF0F80FFFFC2
:1017180000820010800802403F8200104009024009
:1017280070B5002832D02523C35C022B29D10E21A5
:101738000268174C13681C268B43416C13600B68B6
:1017480023400B600123116899431160026C114911
:10175800324093404D682B434B60C26C836C5A6097
:10176800036D002B05D01A6822401A60436D826D04
:101778005A6025230122C2540022013BC254002092
:1017880070BD04230022C3632033C2540120F7E74D
:10179800FFFEFFFF00000240252370B5C35C022B4B
:1017A80003D00423C363012070BD0E2102681C26E8
:1017B8001368154C8B43136001231168994311601A
:1017C800416C0A6822400A60026C1049324093401A
:1017D8004D682B434B60C26C836C5A60036D002BC1
:1017E80005D01A6822401A60436D826D5A6025231D
:1017F8000122C2540022013BC254836B002B00D04B
:1018080098470020D0E7C046FFFEFFFF00000240D7
:1018180070B51C2104242B4B06681A68036C3568C4
:101828000B40210099400A4210D02C420ED0336858
:101838009B0602D43368A3433360224B5A68114392
:101848005960036B002B00D0984770BD022421001B
:1018580099400A4217D02C4215D033689B0606D40B
:101868000A223368934333602523093AC254154B3F
:101878005A681143596000222423C254C36A002BBA
:10188800E3D09847E1E708210C009C402242DCD0D5
:101898002942DAD0326806318A43326001221500C3
:1018A8009D402B0007494C6823434B602523C263A6
:1018B800C2540022013BC254436B002BC5D0984749
:1018C800C3E7C0460000024070B5134C134A2368B2
:1018D800002513400343236080239B00984201D0D6
:1018E800280070BD0E4B0F491B685800C0184000F7
:1018F800FEF7E8FB80226369D2000130134202D16F
:10190800EEE7002805D0636901381342F9D10025B4
:10191800E6E70325E4E7C04600700040FFF9FFFF53
:10192800D800002040420F00FF22032310B5140006
:101938000340DB009C4089010A40E4439A400028A8
:101948000BDB0C4BC0219C4680088000604489005A
:10195800435823401343435010BD0F230649034007
:101968008C46083B9B089B006344D9690C40144390
:10197800DC61F1E700E100E000ED00E0002805DBB4
:101988001F22012302409340014A13607047C0465A
:1019980000E100E08022431E5204012093420ED24F
:1019A800C021074A07485360036A09061B021B0A3D
:1019B8000B430362002300209360073313607047D2
:1019C80010E000E000ED00E070B50F4B040019785E
:1019D800002901D1012070BDFA208000FEF772FBBA
:1019E8000A4D01002868FEF76DFBFFF7D3FF0028BA
:1019F800F0D1032CEED8013800222100FFF794FF24
:101A0800034B00201C60E6E7D0000020D80000202F
:101A1800D40000208023084A5B00116810B50B43EE
:101A280003201360FFF7D0FF041E02D0012420001A
:101A380010BDFFF7E3F8FAE700200240034A044B21
:101A480011681B785B1813607047C0465C1A002049
:101A5800D0000020014B18687047C0465C1A00206F
:101A680070B50400FFF7F6FF0500631C02D0044BB5
:101A78001B78E418FFF7EEFF401BA042FAD370BDB5
:101A8800D0000020034A044913680B400343136045
:101A98007047C04600000140FFF9FFFF7047C0468D
:101AA8007047C0467047C04600235E2210B5806A62
:101AB8008352083A8352FFF7F5FF10BD7047C046BE
:101AC800F8B54546DE4657464E460268E0B5D36946
:101AD800AE4D0400116890682B4238D120251D4274
:101AE80006D0802676050D400640354300D015E126
:101AF800E56E012D00D1D8E080256D032B421FD162
:101B080080221A4206D080252D040A40284002432C
:101B180000D00AE140221A4202D00A4200D014E161
:101B28001A0202D54A0000D523E1DB0102D50029BB
:101B380000DA22E1F0BCBB46B246A946A046F8BD91
:101B48004602DDD52000156200F084FCF2E7904ED5
:101B5800904D06400D403543CAD001251D4208D09E
:101B6800CF0506D59027BC461562E7593D43674621
:101B7800E55104252F001F40BC460227A9461F42F5
:101B880000D1C3E0C50716D5902517626759A84646
:101B98004D463D434746E5516546002D0BD004258B
:101BA80015628C35A9466559A846022547462F4334
:101BB8003D004F46E55108271F4208D020250D401B
:101BC800354304D090261762A5593D43A551802579
:101BD8002D012B4207D04E0105D5902620271562EE
:101BE800A5593D43A55190256559002DA2D0202522
:101BF8001D4206D080235B050D4003401D4300D0E5
:101C080097E090264025A15993681D4028230B4052
:101C18001D4300D1B5E0EFF31080012282F3108854
:101C280021685D4D0B682B400B6080F31088EFF343
:101C3800108182F3108822685848936803409360A3
:101C480081F31088E36E012B0AD1EFF3108183F33F
:101C580010881020226813688343136081F310886A
:101C68008C232022E2500023E36663672368203236
:101C78009B681A4265D0EFF31080012383F3108824
:101C880021688B6893438B6080F3108880256059A6
:101C9800002856D0424B8363FFF77EFD002800D111
:101CA80048E76059836B984744E710261E4200D1E5
:101CB80022E70E4200D11FE74023180016629268FF
:101CC800104013426ED080229446A2581068426891
:101CD80092B2002A00D12DE75C218B46615A9142CD
:101CE80000D827E75E27E253202217000068074044
:101CF800B846024200D192E0022323675C33E35ADC
:101D08002000C91A89B2FFF7D9FE13E76546002DEE
:101D180000D150E7C50700D44DE740E7636F002BBB
:101D280000D107E72000984704E7A36F002BF9D1FB
:101D380000E7636F002B00D163E720009847226813
:101D48005FE72000FFF7AEFEF4E6EFF31080012313
:101D580083F3108821680B6893430B6080F3108825
:101D68008823203AE25000232000A367FFF798FE5B
:101D7800E0E6200000F072FBDCE6200000F06CFBDF
:101D8800D8E62000FFF78EFEA551D3E60F08000025
:101D98000100001020010004DFFEFFFFFEFFFFEF3F
:101DA800B11A00085C235E22E15AA35AA25A9BB2D8
:101DB800002A00D1BEE6C91A89B2002900D1B9E6C5
:101DC800EFF3108985F31088226813689846474610
:101DD8002D4B1F40176089F31088EFF3108985F3A6
:101DE80010882268936898464746284B1F4097609A
:101DF80089F310888C232022E250E0666067EFF3B5
:101E0800108085F3108822681368B343136080F349
:101E18001088022320002367FFF750FE8AE6EFF3BD
:101E2800108985F310882068194F016839400160CE
:101E380089F31088EFF3108985F31088206881688A
:101E4800A943816089F31088EFF3108985F310881E
:101E5800206881689943816089F310884C33E25087
:101E68004346E366EFF3108185F310882268136810
:101E7800B343136081F310886346E058FFF750FCC2
:101E88005B46E15A38E7C046DFFEFFFFFEFFFFEF83
:101E9800FFFEFFFF70B504002569A26823682A4386
:101EA80065691968C0692A434C4D024329400A43B1
:101EB8001A605A684A49256A0A40E1680A435A6022
:101EC800A26999682A43474D29400F250A439A6019
:101ED800DA6A616AAA430A43DA62434A934224D01F
:101EE800424A93420CD0424A934228D0414A9342F4
:101EF80025D00120404BA36600236367A36770BD0C
:101F08003E4B5A6D0C231340082B3DD021D8002B93
:101F180015D0042BEDD180231B0298423AD0FFF74D
:101F28003DF9002813D0616A1AE0344B5A6D032337
:101F38001340022B28D0032B0DD0012BEBD080238C
:101F48001B02984245D0FFF73FFA0028EBD100204A
:101F5800D0E70C2BCDD180231B0298421FD018004C
:101F6800274B4900C95AFEF7ADF865686B08C018D9
:101F78002900FEF7A7F80200224B103A9A42B8D877
:101F88002368D8600020B5E780231B02984223D03D
:101F98001D48E5E7FFF702F90028D8D0616A184B19
:101FA8004900C95AFEF78EF8656840006B08C018EA
:101FB8002900FEF787F80200124B103A9A4298D887
:101FC800124B226803400007400F0343D3600020F0
:101FD80090E7FFF7F9F9DFE70B48E0E7F369FFCF90
:101FE800FFCFFFFFFFF4FF1100380140004400401D
:101FF80000480040004C0040010001000010024071
:102008000C380008EFFF00000024F400F0FF000087
:10201800836A30B5DA0706D50168284C4A68224039
:10202800C46A22434A609A0706D50168244C4A6864
:102038002240046B22434A605A0706D50168214CA6
:102048004A682240446B22434A601A0706D5016851
:102058001D4C4A682240846B22434A60DA0606D542
:1020680001681A4C8A682240C46B22438A609A0627
:1020780006D50168164C8A682240046C22438A609F
:102088005A060AD50168134D4A68446C2A4022430F
:102098004A6080225203944209D01B0606D5026882
:1020A8000D4953680B40C16C0B43536030BD4A68FF
:1020B8000A4C2240846C22434A60EEE7FFFFFDFF92
:1020C800FFFFFEFFFFFFFBFFFF7FFFFFFFEFFFFFAD
:1020D800FFDFFFFFFFFFEFFFFFFFF7FFFFFF9FFFA0
:1020E800F8B54F46D64680B51E00089B0C00070081
:1020F8001500016801330BD1CB6923401B1B5A42E1
:102108005341AB42F8D00020C0BCBA46B146F8BD36
:102118000423994680231B019A46CB6923401B1B45
:102128005A425341AB42EED1FFF794FC089B801B07
:1021380098422DD8002B2BD04A4639680B681A4292
:10214800EBD05246CB691342E7D00A62EFF3108016
:10215800012282F3108839681B4C0B6823400B60FE
:1021680080F31088EFF3108082F3108839688B6849
:1021780093438B6080F3108820238732BB5004324E
:10218800BB500432BB50842300220320FA54BBE71F
:10219800EFF31080012282F3108839680A4C0B682B
:1021A80023400B6080F31088EFF3108082F31088CF
:1021B80039688B6893438B6080F3108820238732BB
:1021C800BB500432BB50DEE75FFEFFFFF0B5574659
:1021D8004E464546DE46E0B51F008823C358050035
:1021E8000E00140085B0202B00D098E000294AD0BA
:1021F800002A48D0802382685B019A4204D103698F
:10220800002B01D1CB073ED490230022EA50083B93
:102218002132EA50FFF71EFC5423EC52023300210E
:10222800EC528023AA6882465B0103919A4200D14E
:1022380097E05623EB5A002B18D056238024984653
:102248002A68802399467B1C25D1D3691C42FCD07F
:10225800002E5CD033780136936243464146EB5AF0
:10226800013B9BB26B526B5A002BEAD153460022BA
:10227800402128000097FFF733FF002845D1882325
:102288002022EA5000E0012005B0F0BCBB46B2466F
:10229800A946A046F0BD4946D36919408B46494630
:1022A8001942D5D1FFF7D6FB5346C01A874238D317
:1022B800002F36D004212A6813681942EBD08021F8
:1022C800D36909010B42E6D01162EFF310800122B5
:1022D80082F310882968264C0B6823400B6080F332
:1022E8001088EFF3108082F3108829688B68934375
:1022F8008B6080F3108820238732AB500432AB50B8
:102308000432AB505A466433EA540320BCE70399BD
:102318000B88DB05DB0D93628B1C03939DE7022082
:10232800B2E7EFF31080012282F310882968104C7D
:102338000B6823400B6080F31088EFF3108082F362
:10234800108829688B6893438B6080F3108820235A
:102358008732AB500432AB50002264330320EA5476
:1023680092E72B69002B00D063E70396002660E70D
:102378005FFEFFFF70B5040082B0002852D08823AA
:10238800C358002B50D0882324220121E250226810
:10239800200013688B431360FFF77CFD012841D0B0
:1023A800A36A002B3AD1236828495A6808250A40AD
:1023B80022215A609A688A439A609A6821392A4386
:1023C8009A601A680A431A6000229023E250FFF7C5
:1023D80041FB2268060011680D420FD112685207AE
:1023E80027D420238822A3500432A350002300209E
:1023F800083AE3662367A35402B070BD8021144BEA
:1024080000220093890303002000FFF769FE0028DB
:102418001AD1226812685207E3D50AE02000FFF7B4
:10242800F7FDC0E70120E7E784228354FEF702FCAA
:10243800A9E78021064B0022009320003300C9033E
:10244800FFF74EFE0028CCD00320D5E7FFB7FFFFEB
:10245800FFFFFF017047C0467047C0467047C0463F
:102468000D488546FFF71AFB0C480D490D4A002315
:1024780002E0D458C4500433C4188C42F9D30A4A31
:102488000A4C002301E013600432A242FBD300F09F
:102498004DF9FDF79DFFFEE70090002000000020A9
:1024A800380100206038000838010020B01B0020E7
:1024B800FEE70000002310B504000360436083605A
:1024C80081814366C28103614361836119000822E7
:1024D8005C3000F023F90B4B246263620A4BA36261
:1024E8000A4BE3620A4B23630A4B9C4205D00A4B12
:1024F8009C4202D0094B9C4203D12000583000F086
:1025080039F910BDF52F00081D30000855300008B6
:1025180081300008601A0020C81A0020301B0020F3
:1025280010B5034A0349044800F06CF810BDC046D2
:10253800DC0000207D2F0008EC00002041680B4BD8
:1025480010B50400994201D000F014FDA168084BB1
:10255800994202D0200000F00DFDE168054B994238
:1025680002D0200000F006FD10BDC046601A002011
:10257800C81A0020301B002010B5094B094A042155
:102588001A6009480022FFF795FF01220921074830
:10259800FFF790FF022212210548FFF78BFF10BDBD
:1025A800981B002029250008601A0020C81A00205E
:1025B800301B002010B5024800F0DDF810BDC04601
:1025C8009D1B002010B5024800F0D6F810BDC0468B
:1025D8009D1B002010B50400FFF7ECFF236A002BB9
:1025E80002D0FFF7EFFF10BD044B2362044B1B68BA
:1025F800002BF6D1FFF7C0FFF3E7C04645250008DA
:10260800981B0020F7B51400002600900191A568DA
:102618006768013F04D52468002CF8D13000FEBD5E
:10262800AB89012B08D90E22AB5E013304D02900F7
:102638000098019B984706436835EAE70FB407B549
:10264800054904AB086804CB8168019300F0BCF825
:1026580003B008BC04B01847E8000020036A70B54E
:1026680005000E008468002B01D1FFF7B3FF636EED
:10267800DB0705D4A3899B0502D4A06D00F07BF885
:10268800A3891B0702D52369002B1AD12100280032
:1026980000F03AFD002814D001256D42636EDB0777
:1026A80005D4A3899B0502D4A06D00F065F8280025
:1026B80070BD0136A360002B14DB23685A1C22600E
:1026C8001970A3683178013B0029F2D1A360002B6F
:1026D80014DA220028000A3100F0D4FC0130DBD0E3
:1026E8000A25DBE7A2699A4201DC0A29E5D1220022
:1026F800280000F0C7FC0130E3D1CDE723685A1C5D
:1027080022600A221A70EBE710B5034B0100186823
:10271800FFF7A4FF10BDC046E800002003008218A0
:10272800934200D1704719700133F9E770B500265C
:102738000C4C0D4D641BA410A64209D1002600F0D4
:10274800D7FE0A4C0A4D641BA410A64205D170BDE1
:10275800B300EB5898470136EEE7B300EB589847BB
:102768000136F2E758380008583800085C38000885
:1027780058380008704770477047936810B5013B98
:102788009360002B04DA9469A34207DB0A2905D079
:102798001368581C10601970080010BD00F072FC16
:1027A8000100F9E7F8B506000F001400D518AC428F
:1027B80001D1002007E021783A003000FFF7DDFF63
:1027C8000134431CF3D1F8BDF0B5A1B00F001500DA
:1027D8001E000390002804D0036A002B01D1FFF7E4
:1027E800F9FE7B6EDB0705D4BB899B0502D4B86D67
:1027F800FFF7C1FFBB891B0702D53B69002B13D12B
:102808003900039800F080FC00280DD07B6EDB07B0
:1028180003D50120404221B0F0BDBB899B05F8D407
:10282800B86DFFF7A9FFF4E7002308AC6361203314
:1028380063761033A37607962E003378002B01D0E9
:10284800252B48D1731B0593AE420BD02A003900C3
:102858000398FFF7A7FF013000D1AEE06369059A3E
:102868009B1863613378002B00D1A6E00122002376
:102878005242626004A954325218751C2360E36006
:10288800A3601370A365594B052218002978059396
:1028980000F088FD6E1C00281FD12268D30604D5DD
:1028A800532304A95B1820211970130704D5532357
:1028B80004A95B182B2119702B782A2B16D02E000F
:1028C80000210A20E3683278751C303A092A50D969
:1028D800002911D117E00136AFE7059B2268C01A1D
:1028E80001238340134335002360CCE7079B191D60
:1028F8001B680791002B01DB0B9304E05B42E3604C
:1029080002231343236033782E2B0CD173782A2BA0
:1029180034D1079B02361A1D1B680792002B01DA77
:1029280001235B420993324D03222800317800F0DD
:1029380039FD002806D04023401B83402268013619
:1029480013432360317806222A48751C217600F04B
:1029580029FD002840D0284B002B22D10722079BB5
:1029680007339343083307936369049A9B18636199
:1029780062E743432E0001219B18A4E700230A20A5
:102988001900013663603278751C303A092A03D978
:10299800002BC8D00991C6E741432E0001238918AE
:1029A800F1E707AA009221003A00144B039800E0CF
:1029B80000BF0490049B0133D6D17B6EDB0705D49E
:1029C800BB899B0502D4B86DFFF7D6FEBB895B06B1
:1029D80000D51EE70D981EE707AA009221003A00CD
:1029E800064B039800F01EF9E3E7C04624380008B8
:1029F8002A3800082E38000800000000AD2700081B
:102A080070B50F4E0D0031680400002902D100F0A6
:102A1800A3FC30602900200000F09EFC431C03D179
:102A280001256D42280070BD0323C51C9D43A842A3
:102A3800F8D0291A200000F08FFC0130F2D1EFE71E
:102A4800A01B0020F7B50322CB1C934308330500D5
:102A58001F000C2B34D20C27B94233D8280000F0C1
:102A6800B5FA374E33681C00002C2FD139002800E6
:102A7800FFF7C6FF0400431C5FD134680094009B35
:102A8800002B4AD1002C52D023682800E318009963
:102A9800019300F061FC019B834248D12368280020
:102AA800FF1A3900FFF7ACFF013040D02368DB196B
:102AB800236033685A68002A33D1009B336019E0D9
:102AC800002BC9DA0C232B600020FEBD2168C91B2E
:102AD80020D40B290AD9E2192760A34204D1326015
:102AE80063681160536005E05A60F9E76268A342C1
:102AF8000ED13260280000F071FA200007220B3056
:102B0800231D9043C21A9842DFD01B1AA350DCE75A
:102B18005A60EFE723006468A6E7009C63680093A7
:102B2800ADE71A005B68A342FBD10023DAE70C2368
:102B380028002B6000F052FAC6E70760DAE7C046C3
:102B4800A41B0020F7B5160001938A680B690C00D6
:102B58000090934200DA1300220033604332127867
:102B6800002A01D00133336023689B0602D53368FD
:102B7800023333602268062315001D401A4227D00D
:102B8800230043331B785A1E93412268920630D49F
:102B9800220001990098089D4332A847013025D0AA
:102BA8000622236800251340042B05D13368E56805
:102BB800ED1AEB43DB171D40A3682269934201DD40
:102BC8009B1AED180026B54220D1002010E00135EF
:102BD800E36832689B1AAB42D2DD220001230199D7
:102BE8000098089F1932B8470130F0D101204042BF
:102BF800FEBD3020E1184331087021005A1C4531D0
:102C08000978A218433202331170C1E72200012368
:102C180001990098089F1A32B8470130E6D001366A
:102C2800D1E70000F0B58BB006920A004332079353
:102C3800059004920A7E0C00109B782A09D8622A13
:102C48000BD8002A00D1C8E081490391582A00D145
:102C58009CE0250042352A7022E0100063381528D0
:102C6800F7D8FDF725FA16001F00F6FFF6FFF6FF66
:102C7800F6FF1F00F6FFF6FFF6FFF6FFAD004F0068
:102C88008C00F6FFF6FFBE00F6FF4F00F6FFF6FFDA
:102C9800900025001A684235111D196013682B70C1
:102CA8000123ACE018680968021D0D061FD50668E7
:102CB8001A60674A0A2761680392002E35DA2300F2
:102CC8002D2043331870A160002916DA0A277642AE
:102CD8000392049D30003900FDF77AFA039B013D09
:102CE8005B5C2B70330006009F42F3D92AE006682C
:102CF8001A604906DDD536B2DBE7042123688B4329
:102D08002360E3E70868196840C9050602D440064D
:102D180000D5B6B219604E4B0A2703936F2A00D12B
:102D2800023F2300002243331A706368A360002B1C
:102D3800CFDB042122688A432260002EC9D1049D7A
:102D4800002BC6D1082F09D12368DB0706D5626896
:102D580023699A4202DC3023013D2B70049B5B1BE4
:102D68002361079B210000930598069B09AAFFF79A
:102D7800E9FE013048D1012040420BB0F0BD2022CD
:102D880009680A43226078223249039121004531BB
:102D98000A701968226840C9100602D4500600D586
:102DA800B6B21960D30702D5202313432360002E3F
:102DB80001D01027B5E72022236893432360F8E762
:102DC8001A680D68101D4969186013682E0601D528
:102DD800196002E06D06FBD519800023049D23616C
:102DE800BFE71A68111D196015680021280062687C
:102DF80000F0D8FA002801D0401B606063682361A6
:102E08000023049A1370ACE72A00236906990598F1
:102E1800079DA8470130AED023689B0715D4099BAE
:102E2800E0689842A9DA1800A7E72200012306996A
:102E38000598079E1932B04701309CD00135E368E8
:102E4800099A9B1AAB42F0DCE9E70025F7E7C04690
:102E58003538000846380008F7B50C228B5E0500A7
:102E68000C001A0761D44A68002A02DC0A6C002A9E
:102E780042DDE76A002F3FD0002280202E682A60BA
:102E88001A004001216A0240034227D0626DA389DB
:102E98005B0706D56368D21A636B002B01D0236CDD
:102EA800D21A00232800E76A216AB847431C25D0B4
:102EB8000023636023692360A389DB0400D5606570
:102EC800616B2E60002917D023004433994202D049
:102ED800280000F073FA002363630DE00123280043
:102EE800B8470200431CD2D12B68002BCFD01D2B32
:102EF80001D0162B31D12E60002035E02B680C2133
:102F0800625E002B08D01D2B01D0162B0AD100239E
:102F1800636023692360D3E7636023692360D20475
:102F2800CDD4CDE7402313431BE00E69002EE3D038
:102F38000F680E60BA1B019200229B0700D14A69F4
:102F4800A260019B002BD7DDA36A32001F00280076
:102F5800019B216AB847002807DC4023A289134354
:102F68001BB20120A3814042FEBD019B36181B1AEB
:102F78000193E6E70B6970B505000C00002B02D140
:102F88000025280070BD002804D0036A002B01D159
:102F9800FFF720FB0C22A35E002BF1D0626ED20754
:102FA80004D49B0502D4A06DFFF7E5FB280021009F
:102FB800FFF752FF636E0500DB07E2D4A3899B0588
:102FC800DFD4A06DFFF7D8FBDBE7000010B502489F
:102FD800FFF7D1FB10BDC0469C1B002010B502486E
:102FE800FFF7CAFB10BDC0469C1B002070B50C0043
:102FF8000E25495F00F09CF9002803DB636D1B1860
:10300800636570BDA389024A1340A381F9E7C046EE
:10301800FFEFFFFFF8B51F008B8905000C001600B5
:10302800DB0505D50E23C95E0022022300F06CF9EA
:10303800A389054A28001340A38132000E23E15ECC
:103048003B0000F09BF9F8BDFFEFFFFF70B50C00E7
:103058000E25495F00F058F9A389421C03D1054A9F
:103068001340A38170BD802252011343A381606580
:10307800F8E7C046FFEFFFFF10B50E23C95E00F06A
:103088000DF910BDF8B506000D001400002804D095
:10309800036A002B01D1FFF79DFAA369A360A389F6
:1030A8001B0702D52369002B09D12100300000F04D
:1030B8002BF8002803D001256D422800F8BD2369AC
:1030C8002068EFB2C01A6369EDB2834205DC2100C3
:1030D8003000FFF74FFF0028EDD1A3680130013B16
:1030E800A36023685A1C22601F706369834204D05E
:1030F800A389DB07E1D50A2DDFD121003000FFF7D6
:1031080039FF0028D9D0D6E72D4B70B505001868CF
:103118000C00002804D0036A002B01D1FFF75AFAEB
:103128000C23E25E130723D4D30607D409232B60AC
:10313800402301201343A38140423AE0520713D5AC
:10314800616B002908D023004433994202D028003B
:1031580000F034F9002363632422A3899343A381F5
:1031680000236360236923600823A2891343A38192
:103178002369002B0BD1A0218022A389890092000A
:103188000B40934203D02100280000F045F80C239F
:10319800E25E012113000B400A420BD00023A3601A
:1031A80063695B42A36100202369834201D113064E
:1031B800BED470BD910700D46369A360F3E7C0462D
:1031C800E800002070B50E001D000E23C95E140033
:1031D80096B000290CDAB2898023110019401A42EE
:1031E80014D18023DB0000202960236016B070BD55
:1031F8006A4600F065F80028EDDBF02301991B0210
:103208001940044BC9184B425941EAE700214023B1
:10321800E9E7C04600E0FFFFF0B502268B8905000C
:103228000C0085B0334207D0230047332360236165
:103238000123636105B0F0BD03AB02AAFFF7C2FF2B
:10324800029F019039002800FFF7FCFB002808D1F5
:103258000C22A35E9A05EDD4032293431E43A68154
:10326800E2E78023A28920601343A381039B2061A6
:103278006761002B0CD028000E23E15E00F032F8C5
:10328800002805D00323A2899A43023B1343A38154
:10329800A389019A1343A381CCE70000002370B5EA
:1032A800064D040008002B6000F0D2F8431C03D13F
:1032B8002B68002B00D0236070BDC046A81B0020DF
:1032C800002370B5064D0400080011002B6000F0C3
:1032D800C7F8431C03D12B68002B00D0236070BDB6
:1032E800A81B0020002370B5064D040008002B60C1
:1032F80000F0BEF8431C03D12B68002B00D02360DC
:1033080070BDC046A81B002070B50400080011005D
:103318001A000023054D2B6000F0B2F8431C03D1BE
:103328002B68002B00D0236070BDC046A81B00206E
:1033380070B50400080011001A000023054D2B6029
:1033480000F0A6F8431C03D12B68002B00D02360A3
:1033580070BDC046A81B0020002370B5064D0400B0
:1033680008002B6000F09CF8431C03D12B68002B4D
:1033780000D0236070BDC046A81B002070B50400B3
:10338800080011001A000023054D2B60FDF700FC12
:10339800431C03D12B68002B00D0236070BDC046AE
:1033A800A81B0020C9B28218904201D100207047A2
:1033B80003788B42FBD00130F6E7000070B50500BA
:1033C8000C1E10D0043C2368002B00DAE4182800F7
:1033D800FFF7FCFD1D4A1368002B05D163601460DC
:1033E8002800FFF7FBFD70BDA34208D9206821180B
:1033F8008B42F3D119685B6809182160EEE71A005F
:103408005B68002B01D0A342F9D911685018A0427B
:103418000BD120680918501811608342E0D1186850
:103428005B68411811605360DAE7A04202D90C23A7
:103438002B60D5E7206821188B4203D119685B6897
:103448000918216063605460CAE7C046A41B0020C5
:1034580058220120014B40421A607047A81B0020E7
:1034680058220120014B40421A607047A81B0020D7
:103478005822024B00201A607047C046A81B002043
:1034880058220120014B40421A607047A81B0020B7
:1034980058220120014B40421A607047A81B0020A7
:1034A800044A03001068002802D0C318136070474C
:1034B8000148FAE7AC1B0020B01B0020094A43086A
:1034C8001340C01A0200084B800818401A4012180E
:1034D80013099B18054A13401802C0180304C018A2
:1034E800000E704755555555333333330F0F0F0FB3
:1034F800F8B5C046F8BC08BC9E467047F8B5C0464B
:08350800F8BC08BC9E467047A8
:103510000A3D3D3D3D3D3D3D3D3D3D3D3D3D3D3D0E
:103520000A426F6F74696E672C205343414E3230EC
:1035300030302D32302046572076657273696F6EB9
:1035400020312E33000000004C6F67206C657665DB
:103550006C3A20444542554700000000256C752018
:103560002D200000494E464F202D204F4B202D206E
:1035700025752062697420636F6D6D616E64203AF9
:103580002030782530386C78202530386C782E2023
:103590004368616E6E656C207374617465203D3E96
:1035A0002025730A00000000494E464F202D204977
:1035B00047202D20257520626974204E554C4C20E3
:1035C000636F6D6D616E642C2069676E6F726564E8
:1035D0000A0000004552524F52202D204D65737352
:1035E000616765206F6620696E76616C6964206C26
:1035F000656E677468202D202575206269742063CC
:103600006F6D6D616E642C2064726F7070696E678F
:103610002E0A00004552524F52202D20496E7661ED
:103620006C696420636F6D6D616E64202D2025755B
:103630002062697420636F6D6D616E64203A203082
:10364000782530386C78202530386C782C206472DE
:103650006F7070696E672E0A000000004552524F6D
:1036600052202D20496E76616C69642072656C6110
:1036700079207374617465202D202575206269742A
:1036800020636F6D6D616E64203A2030782530388C
:103690006C78202530386C782E2052656C6179204A
:1036A00073746174652077616E7465643A20257364
:1036B0002C2064726F7070696E670A004552524F19
:1036C00052202D20556E6B6E6F776E206572726F73
:1036D00072202D2025752062697420636F6D6D61E5
:1036E0006E64203A2030782530386C7820253038C8
:1036F0006C782E2052656C6179207374617465203A
:1037000077616E7465643A2025732C2064726F7043
:1037100070696E670A000000256C75202D205741E6
:10372000524E494E47202D2049444C452054494D86
:10373000454F5554206465746563746564207769EA
:10374000746820257520636C6F636B7320726563EA
:1037500065697665642E2054686973206D696768B1
:10376000742070726F766F6B652070726F626C651B
:103770006D732C20627574206974206D61792061ED
:103780006C736F20626520612066616C73652061D7
:103790006C6572742E0A0000256C75202D2044453E
:1037A000425547202D2049646C650A000000000046
:1037B0000000000000000000000000000100000008
:1037C00002000000030000000400000000000000F0
:1037D00000000000000000000000000000000000E9
:1037E00000000000000000000000000001000000D8
:1037F00002000000030000000400000006000000BA
:10380000070000000800000009000000010002009D
:103810000400060008000A000C0010002000400010
:1038200080000001232D302B2000686C4C00656661
:103830006745464700303132333435363738394101
:103840004243444546003031323334353637383917
:0838500061626364656600001B
:043858005902000809
:04385C002D02000831
:1038600010121416090D0F0103060B001113151782
:10387000080E000204050C000B0C0D0E0F101112A7
:1038800013140102030405060708090A1516171880
:10389000000400000008000000100000008000008C
:1038A00008000000100000002000000040000000A0
:1038B0008000000000010000000100000400000082
:1038C0000200000001000000800000004000000035
:1038D00020000000100000000800000004000000AC
:1038E0000000005000000050000000500000005098
:1038F0000004005000040050000400500004005078
:10390000000400500004005000000050000400506B
:10391000000400500004005000000050000000505F
:103920000000005000000050000000500000005057
:1039300001000000040000000024F400000000006A
:1039400003000000601A0020EC00002000000000CE
:10395000601A0020C81A0020301B00200000000060
:103960000000000000000000000000000000000057
:103970000000000000000000000000000000000047
:103980000000000000000000000000000000000037
:0839900000000000000000002F
:040000050800246962
:00000001FF
