:020000040800F2
:1000000000900020F52400088D09000891090008DF
:1000100000000000000000000000000000000000E0
:10002000000000000000000000000000950900082A
:100030000000000000000000990900089D09000868
:10004000452500080000000045250008452500085A
:10005000452500084525000845250008A509000894
:1000600000000000B90900084525000845250008E2
:10007000452500084525000845250008000000002A
:1000800045250008452500084525000845250008A8
:100090004525000845250008452500084525000898
:1000A0004525000845250008452500084525000888
:0800B00045250008C9090008FC
:1000B80003B47146490840004900095E49008E446E
:1000C80003BC7047002243088B4274D303098B4258
:1000D8005FD3030A8B4244D3030B8B4228D3030C10
:1000E8008B420DD3FF22090212BA030C8B4202D3B2
:1000F8001212090265D0030B8B4219D300E0090ADA
:10010800C30B8B4201D3CB03C01A5241830B8B42E2
:1001180001D38B03C01A5241430B8B4201D34B03CB
:10012800C01A5241030B8B4201D30B03C01A524130
:10013800C30A8B4201D3CB02C01A5241830A8B42B5
:1001480001D38B02C01A5241430A8B4201D34B029E
:10015800C01A5241030A8B4201D30B02C01A524102
:10016800CDD2C3098B4201D3CB01C01A52418309B6
:100178008B4201D38B01C01A524143098B4201D3F0
:100188004B01C01A524103098B4201D30B01C01A1B
:100198005241C3088B4201D3CB00C01A5241830895
:1001A8008B4201D38B00C01A524143088B4201D3C2
:1001B8004B00C01A5241411A00D201465241104622
:1001C8007047FFE701B5002000F006F802BDC04601
:1001D8000029F7D076E770477047C0460448054BBA
:1001E80010B5834203D0044B002B00D0984710BDB4
:1001F80038010020380100200000000006480749A7
:10020800091A8B10C90FC91810B5491003D0044B2F
:10021800002B00D0984710BD38010020380100207D
:100228000000000010B5074C2378002B09D1FFF718
:10023800D5FF054B002B02D0044800E000BF012386
:10024800237010BD3801002000000000AC36000803
:10025800054B10B5002B03D00449054800E000BF4A
:10026800FFF7CCFF10BDC046000000003C01002095
:10027800AC360008F0B54F464646D6462D4BC0B5BD
:10028800984618602C4B002499461E002B4B0127DA
:100298009A461D0004E0013404360435152C0FD0AD
:1002A8003B00A3401842F6D130682988002201F0AB
:1002B80081F843460134186804360435152CEFD10B
:1002C8001F4B184222D18021A02000228900C0059E
:1002D80001F070F8002240211A4801F06BF88025DF
:1002E80000246D0343461B682B4204D1E0BCBA4688
:1002F800B146A846F0BD5346195B4B460122185932
:1003080001F058F8502CF1D00434EBE70124220016
:10031800000D82438021A0208900C00501F04AF821
:1003280043461A684021120D0648224001F042F85F
:10033800D5E7C0463C110020800000203000002096
:1003480000FC0F000008005000B593B034220021D3
:1003580005A802F046FA10220021684602F041FA88
:100368008020800001F002FA022305930C930D937C
:1003780006330F93802380229B0252001093802320
:100388004021089200229B0505A809920A910E9225
:10039800119300F08FFB002801D072B6FEE7072208
:1003A8000223009201930022002302216846029250
:1003B800039300F02BFE002801D072B6FEE713B0BD
:1003C80000BDC046F0B5D64646464F46C0B50227E2
:1003D8008AB0694D01F070FAFFF7B6FF14220021C8
:1003E80004A802F0FEF96B6B01263B436B636B6B51
:1003F800A0203B400193019B04236A6B5F491A4389
:100408006A636A6BC00513400293029B6B6B002200
:1004180033436B636B6B002433400393039B00F0FF
:10042800C9FF574B002219005648984600F0C2FFF2
:1004380000224021544800F0BDFF80220023920092
:10044800504804A904920593069400F0BBFEC0220C
:10045800882312025B034C4804A90492059306946E
:1004680000F0B0FEA020032304A9C0050596079359
:100478000497069400F0A6FEA020444B04A9C005EA
:10048800049305960694079400F09CFE43463D4865
:1004980004A9049305960694079400F093FE40235C
:1004A800394804A9049305960694079400F08AFE37
:1004B80000220121072001F089F9072001F0B0F995
:1004C800AB6B00223343AB63AB6B00211E400920AA
:1004D8000496049B01F07AF9092001F0A1F92C484F
:1004E8002C4B84600360E1235B0243600823C460F3
:1004F800046143618461C46104624462846201F0FE
:100508007FFF002801D072B6FEE7A020002202215A
:10051800C00500F04FFF204802F04CF90624642083
:1005280001F0F0F9A020013C0221C005E4B200F07E
:1005380047FF002CF3D1A02001220221C00500F0C2
:1005480039FF164B00249A46154B0025994600237F
:100558009846144F01F0D0F9060001F0CDF93B6838
:10056800C31A012BF6D9534642461A704B463E60D1
:100578001C605D60EEE7C04600100240FE9F000070
:10058800FF0100000004005000080050FC9F00001C
:10059800B0110020004C0040C43600084011002073
:1005A8004811002050110020F0B5DE4657464E464F
:1005B80045468023E0B5DB0183B098420AD080230A
:1005C8001B0298421FD003B0F0BCBB46B246A946F6
:1005D800A046F0BDC94C802122686368A02092180B
:1005E8005B418900C0052260636000F0DDFE23687E
:1005F800C34A0343236013780133137001F07CF975
:10060800C04B1860DFE7A0200221C00500F0D8FE2B
:100618000023BD4D2B70BD4B98461C68B84B1A780B
:100628000093182A4BD0302A00D033E1B34B1A6814
:100638000193002A00D043E1A005800D03F018F8CB
:100648008146B348204003F013F8E3022AD4484413
:1006580001282CDDAF4B22001C00AF49180001F027
:100668006FFF2100280002F0AFF800220023019953
:100678000A604B600023009A13702B78002BA2D0DD
:100688004022A64E3168CB691A42FCD0A44C2900FE
:10069800200002F0AEF8021B2100300092B201F0F7
:1006A80051F990E74B46012BD4DC0128D2DC4346B4
:1006B8001B689C42D9D02000FFF7DCFDD5E78F4BA3
:1006C800902101930CCB1000C9000840884200D04B
:1006D800ECE0130093490B400A4200D10BE10122E0
:1006E800160091481700817A8E40310019404E1E3D
:1006F800B1410E0541788F40390019404F1EB9416C
:100708001700490031430678B7403E001E40771E67
:10071800BE41170031438678B7403E001E40771E21
:10072800BE411700B6003143C678B7403E001E40B0
:10073800771EBE411700F60031430679B7403E00E8
:100748001E40771EBE411700360131434679B74037
:100758003E001E40771EBE411700B602314386791F
:10076800B7403E001E40771EBE411700F6023143D7
:10077800C679B7403E001E40771EBE4117003603BB
:100788003143067A407AB7403E001E40771EBE418C
:10079800760331431600864030001840461EB041AB
:1007A800170080030143614808436149C0430E783C
:1007B800B7403E001E4037007E1EB7413E0026432C
:1007C800B44616004C781700A64034001C40661E3C
:1007D800B441664664002643B44616008C78A640A9
:1007E80034001C40661EB4416646A4002643B44645
:1007F8001600CC78A64034001C40661EB4416646FC
:10080800E4002643B44616000C79A64034001C4088
:10081800661EB441664624012643B44616004C7948
:10082800A64034001C40661EB4416646A402264316
:10083800B44616008C79A64034001C40661EB441AC
:100848006646E4022643B4461600CC79A640340036
:100858001C40661EB441664624032643B44616006F
:100868000C7AA64034001C40661EB44166036446F8
:1008780026434C7A897AA7403C008A401C40671E70
:10088800BC4113405A1E9341A40334431B051C4327
:100898000440D1E61F4F2749380001F051FE3900C6
:1008A800280001F091FF154B0193C5E6194822492C
:1008B800060001F045FE3100280001F085FFBBE687
:1008C80016239A46153B0026002099461B498A4460
:1008D8004F460B780131013B5B009F4017403E4378
:1008E8004F4601339F403B00134018435145EFD119
:1008F8000443B443A0E6124804409DE64811002092
:100908004011002050110020240900203C11002033
:1009180000FC0F00F410002054370008B01100202C
:10092800540100207FFBFFFF0C000020E0830F0034
:10093800000000201C370008E036000818000020DE
:100948001F7CF0FF00B583B001900122034B01A981
:10095800034801F081FC019803B000BDFFFF0000CF
:10096800B011002070B5161E07DD0C008D18207818
:100978000134FFF7E7FFAC42F9D1300070BDC04643
:1009880072B6FEE7FEE7C046FEE7C0467047C046BF
:100998007047C04610B500F0A3FF10BD802010B509
:1009A800C00100F017FD8020000200F013FD10BD0B
:1009B80010B5024800F07EFE10BDC046541100205C
:1009C80010B5024801F0C2F810BDC046B0110020B1
:1009D80001220C4B00B5196CC02011431964196C25
:1009E80083B00A4080210092009ADA6B49050A43D5
:1009F800DA63DB6BC0000B400193019B00F094FFAE
:100A080003B000BD0010024030B5040089B01422C4
:100A1800002102A801F0E5FE224B22689A4201D08B
:100A280009B030BD8021204B0903DA6B01200A434D
:100A3800DA63DA6B0A400092009A0122596B11437B
:100A4800596312215B6B0290039113400193A0201C
:100A5800019B0423C00502A90492069300F0B2FB8F
:100A6800124D134B80222B6039236B60293BAB60FE
:100A780000232800EB602A616B61AB61EB612B629C
:100A880000F0C2FC00280AD1002200211D20E567E1
:100A9800AC6200F09BFE1D2000F0C2FEC0E7FFF72D
:100AA8006FFFF1E7004C0040001002405411002095
:100AB80008000240F0B5CE46474680B5040083B032
:100AC800002827D00368DA0711D53822C04988687A
:100AD800C9680240102A00D1CCE0082A00D0CDE035
:100AE800BB4A1268920302D56268002A12D09A079C
:100AF80032D53823B64A91680B40D168102B00D103
:100B08000BE1002B00D00DE113685B0508D5E36805
:100B1800002B05D1012003B0C0BCB946B046F0BDDA
:100B280051686369AB481B0201400B435360A84AF4
:100B3800A94913680B4021690B4313601368A74A3E
:100B48009B045B0FDA40A6490A60A64B186800F0C0
:100B58008DFE0028DED123681A076DD45B0745D5C2
:100B680038239B4A91680B40202B00D1CCE080238E
:100B78000020D16B5B058146194208D1D16B19431E
:100B8800D163D26B13400193019B012399468027BF
:100B9800954E7F0033683B4200D1FFE0A368012BEC
:100BA80000D1E5E0052B00D1C8E10121884EF26DA6
:100BB8008A43F265F26D03318A43F265002B00D057
:100BC800DAE000F099FE022307009846874D05E019
:100BD80000F092FEC01BA84200D9EEE04246F36D39
:100BE8001A42F5D14B46012B00D163E1E369002B92
:100BF80020D03822764DA9680A40102A00D11DE17C
:100C0800022B00D15CE12B68794A802613402B60C7
:100C180000F072FEB604040005E000F06DFE001B53
:100C2800022800D9C9E02B683342F6D1EB68714A33
:100C38001340EB6000206EE73822654DA9680A4032
:100C4800182A43D0A369002B00D1B8E001222B6EEB
:100C5800022713432B6600F04FFE060005E000F064
:100C68004BFE801B022800D9A7E02B6E1F42F6D04E
:100C7800236873E7C943890700D131E78022636895
:100C8800520293422BD0A021C9028B4200D1FCE032
:100C98004F4D59492A680A402A602A6857490A402C
:100CA8002A60002B1FD100F027FE80270600BF0214
:100CB80004E000F021FE801B64287ED82B683B42AC
:100CC800F7D123689A0700D446E712E72A6E9207FD
:100CD80000D443E7A269002A00D03FE71AE73C4A5C
:100CE80011680B43136000F007FE80260500384F9B
:100CF800B60204E000F000FE401B64285DD83B68A3
:100D08003342F7D02368DDE7D36D9B0700D46DE746
:100D1800A368002B00D069E7FCE60D3B0B40022BD3
:100D280000D1BCE0E3682A4D002B73D02B682A4A17
:100D3800802713402269FF0013432B6080232A6811
:100D48005B0013432B6000F0D7FD060004E000F0C1
:100D5800D3FD801B022830D82B683B42F7D06A6845
:100D680063691C491B020A4013436B602368F3E65E
:100D78001749CA6D1343CB6500F0BEFD144B06003E
:100D880098460227194D04E000F0B6FD801BA842E2
:100D980013D84346DB6D1F42F6D023E733683B4345
:100DA800336000F0A9FD050033683B4200D0F5E64A
:100DB80000F0A2FD401B0228F6D90320ABE6012271
:100DC8002B6E022793432B6600F096FD06001CE06D
:100DD80000100240FF80FFFFFFC7FFFF0024F40060
:100DE800D8000020D40000200070004088130000C4
:100DF800FFFFFFFEFCFFFEEFFFFFFEFFFFFFFBFF15
:100E080000F07AFD801B0228D7D82B6E1F42F7D13D
:100E18002368A3E62B68504A802713402B6000F014
:100E28006BFDFF00060004E000F066FD801B022851
:100E3800C3D82B683B42F7D123688DE6012B00D13C
:100E480068E60322E868216A02408A4200D061E627
:100E58007022616A02408A4200D05BE6FE21A26AE3
:100E6800C90101401202914200D053E6F822E16A1A
:100E7800920302408A4200D04CE6236B400F4007A1
:100E8800C01A431E9841C0B245E68021334BC902BF
:100E980018680143196019680A431A6023E7136840
:100EA8005B0555D4516863692D481B0201400B430B
:100EB80053604AE6294A2B49D36B0B40D36395E626
:100EC8002B68294A802713402B6000F015FDBF04CA
:100ED800060005E000F010FD801B022800D96CE731
:100EE8002B683B42F6D1616A236AEA680B431F49C3
:100EF8001A4E0A401343E26A1343226B1343A26A51
:100F080012021343EB6080232A685B0413432B60AF
:100F18008023EA685B051343EB6000F0EDFC802555
:100F28000400AD0405E000F0E7FC001B022800D92E
:100F380043E733682B42F6D00020ECE50421074B49
:100F4800DA6D0A43DA65DA6D03390A43DA6513E7BD
:100F5800E368002BA6D1DDE5FFFEFFFF001002408D
:100F6800FF80FFFFFFFFFFEFFFFFFFFE8C80C11F29
:100F78003823224A10B591680B4205D113682048DE
:100F88009B045B0FD84010BD91681940082914D004
:100F980091681940102912D091681940202924D04D
:100FA800906818401838431E9841164B4042184024
:100FB800FA23DB019C466044E5E71348E3E7D3687E
:100FC800D168DB43D4684906490F64040131640ED3
:100FD8009B070DD00A48FFF775F86043074BD9689F
:100FE800490F0131FFF76EF8CDE780200002CAE70C
:100FF8000548FFF767F86043F0E7C0460010024075
:101008000024F4000083FFFF00127A00F8B5CE46F2
:10101800474605000C0080B5002826D00722574E09
:10102800336813408B425ED32B689A070ED55A0754
:1010380005D5E0225249D201886802438A605049A6
:1010480050488A680240A86802438A60DB072BD5AB
:101058006B684B4A012B00D17CE0022B07D0002B98
:1010680000D07DE01268520504D4012037E01268F0
:101078009201FAD50721424EB2688A431343B360FE
:1010880000F03AFC382398463F4B0700994604E0A5
:1010980000F032FCC01B48453BD84346B2681A40B2
:1010A8006B68DB009A42F3D10722344E3368134051
:1010B800A34238D82B685B072DD4FFF759FF304B74
:1010C800324A9B6832491B051B0F9B009B581F2205
:1010D8001340D8402F4B0860186800F0C7FBC0BC0D
:1010E800B946B046F8BD336893430B43336000F00C
:1010F80003FC07239846244B070099464246336869
:101108001340A34200D18FE700F0F6FBC01B48450F
:10111800F4D90320E3E71A4A1F4993680B40E968AA
:101128000B439360C9E7336893432343336000F06C
:10113800E3FB07239846144B070099464246336859
:101148001340A342B6D000F0D7FBC01B4845F5D9E1
:101158000320C4E71268920300D58BE70120BEE79D
:10116800032B05D0D26D920700D583E70120B6E79F
:10117800126E920700D57DE70120B0E700200240FB
:1011880000100240FFF0FFFF88130000AC37000892
:10119800D8000020D4000020FF8FFFFF064B07492E
:1011A8009B68074A5B045B0F9B005B581F21106814
:1011B8000B40D8407047C046001002408C370008EA
:1011C800D8000020F0B5DE4657464E464546E0B505
:1011D8000C688B46002383B0002C68D001229A400B
:1011E800944622409246624614425CD003215A46F5
:1011F8005F00B94055680322C9432A40561E009132
:10120800012E5BD9032A00D0ADE0BA4006680099E8
:1012180031400A430260C0229202154243D003279C
:101228000F265D491F408C46FF00BE409A08920079
:101238006244116EB143A026F605B0420ED0574E57
:10124800B04200D1A0E0564EB04200D1A0E0554EC9
:10125800B04200D194E00526BE4031438026116695
:1012680051464D4A7603C9431268354200D077E0AB
:101278000A40494E326072688026B60335426CD106
:101288000A40454E72608422B258AF0362D40A40C5
:101298008427414EF2518022B258ED0356D40A40B9
:1012A80080213D4D6A5022000133DA4096D103B0C7
:1012B800F0BCBB46B246A946A046F0BD81680E0008
:1012C80000990E405946C968B1460E00BE40B04666
:1012D8004E4641460E43866041680E0061468E4385
:1012E8002909B0460E0001210E409E40B4464646EC
:1012F80061460E434660C1680E0000990E4059468B
:101308008968B0460E00BE40B446464661460E4364
:10131800C660022A00D078E7D90889008C46844440
:1013280061460E6A072119408900884601960F21F7
:101338004646B140019E8E43594601964646096984
:10134800B140019E0E4361460E625EE7514611436D
:101358000A00A5E7564632439AE75646324390E7D5
:101368005646324385E70E00C168314088465946E3
:101378008968B9408C46414666463143C16044E7B6
:101388000326BE40314369E70126BE40314365E785
:101398000226BE40314361E70018024000040050B5
:1013A80000080050000C005000690840431E984196
:1013B800C0B27047002A01D0816170478162FCE7A2
:1013C800426913000B401B0491430B438361704730
:1013D8007047C0460B4B10B5DA680400104204D1C0
:1013E800084B1A69224207D110BDD860FFF7DCF814
:1013F800044B1A692242F7D020001C61FFF7E8FF6E
:10140800F2E7C04600180240F0B5C646040000B531
:10141800002860D00568314B1421E818FEF752FE09
:101428008300236402222523E2542B682C4AA668F1
:1014380013402B60E368216933430B4361692A68D1
:101448000B43A1690B43E1690B43216A0B43134327
:101458002B60244B14219C4660448700FF20224BBC
:101468002840A364676408389846FEF72BFE1F23BC
:1014780001220340100098408023E064DB019E4273
:101488001FD03F23454661680B4001393B606860C7
:1014980003291BD8154916485918013B9A400023BF
:1014A800890021656065A2650B60426000232522E2
:1014B80001210020E363A154013AA35480BCB8463B
:1014C800F0BD002363603B604346586000232365FA
:1014D8006365A365EAE70120F0E7C046F8FFFDBFB2
:1014E8000F80FFFF00820010800802403F8200103A
:1014F80040090240F0B5C646242400B5055D012D1B
:101508004FD0012525260555855DEFB2012D07D061
:101518008023C36300230355012080BCB846F0BD77
:10152800223C84550024C4630468C66C2568BD4306
:101538002560856C6E60066D002E02D0456D876D46
:101548006F601F4D076CAC466D68A8461C252F4080
:101558001B3DBD4047463D4367467D6063608368E9
:10156800102B20D0A160E260036B002B1ED00E224E
:10157800236813432360426C1368DB0304D580237C
:1015880011685B000B431360002E04D0802332687F
:101598005B00134333600122236800201343236058
:1015A800BBE70220B9E7A260E160DDE70422236817
:1015B800934323602368063213432360DBE7C04666
:1015C8000000024070B5002832D02523C35C022BEE
:1015D80029D10E210268174C13681C268B43416CD5
:1015E80013600B6823400B60012311689943116055
:1015F800026C1149324093404D682B434B60C26CDA
:10160800836C5A60036D002B05D01A6822401A605B
:10161800436D826D5A6025230122C2540022013B8A
:10162800C254002070BD04230022C3632033C25477
:101638000120F7E7FFFEFFFF00000240252370B5F9
:10164800C35C022B03D00423C363012070BD0E21A9
:1016580002681C261368154C8B431360012311681C
:1016680099431160416C0A6822400A60026C104973
:10167800324093404D682B434B60C26C836C5A6078
:10168800036D002B05D01A6822401A60436D826DE5
:101698005A6025230122C2540022013BC254836BA5
:1016A800002B00D098470020D0E7C046FFFEFFFF80
:1016B8000000024070B51C2104242B4B06681A68F0
:1016C800036C35680B40210099400A4210D02C4227
:1016D8000ED033689B0602D43368A3433360224B91
:1016E8005A6811435960036B002B00D0984770BDAE
:1016F8000224210099400A4217D02C4215D03368A1
:101708009B0606D40A223368934333602523093A9B
:10171800C254154B5A681143596000222423C254FD
:10172800C36A002BE3D09847E1E708210C009C40EE
:101738002242DCD02942DAD0326806318A4332604C
:10174800012215009D402B0007494C6823434B603C
:101758002523C263C2540022013BC254436B002BB1
:10176800C5D09847C3E7C0460000024070B5134C87
:10177800134A2368002513400343236080239B00FA
:10178800984201D0280070BD0E4B0F491B685800C5
:10179800C0184000FEF796FC80226369D200013031
:1017A800134202D1EEE7002805D0636901381342DD
:1017B800F9D10025E6E70325E4E7C04600700040BC
:1017C800FFF9FFFFD800002040420F00FF2203234B
:1017D80010B514000340DB009C4089010A40E44333
:1017E8009A4000280BDB0C4BC0219C4680088000E7
:1017F80060448900435823401343435010BD0F23CE
:10180800064903408C46083B9B089B006344D96902
:101818000C401443DC61F1E700E100E000ED00E07A
:10182800002805DB1F22012302409340014A136070
:101838007047C04600E100E08022431E52040120A8
:1018480093420ED2C021074A07485360036A09062B
:101858001B021B0A0B43036200230020936007331B
:101868001360704710E000E000ED00E070B50F4B2A
:1018780004001978002901D1012070BDFA208000E8
:10188800FEF720FC0A4D01002868FEF71BFCFFF755
:10189800D3FF0028F0D1032CEED801380022210014
:1018A800FFF794FF034B00201C60E6E7D000002000
:1018B800D8000020D40000208023084A5B0011686B
:1018C80010B50B4303201360FFF7D0FF041E02D0AE
:1018D8000124200010BDFFF77BF8FAE70020024042
:1018E800034A044B11681B785B1813607047C046A5
:1018F80044120020D0000020014B18687047C046F1
:101908004412002070B50400FFF7F6FF0500631CC1
:1019180002D0044B1B78E418FFF7EEFF401BA042EF
:10192800FAD370BDD0000020034A044913680B4065
:10193800034313607047C04600000140FFF9FFFFF2
:101948007047C04613008822F0B5C6468258040086
:1019580000B5202A2CD1002928D0002B26D080229F
:1019680080685201904238D054222165A352023235
:10197800A35232329046902640460027673AA75134
:101988002250E06F2268002817D0174D8763C56280
:10199800164D28320563164D4563FFF7ABFD002849
:1019A8000AD010234246A3511033A350012000E06F
:1019B800022080BCB846F0BD226840231362EFF3D2
:1019C80010813F3B83F3108880202268936803438B
:1019D800936081F310880020EBE72269002AC3D1C5
:1019E800CA07C1D50120E4E7011A0008551A000802
:1019F800651A00087047C0462022030011001B68C2
:101A080010B51B68806A19401A4219D15623C15271
:101A1800EFF3108C1F3A82F31088802401688B68DA
:101A2800A3438B608CF31088EFF3108182F3108846
:101A38000268402013680343136081F3108810BDC7
:101A4800FFF7D8FFFBE7C0467047C04610B5806A6D
:101A5800FFF7FAFF10BDC0467047C046F8B58821A9
:101A68008C23806A4558C45803689A68120601D5C1
:101A7800212D0CD09B685B0601D5222C25D0902205
:101A8800102183580B438350FFF7E6FFF8BD562318
:101A98000022C252EFF31086013282F31088C02769
:101AA80005682B68BB432B6086F31088EFF310851D
:101AB80082F3108802681C4E93683340936085F364
:101AC8001088202343500368D4E75E230022C252C3
:101AD800EFF31084013282F310880168134D0B680C
:101AE8002B400B6084F31088EFF3108182F3108889
:101AF80002680F4C93682340936081F31088C36E8B
:101B0800012B0AD1EFF3108183F3108810240268A7
:101B18001368A343136081F310888C232022C250DA
:101B28000023C3664367AAE7FFFF7FFFDFFEFFFFCF
:101B3800FEFFFFEF00235E2210B5806A8352083A49
:101B48008352FFF789FF10BD7047C046F8B5454678
:101B5800DE4657464E460268E0B5D369AE4D0400EE
:101B6800116890682B4238D120251D4206D0802666
:101B780076050D400640354300D015E1E56E012D90
:101B880000D1D8E080256D032B421FD180221A4254
:101B980006D080252D040A402840024300D00AE1DF
:101BA80040221A4202D00A4200D014E11A0202D599
:101BB8004A0000D523E1DB0102D5002900DA22E141
:101BC800F0BCBB46B246A946A046F8BD4602DDD5E4
:101BD8002000156200F084FCF2E7904E904D06401C
:101BE8000D403543CAD001251D4208D0CF0506D582
:101BF8009027BC461562E7593D436746E5510425E1
:101C08002F001F40BC460227A9461F4200D1C3E04F
:101C1800C50716D5902517626759A8464D463D4316
:101C28004746E5516546002D0BD0042515628C35D5
:101C3800A9466559A846022547462F433D004F4609
:101C4800E55108271F4208D020250D40354304D010
:101C580090261762A5593D43A55180252D012B4299
:101C680007D04E0105D5902620271562A5593D437A
:101C7800A55190256559002DA2D020251D4206D0DA
:101C880080235B050D4003401D4300D097E090265C
:101C98004025A15993681D4028230B401D4300D1BE
:101CA800B5E0EFF31080012282F3108821685D4DC2
:101CB8000B682B400B6080F31088EFF3108182F3E0
:101CC80010882268584893680340936081F310880D
:101CD800E36E012B0AD1EFF3108183F310881020F3
:101CE800226813688343136081F310888C232022B1
:101CF800E2500023E3666367236820329B681A4238
:101D080065D0EFF31080012383F3108821688B6876
:101D180093438B6080F3108880256059002856D043
:101D2800424B8363FFF78AFC002800D148E76059DB
:101D3800836B984744E710261E4200D122E70E42E3
:101D480000D11FE740231800166292681040134222
:101D58006ED080229446A2581068426892B2002A37
:101D680000D12DE75C218B46615A914200D827E7C4
:101D78005E27E2532022170000680740B846024257
:101D880000D192E0022323675C33E35A2000C91A8A
:101D980089B2FFF7D9FE13E76546002D00D150E759
:101DA800C50700D44DE740E7636F002B00D107E774
:101DB8002000984704E7A36F002BF9D100E7636F71
:101DC800002B00D163E72000984722685FE72000D6
:101DD800FFF742FEF4E6EFF31080012383F3108847
:101DE80021680B6893430B6080F310888823203A9E
:101DF800E25000232000A367FFF7FCFDE0E6200087
:101E080000F072FBDCE6200000F06CFBD8E6200056
:101E1800FFF722FEA551D3E60F08000001000010CD
:101E280020010004DFFEFFFFFEFFFFEF3D1B00085F
:101E38005C235E22E15AA35AA25A9BB2002A00D11F
:101E4800BEE6C91A89B2002900D1B9E6EFF31089B4
:101E580085F3108822681368984647462D4B1F4023
:101E6800176089F31088EFF3108985F310882268CA
:101E7800936898464746284B1F40976089F3108817
:101E88008C232022E250E0666067EFF3108085F330
:101E9800108822681368B343136080F31088022304
:101EA80020002367FFF750FE8AE6EFF3108985F3D9
:101EB80010882068194F01683940016089F310883B
:101EC800EFF3108985F3108820688168A943816041
:101ED80089F31088EFF3108985F3108820688168EA
:101EE8009943816089F310884C33E2504346E36696
:101EF800EFF3108185F3108822681368B3431360E9
:101F080081F310886346E058FFF75CFB5B46E15AB3
:101F180038E7C046DFFEFFFFFEFFFFEFFFFEFFFFD3
:101F280070B504002569A26823682A4365691968A1
:101F3800C0692A434C4D024329400A431A605A6833
:101F48004A49256A0A40E1680A435A60A2699968C1
:101F58002A43474D29400F250A439A60DA6A616A85
:101F6800AA430A43DA62434A934224D0424A93423C
:101F78000CD0424A934228D0414A934225D00120AE
:101F8800404BA36600236367A36770BD3E4B5A6D41
:101F98000C231340082B3DD021D8002B15D0042B3F
:101FA800EDD180231B0298423AD0FEF7E1FF0028CA
:101FB80013D0616A1AE0344B5A6D03231340022B85
:101FC80028D0032B0DD0012BEBD080231B02984285
:101FD80045D0FFF7E3F80028EBD10020D0E70C2B21
:101FE800CDD180231B0298421FD01800274B4900EF
:101FF800C95AFEF767F865686B08C0182900FEF72C
:1020080061F80200224B103A9A42B8D82368D86087
:102018000020B5E780231B02984223D01D48E5E73E
:10202800FEF7A6FF0028D8D0616A184B4900C95AA4
:10203800FEF748F8656840006B08C0182900FEF7ED
:1020480041F80200124B103A9A4298D8124B226873
:1020580003400007400F0343D360002090E7FFF7D9
:102068009DF8DFE70B48E0E7F369FFCFFFCFFFFFFD
:10207800FFF4FF11003801400044004000480040D0
:10208800004C00400100010000100240EC3700083D
:10209800EFFF00000024F400F0FF0000836A30B571
:1020A800DA0706D50168284C4A682240C46A2243E8
:1020B8004A609A0706D50168244C4A682240046B96
:1020C80022434A605A0706D50168214C4A682240D3
:1020D800446B22434A601A0706D501681D4C4A68BA
:1020E8002240846B22434A60DA0606D501681A4CFE
:1020F8008A682240C46B22438A609A0606D5016822
:10210800164C8A682240046C22438A605A060AD513
:102118000168134D4A68446C2A4022434A60802271
:102128005203944209D01B0606D502680D4953682C
:102138000B40C16C0B43536030BD4A680A4C2240C7
:10214800846C22434A60EEE7FFFFFDFFFFFFFEFFBE
:10215800FFFFFBFFFF7FFFFFFFEFFFFFFFDFFFFF3B
:10216800FFFFEFFFFFFFF7FFFFFF9FFFF8B54F46A9
:10217800D64680B51E00089B0C00070015000168B4
:1021880001330BD1CB6923401B1B5A425341AB424D
:10219800F8D00020C0BCBA46B146F8BD0423994621
:1021A80080231B019A46CB6923401B1B5A4253418B
:1021B800AB42EED1FFF7A0FB089B801B98422DD8BD
:1021C800002B2BD04A4639680B681A42EBD052468E
:1021D800CB691342E7D00A62EFF31080012282F341
:1021E800108839681B4C0B6823400B6080F31088FB
:1021F800EFF3108082F3108839688B6893438B6003
:1022080080F3108820238732BB500432BB5004323D
:10221800BB50842300220320FA54BBE7EFF310805D
:10222800012282F3108839680A4C0B6823400B603E
:1022380080F31088EFF3108082F3108839688B6878
:1022480093438B6080F3108820238732BB5004327D
:10225800BB50DEE75FFEFFFFF0B557464E464546EA
:10226800DE46E0B51F008823C35805000E001400A1
:1022780085B0202B00D098E000294AD0002A48D009
:10228800802382685B019A4204D10369002B01D143
:10229800CB073ED490230022EA50083B2132EA5073
:1022A800FFF72AFB5423EC5202330021EC5280231F
:1022B800AA6882465B0103919A4200D197E05623AF
:1022C800EB5A002B18D05623802498462A6880237E
:1022D80099467B1C25D1D3691C42FCD0002E5CD0CA
:1022E80033780136936243464146EB5A013B9BB231
:1022F8006B526B5A002BEAD153460022402128002A
:102308000097FFF733FF002845D188232022EA50A1
:1023180000E0012005B0F0BCBB46B246A946A04685
:10232800F0BD4946D36919408B4649461942D5D173
:10233800FFF7E2FA5346C01A874238D3002F36D047
:1023480004212A6813681942EBD08021D369090156
:102358000B42E6D01162EFF31080012282F310885D
:102368002968264C0B6823400B6080F31088EFF334
:10237800108082F3108829688B6893438B6080F300
:10238800108820238732AB500432AB500432AB5054
:102398005A466433EA540320BCE703990B88DB05EB
:1023A800DB0D93628B1C03939DE70220B2E7EFF3EA
:1023B8001080012282F310882968104C0B68234092
:1023C8000B6080F31088EFF3108082F3108829687F
:1023D8008B6893438B6080F3108820238732AB503F
:1023E8000432AB50002264330320EA5492E72B698D
:1023F800002B00D063E70396002660E75FFEFFFF2F
:1024080070B5040082B0002852D08823C358002B2E
:1024180050D0882324220121E2502268200013682A
:102428008B431360FFF77CFD012841D0A36A002B82
:102438003AD1236828495A6808250A4022215A6057
:102448009A688A439A609A6821392A439A601A6876
:102458000A431A6000229023E250FFF74DFA2268DF
:10246800060011680D420FD11268520727D42023A5
:102478008822A3500432A35000230020083AE366C0
:102488002367A35402B070BD8021144B002200932F
:10249800890303002000FFF769FE00281AD122688B
:1024A80012685207E3D50AE02000FFF7F7FDC0E7FE
:1024B8000120E7E784228354FEF7A6FAA9E78021E2
:1024C800064B0022009320003300C903FFF74EFE9D
:1024D8000028CCD00320D5E7FFB7FFFFFFFFFF019F
:1024E8007047C0467047C0467047C0460D4885468D
:1024F800FFF726FA0C480D490D4A002302E0D4588C
:10250800C4500433C4188C42F9D30A4A0A4C002335
:1025180001E013600432A242FBD300F073F9FDF727
:1025280051FFFEE700900020000000203801002045
:10253800403800083801002098130020FEE700000A
:102548000EB400B50B499CB01DAB029006900791E4
:1025580004910948094904CB0591006802A901932F
:1025680000F0D8F90022029B1A701CB008BC03B016
:102578001847C046FFFFFF7FE80000200802FFFF62
:10258800002310B5040003604360836081814366C3
:10259800C281036143618361190008225C3000F045
:1025A80020F90B4B246263620A4BA3620A4BE36275
:1025B8000A4B23630A4B9C4205D00A4B9C4202D02B
:1025C800094B9C4203D12000583000F03FF910BD60
:1025D800053100082D3100086531000891310008E7
:1025E80048120020B01200201813002010B5034A2A
:1025F8000349044800F06CF810BDC046DC00002018
:102608008D300008EC00002041680B4B10B5040029
:10261800994201D000F036FDA168084B994202D0DA
:10262800200000F02FFDE168054B994202D0200000
:1026380000F028FD10BDC04648120020B01200204E
:102648001813002010B5094B094A04211A600948DB
:102658000022FFF795FF012209210748FFF790FFA5
:10266800022212210548FFF78BFF10BD80130020BE
:10267800F525000848120020B01200201813002089
:1026880010B5024800F0E3F810BDC04685130020DD
:1026980010B5024800F0DCF810BDC04685130020D4
:1026A80010B50400FFF7ECFF236A002B02D0FFF7F8
:1026B800EFFF10BD044B2362044B1B68002BF6D1BF
:1026C800FFF7C0FFF3E7C04611260008801300207B
:1026D800F7B51400002600900191A5686768013FCE
:1026E80004D52468002CF8D13000FEBDAB89012B3D
:1026F80008D90E22AB5E013304D029000098019B53
:10270800984706436835EAE7036A70B505000E0086
:102718008468002B01D1FFF7C3FF636EDB0705D484
:10272800A3899B0502D4A06D00F091F8A3891B072B
:1027380002D52369002B1AD12100280000F09CFD46
:10274800002814D001256D42636EDB0705D4A389E8
:102758009B0502D4A06D00F07BF8280070BD0136FF
:10276800A360002B14DB23685A1C22601970A3682D
:102778003178013B0029F2D1A360002B14DA220042
:1027880028000A3100F035FD0130DBD00A25DBE7EF
:10279800A2699A4201DC0A29E5D12200280000F04A
:1027A80028FD0130E3D1CDE723685A1C22600A22B4
:1027B8001A70EBE710B5034B01001868FFF7A4FF88
:1027C80010BDC046E8000020020010B513781400C0
:1027D8000132002BFAD1CA5CE2540133002AFAD143
:1027E80010BD03008218934200D17047197001335D
:1027F800F9E703000A7818001A7001310133002A3A
:10280800F8D1704770B500260C4C0D4D641BA41010
:10281800A64209D1002600F045FF0A4C0A4D641B68
:10282800A410A64205D170BDB300EB5898470136F5
:10283800EEE7B300EB5898470136F2E7383800085E
:10284800383800083C3800083838000870477047A6
:1028580070470000F0B58E6885B01F000C000B684B
:1028680002900392BE4230D80C21625E9021C900CA
:102878000A4228D0032021695B1A01936369434304
:102888000198DD0FED187B1C1B186D10AB4200D9A9
:102898001D00520528D52900029800F05BF9061E94
:1028A8002CD0019A216900F052FEA289184B1A40D7
:1028B80080231343A381019B2661F61826603E00FE
:1028C8006561ED1AA560BE4200D93E003200039949
:1028D800206800F09AFD0020A3689B1BA360236872
:1028E8009B19236005B0F0BD2A00029800F052FC45
:1028F800061EE0D12169029800F032FE0C23012067
:10290800029A40421360A28934331343A381E9E752
:102918007FFBFFFFF0B5A1B003901D008B890F006E
:1029280016001B0611D50B69002B0ED1402100F0B3
:1029380011F938603861002805D10C23039A136017
:1029480001204042CFE040237B61002308AC636153
:10295800203363761033A376079535002B78002B48
:1029680001D0252B48D1AB1B0593B5420BD03200C3
:1029780039000398FFF76EFF013000D1AEE06369BC
:10298800059A9B1863612B78002B00D1A6E00122E1
:1029980000235242626004A9543252186E1C23600C
:1029A800E360A3601370A365544B052218003178C7
:1029B800059300F0C1FD751C00281FD12268D306BD
:1029C80004D5532304A95B1820211970130704D5D3
:1029D800532304A95B182B21197033782A2B16D09E
:1029E800350000210A20E3682A786E1C303A092A4B
:1029F80050D9002911D117E00135AFE7059B2268AE
:102A0800C01A0123834013432E002360CCE7079BA1
:102A1800191D1B680791002B01DB0B9304E05B4237
:102A2800E3600223134323602B782E2B0CD16B78A1
:102A38002A2B34D1079B02351A1D1B680792002BDD
:102A480001DA01235B4209932D4E032230002978D5
:102A580000F072FD002806D04023801B83402268C6
:102A68000135134323602978062226486E1C2176F7
:102A780000F062FD002838D0234B002B22D107221A
:102A8800079B07339343083307936369049A9B189A
:102A9800636162E74343350001219B18A4E70023E3
:102AA8000A201900013563602A786E1C303A092A19
:102AB80003D9002BC8D00991C6E74143350001234B
:102AC8008918F1E707AA009221003A000F4B0398F2
:102AD80000E000BF0490049B0133D6D1BB890D9858
:102AE8005B0600D52CE721B0F0BD07AA00922100B3
:102AF8003A00064B039800F01DF9EBE7043800088C
:102B08000A3800080E380008000000005D28000898
:102B180070B50F4E0D0031680400002902D100F095
:102B2800E5FC30602900200000F0E0FC431C03D1E4
:102B380001256D42280070BD0323C51C9D43A84292
:102B4800F8D0291A200000F0D1FC0130F2D1EFE7CB
:102B580088130020F7B50322CB1C934308330500E4
:102B68001F000C2B34D20C27B94233D8280000F0B0
:102B7800B5FA374E33681C00002C2FD139002800D5
:102B8800FFF7C6FF0400431C5FD134680094009B24
:102B9800002B4AD1002C52D023682800E318009952
:102BA800019300F0A3FC019B834248D123682800CD
:102BB800FF1A3900FFF7ACFF013040D02368DB195A
:102BC800236033685A68002A33D1009B336019E0C8
:102BD800002BC9DA0C232B600020FEBD2168C91B1D
:102BE80020D40B290AD9E2192760A34204D1326004
:102BF80063681160536005E05A60F9E76268A342B0
:102C08000ED13260280000F071FA200007220B3044
:102C1800231D9043C21A9842DFD01B1AA350DCE749
:102C28005A60EFE723006468A6E7009C6368009396
:102C3800ADE71A005B68A342FBD10023DAE70C2357
:102C480028002B6000F052FAC6E70760DAE7C046B2
:102C58008C130020F7B5160001938A680B690C00E5
:102C68000090934200DA1300220033604332127856
:102C7800002A01D00133336023689B0602D53368EC
:102C8800023333602268062315001D401A4227D0FC
:102C9800230043331B785A1E93412268920630D48E
:102CA800220001990098089D4332A847013025D099
:102CB8000622236800251340042B05D13368E568F4
:102CC800ED1AEB43DB171D40A3682269934201DD2F
:102CD8009B1AED180026B54220D1002010E00135DE
:102CE800E36832689B1AAB42D2DD220001230199C6
:102CF8000098089F1932B8470130F0D101204042AE
:102D0800FEBD3020E1184331087021005A1C4531BE
:102D18000978A218433202331170C1E72200012357
:102D280001990098089F1A32B8470130E6D0013659
:102D3800D1E70000F0B58BB006920A004332079342
:102D4800059004920A7E0C00109B782A09D8622A02
:102D58000BD8002A00D1C8E081490391582A00D134
:102D68009CE0250042352A7022E0100063381528BF
:102D7800F7D8FDF79DF916001F00F6FFF6FFF6FFDE
:102D8800F6FF1F00F6FFF6FFF6FFF6FFAD004F0057
:102D98008C00F6FFF6FFBE00F6FF4F00F6FFF6FFC9
:102DA800900025001A684235111D196013682B70B0
:102DB8000123ACE018680968021D0D061FD50668D6
:102DC8001A60674A0A2761680392002E35DA2300E1
:102DD8002D2043331870A160002916DA0A2776429D
:102DE8000392049D30003900FDF7F2F9039B013D81
:102DF8005B5C2B70330006009F42F3D92AE006681B
:102E08001A604906DDD536B2DBE7042123688B4317
:102E18002360E3E70868196840C9050602D440063C
:102E280000D5B6B219604E4B0A2703936F2A00D11A
:102E3800023F2300002243331A706368A360002B0B
:102E4800CFDB042122688A432260002EC9D1049D69
:102E5800002BC6D1082F09D12368DB0706D5626885
:102E680023699A4202DC3023013D2B70049B5B1BD3
:102E78002361079B210000930598069B09AAFFF789
:102E8800E9FE013048D1012040420BB0F0BD2022BC
:102E980009680A43226078223249039121004531AA
:102EA8000A701968226840C9100602D4500600D575
:102EB800B6B21960D30702D5202313432360002E2E
:102EC80001D01027B5E72022236893432360F8E751
:102ED8001A680D68101D4969186013682E0601D517
:102EE800196002E06D06FBD519800023049D23615B
:102EF800BFE71A68111D196015680021280062686B
:102F080000F01AFB002801D0401B60606368236151
:102F18000023049A1370ACE72A00236906990598E0
:102F2800079DA8470130AED023689B0715D4099B9D
:102F3800E0689842A9DA1800A7E722000123069959
:102F48000598079E1932B04701309CD00135E368D7
:102F5800099A9B1AAB42F0DCE9E70025F7E7C0467F
:102F68001538000826380008F7B50C228B5E0500D6
:102F78000C001A0761D44A68002A02DC0A6C002A8D
:102F880042DDE76A002F3FD0002280202E682A60A9
:102F98001A004001216A0240034227D0626DA389CA
:102FA8005B0706D56368D21A636B002B01D0236CCC
:102FB800D21A00232800E76A216AB847431C25D0A3
:102FC8000023636023692360A389DB0400D560655F
:102FD800616B2E60002917D023004433994202D038
:102FE800280000F0BDFA002363630DE001232800E8
:102FF800B8470200431CD2D12B68002BCFD01D2B21
:1030080001D0162B31D12E60002035E02B680C2121
:10301800625E002B08D01D2B01D0162B0AD100238D
:10302800636023692360D3E7636023692360D20464
:10303800CDD4CDE7402313431BE00E69002EE3D027
:103048000F680E60BA1B019200229B0700D14A69E3
:10305800A260019B002BD7DDA36A32001F00280065
:10306800019B216AB847002807DC4023A289134343
:103078001BB20120A3814042FEBD019B36181B1ADA
:103088000193E6E70B6970B505000C00002B02D12F
:103098000025280070BD002804D0036A002B01D148
:1030A800FFF7FEFA0C22A35E002BF1D0626ED20766
:1030B80004D49B0502D4A06DFFF7C9FB28002100AA
:1030C800FFF752FF636E0500DB07E2D4A3899B0577
:1030D800DFD4A06DFFF7BCFBDBE7000010B50248AA
:1030E800FFF7B5FB10BDC0468413002010B5024899
:1030F800FFF7AEFB10BDC0468413002070B50C006E
:103108000E25495F00F0DEF9002803DB636D1B180C
:10311800636570BDA389024A1340A381F9E7C046DD
:10312800FFEFFFFFF8B51F008B8905000C001600A4
:10313800DB0505D50E23C95E0022022300F0AEF997
:10314800A389054A28001340A38132000E23E15EBB
:103158003B0000F0DDF9F8BDFFEFFFFF70B50C0094
:103168000E25495F00F09AF9A389421C03D1054A4C
:103178001340A38170BD802252011343A38160656F
:10318800F8E7C046FFEFFFFF10B50E23C95E00F059
:103198004FF910BDF7B506000C001500002905D140
:1031A8001100FFF7D7FC04002000FEBD002A03D160
:1031B80000F0D6F90024F7E700F01CFA0700854272
:1031C80002D84308AB42EFD329003000FFF7C2FC16
:1031D80001900028EED02A00BD4200D93A00210013
:1031E800019800F0B4F92100300000F0B9F9019C11
:1031F800DAE7F8B506000D001400002804D0036AC9
:10320800002B01D1FFF74CFAA369A360A3891B0720
:1032180002D52369002B09D12100300000F02CF8D9
:10322800002803D001256D422800F8BD23692068D5
:10323800EFB2C01A6369EDB2834205DC21003000A9
:10324800FFF720FF0028EDD1A3680130013BA36000
:1032580023685A1C22601F706369834204D0A389C3
:10326800DB07E1D50A2DDFD121003000FFF70AFF87
:103278000028D9D0D6E700002D4B70B50500186896
:103288000C00002804D0036A002B01D1FFF708FACC
:103298000C23E25E130723D4D30607D409232B603B
:1032A800402301201343A38140423AE0520713D53B
:1032B800616B002908D023004433994202D02800CA
:1032C80000F04EF9002363632422A3899343A3816A
:1032D80000236360236923600823A2891343A38121
:1032E8002369002B0BD1A0218022A3898900920099
:1032F8000B40934203D02100280000F045F80C232E
:10330800E25E012113000B400A420BD00023A360A8
:1033180063695B42A36100202369834201D11306DC
:10332800BED470BD910700D46369A360F3E7C046BB
:10333800E800002070B50E001D000E23C95E1400C1
:1033480096B000290CDAB2898023110019401A427C
:1033580014D18023DB0000202960236016B070BDE3
:103368006A4600F077F80028EDDBF02301991B028C
:103378001940044BC9184B425941EAE70021402340
:10338800E9E7C04600E0FFFFF0B502268B8905009B
:103398000C0085B0334207D02300473323602361F4
:1033A8000123636105B0F0BD03AB02AAFFF7C2FFBA
:1033B800029F019039002800FFF7CCFB002808D1B4
:1033C8000C22A35E9A05EDD4032293431E43A681E3
:1033D800E2E78023A28920601343A381039B206135
:1033E8006761002B0CD028000E23E15E00F044F842
:1033F800002805D00323A2899A43023B1343A381E3
:10340800A389019A1343A381CCE710B5884206D853
:1034180000239A4208D0CC5CC4540133F9E78B18D6
:103428009842F5D2013A00D210BD8B5C8354F9E77B
:10343800002370B5064D040008002B6000F0E2F888
:10344800431C03D12B68002B00D0236070BDC046FD
:1034580090130020002370B5064D040008001100E9
:103468002B6000F0D7F8431C03D12B68002B00D049
:10347800236070BD90130020002370B5064D040032
:1034880008002B6000F0CEF8431C03D12B68002BFA
:1034980000D0236070BDC0469013002070B50400B2
:1034A800080011001A000023054D2B6000F0C2F837
:1034B800431C03D12B68002B00D0236070BDC0468D
:1034C8009013002070B50400080011001A000023B2
:1034D800054D2B6000F0B6F8431C03D12B68002B78
:1034E80000D0236070BDC04690130020002370B543
:1034F800064D040008002B6000F0ACF8431C03D113
:103508002B68002B00D0236070BDC04690130020AC
:1035180070B50400080011001A000023054D2B6047
:10352800FDF720FA431C03D12B68002B00D0236041
:1035380070BDC04690130020C9B28218904201D1D4
:103548000020704703788B42FBD00130F6E7002358
:1035580010B59A4200D110BDCC5CC4540133F8E7D1
:1035680070B505000C1E10D0043C2368002B00DA4F
:10357800E4182800FFF7B2FD1D4A1368002B05D197
:10358800636014602800FFF7B1FD70BDA34208D93D
:10359800206821188B42F3D119685B6809182160EB
:1035A800EEE71A005B68002B01D0A342F9D9116835
:1035B8005018A0420BD12068091850181160834296
:1035C800E0D118685B68411811605360DAE7A042DF
:1035D80002D90C232B60D5E7206821188B4203D130
:1035E80019685B680918216063605460CAE7C046BF
:1035F8008C1300200B1F1B68181F002B01DA0B58B7
:10360800C018704758220120014B40421A60704789
:103618009013002058220120014B40421A60704745
:10362800901300205822024B00201A607047C046B1
:103638009013002058220120014B40421A60704725
:103648009013002058220120014B40421A60704715
:1036580090130020044A03001068002802D0C31801
:10366800136070470148FAE794130020981300206C
:10367800094A43081340C01A0200084B8008184042
:103688001A40121813099B18054A13401802C0184B
:103698000304C018000E704755555555333333335E
:1036A8000F0F0F0FF8B5C046F8BC08BC9E46704710
:0C36B800F8B5C046F8BC08BC9E46704740
:1036C4000A3D3D3D3D3D3D3D3D3D3D3D3D3D3D3D59
:1036D4000A426F6F74696E67000000004572726F72
:1036E400722E20496E76616C696420636F6D6D6122
:1036F4006E642072656365697665643A2030782566
:103704006C6C780A44726F7070696E6720636F6DB9
:103714006D616E642E0A00004572726F722E20492C
:103724006E76616C696420636F6D6D616E64206C8C
:10373400656E6774683A2025750A44726F70706903
:103744006E6720636F6D6D616E642E0A0000000069
:103754004572726F722E20496E76616C69642072B4
:10376400656C61792073746174653A203078256CD6
:10377400780A44726F7070696E6720636F6D6D6153
:103784006E642E0A0000000000000000000000002B
:103794000000000000000000010000000200000022
:1037A400030000000400000000000000000000000E
:1037B4000000000000000000000000000000000005
:1037C40000000000000000000100000002000000F2
:1037D40003000000040000000600000007000000D1
:1037E40008000000090000000100020004000600B7
:1037F40008000A000C0010002000400080000001B6
:10380400232D302B2000686C4C00656667454647C5
:103814000030313233343536373839414243444548
:1038240046003031323334353637383961626364B7
:0438340065660000C5
:043838005902000829
:04383C002D02000851
:1038400010121416090D0F0103060B0011131517A2
:10385000080E000204050C000B0C0D0E0F101112C7
:1038600013140102030405060708090A15160000CF
:1038700000040000000800000010000000800000AC
:1038800008000000100000002000000040000000C0
:1038900080000000000100000001000004000000A2
:1038A0000200000001000000800000004000000055
:1038B00020000000100000000800000004000000CC
:1038C00000000050000000500000005000000050B8
:1038D0000004005000040050000400500004005098
:1038E000000400500004005000000050000400508C
:1038F000000400500000005000040050000400507C
:10390000000400500000005000000050000400506F
:1039100001000000040000000024F400000000008A
:103920000300000048120020EC000020000000000E
:1039300048120020B01200201813002000000000E0
:103940000000000000000000000000000000000077
:103950000000000000000000000000000000000067
:103960000000000000000000000000000000000057
:0839700000000000000000004F
:04000005080024F5D6
:00000001FF
